:020000040000FA
:020000000000FE
:020001000001FC
:020002000002FA
:020003000003F8
:020004000004F6
:020005000005F4
:020006000006F2
:020007000007F0
:020008000008EE
:020009000009EC
:02000A00000AEA
:02000B00000BE8
:02000C00000CE6
:02000D00000DE4
:02000E00000EE2
:02000F00000FE0
:020010000010DE
:020011000011DC
:020012000012DA
:020013000013D8
:020014000014D6
:020015000015D4
:020016000016D2
:020017000017D0
:020018000018CE
:020019000019CC
:02001A00001ACA
:02001B00001BC8
:02001C00001CC6
:02001D00001DC4
:02001E00001EC2
:02001F00001FC0
:020020000020BE
:020021000021BC
:020022000022BA
:020023000023B8
:020024000024B6
:020025000025B4
:020026000026B2
:020027000027B0
:020028000028AE
:020029000029AC
:02002A00002AAA
:02002B00002BA8
:02002C00002CA6
:02002D00002DA4
:02002E00002EA2
:02002F00002FA0
:0200300000309E
:0200310000319C
:0200320000329A
:02003300003398
:02003400003496
:02003500003594
:02003600003692
:02003700003790
:0200380000388E
:0200390000398C
:02003A00003A8A
:02003B00003B88
:02003C00003C86
:02003D00003D84
:02003E00003E82
:02003F00003F80
:0200400000407E
:0200410000417C
:0200420000427A
:02004300004378
:02004400004476
:02004500004574
:02004600004672
:02004700004770
:0200480000486E
:0200490000496C
:02004A00004A6A
:02004B00004B68
:02004C00004C66
:02004D00004D64
:02004E00004E62
:02004F00004F60
:0200500000505E
:0200510000515C
:0200520000525A
:02005300005358
:02005400005456
:02005500005554
:02005600005652
:02005700005750
:0200580000584E
:0200590000594C
:02005A00005A4A
:02005B00005B48
:02005C00005C46
:02005D00005D44
:02005E00005E42
:02005F00005F40
:0200600000603E
:0200610000613C
:0200620000623A
:02006300006338
:02006400006436
:02006500006534
:02006600006632
:02006700006730
:0200680000682E
:0200690000692C
:02006A00006A2A
:02006B00006B28
:02006C00006C26
:02006D00006D24
:02006E00006E22
:02006F00006F20
:0200700000701E
:0200710000711C
:0200720000721A
:02007300007318
:02007400007416
:02007500007514
:02007600007612
:02007700007710
:0200780000780E
:0200790000790C
:02007A00007A0A
:02007B00007B08
:02007C00007C06
:02007D00007D04
:02007E00007E02
:02007F00007F00
:020080000080FE
:020081000081FC
:020082000082FA
:020083000083F8
:020084000084F6
:020085000085F4
:020086000086F2
:020087000087F0
:020088000088EE
:020089000089EC
:02008A00008AEA
:02008B00008BE8
:02008C00008CE6
:02008D00008DE4
:02008E00008EE2
:02008F00008FE0
:020090000090DE
:020091000091DC
:020092000092DA
:020093000093D8
:020094000094D6
:020095000095D4
:020096000096D2
:020097000097D0
:020098000098CE
:020099000099CC
:02009A00009ACA
:02009B00009BC8
:02009C00009CC6
:02009D00009DC4
:02009E00009EC2
:02009F00009FC0
:0200A00000A0BE
:0200A10000A1BC
:0200A20000A2BA
:0200A30000A3B8
:0200A40000A4B6
:0200A50000A5B4
:0200A60000A6B2
:0200A70000A7B0
:0200A80000A8AE
:0200A90000A9AC
:0200AA0000AAAA
:0200AB0000ABA8
:0200AC0000ACA6
:0200AD0000ADA4
:0200AE0000AEA2
:0200AF0000AFA0
:0200B00000B09E
:0200B10000B19C
:0200B20000B29A
:0200B30000B398
:0200B40000B496
:0200B50000B594
:0200B60000B692
:0200B70000B790
:0200B80000B88E
:0200B90000B98C
:0200BA0000BA8A
:0200BB0000BB88
:0200BC0000BC86
:0200BD0000BD84
:0200BE0000BE82
:0200BF0000BF80
:0200C00000C07E
:0200C10000C17C
:0200C20000C27A
:0200C30000C378
:0200C40000C476
:0200C50000C574
:0200C60000C672
:0200C70000C770
:0200C80000C86E
:0200C90000C96C
:0200CA0000CA6A
:0200CB0000CB68
:0200CC0000CC66
:0200CD0000CD64
:0200CE0000CE62
:0200CF0000CF60
:0200D00000D05E
:0200D10000D15C
:0200D20000D25A
:0200D30000D358
:0200D40000D456
:0200D50000D554
:0200D60000D652
:0200D70000D750
:0200D80000D84E
:0200D90000D94C
:0200DA0000DA4A
:0200DB0000DB48
:0200DC0000DC46
:0200DD0000DD44
:0200DE0000DE42
:0200DF0000DF40
:0200E00000E03E
:0200E10000E13C
:0200E20000E23A
:0200E30000E338
:0200E40000E436
:0200E50000E534
:0200E60000E632
:0200E70000E730
:0200E80000E82E
:0200E90000E92C
:0200EA0000EA2A
:0200EB0000EB28
:0200EC0000EC26
:0200ED0000ED24
:0200EE0000EE22
:0200EF0000EF20
:0200F00000F01E
:0200F10000F11C
:0200F20000F21A
:0200F30000F318
:0200F40000F416
:0200F50000F514
:0200F60000F612
:0200F70000F710
:0200F80000F80E
:0200F90000F90C
:0200FA0000FA0A
:0200FB0000FB08
:0200FC0000FC06
:0200FD0000FD04
:0200FE0000FE02
:0200FF0000FF00
:020100000100FC
:020101000101FA
:020102000102F8
:020103000103F6
:020104000104F4
:020105000105F2
:020106000106F0
:020107000107EE
:020108000108EC
:020109000109EA
:02010A00010AE8
:02010B00010BE6
:02010C00010CE4
:02010D00010DE2
:02010E00010EE0
:02010F00010FDE
:020110000110DC
:020111000111DA
:020112000112D8
:020113000113D6
:020114000114D4
:020115000115D2
:020116000116D0
:020117000117CE
:020118000118CC
:020119000119CA
:02011A00011AC8
:02011B00011BC6
:02011C00011CC4
:02011D00011DC2
:02011E00011EC0
:02011F00011FBE
:020120000120BC
:020121000121BA
:020122000122B8
:020123000123B6
:020124000124B4
:020125000125B2
:020126000126B0
:020127000127AE
:020128000128AC
:020129000129AA
:02012A00012AA8
:02012B00012BA6
:02012C00012CA4
:02012D00012DA2
:02012E00012EA0
:02012F00012F9E
:0201300001309C
:0201310001319A
:02013200013298
:02013300013396
:02013400013494
:02013500013592
:02013600013690
:0201370001378E
:0201380001388C
:0201390001398A
:02013A00013A88
:02013B00013B86
:02013C00013C84
:02013D00013D82
:02013E00013E80
:02013F00013F7E
:0201400001407C
:0201410001417A
:02014200014278
:02014300014376
:02014400014474
:02014500014572
:02014600014670
:0201470001476E
:0201480001486C
:0201490001496A
:02014A00014A68
:02014B00014B66
:02014C00014C64
:02014D00014D62
:02014E00014E60
:02014F00014F5E
:0201500001505C
:0201510001515A
:02015200015258
:02015300015356
:02015400015454
:02015500015552
:02015600015650
:0201570001574E
:0201580001584C
:0201590001594A
:02015A00015A48
:02015B00015B46
:02015C00015C44
:02015D00015D42
:02015E00015E40
:02015F00015F3E
:0201600001603C
:0201610001613A
:02016200016238
:02016300016336
:02016400016434
:02016500016532
:02016600016630
:0201670001672E
:0201680001682C
:0201690001692A
:02016A00016A28
:02016B00016B26
:02016C00016C24
:02016D00016D22
:02016E00016E20
:02016F00016F1E
:0201700001701C
:0201710001711A
:02017200017218
:02017300017316
:02017400017414
:02017500017512
:02017600017610
:0201770001770E
:0201780001780C
:0201790001790A
:02017A00017A08
:02017B00017B06
:02017C00017C04
:02017D00017D02
:02017E00017E00
:02017F00017FFE
:020180000180FC
:020181000181FA
:020182000182F8
:020183000183F6
:020184000184F4
:020185000185F2
:020186000186F0
:020187000187EE
:020188000188EC
:020189000189EA
:02018A00018AE8
:02018B00018BE6
:02018C00018CE4
:02018D00018DE2
:02018E00018EE0
:02018F00018FDE
:020190000190DC
:00000001ff
