:020000040000FA
:010000000FF0
:010001000DF1
:010002000BF2
:0100030009F3
:0100040007F4
:0100050005F5
:0100060003F6
:0100070001F7
:010008000FE8
:010009000DE9
:01000A000BEA
:01000B0009EB
:01000C0007EC
:01000D0005ED
:01000E0003EE
:01000F0001EF
:010010000FE0
:010011000DE1
:010012000BE2
:0100130009E3
:0100140007E4
:0100150005E5
:0100160003E6
:0100170001E7
:010018000FD8
:010019000DD9
:01001A000BDA
:01001B0009DB
:01001C0007DC
:01001D0005DD
:01001E0003DE
:01001F0001DF
:010020000ED1
:010021000DD1
:010022000BD2
:0100230009D3
:0100240007D4
:0100250005D5
:0100260003D6
:0100270001D7
:010028000EC9
:010029000CCA
:01002A000BCA
:01002B0009CB
:01002C0007CC
:01002D0005CD
:01002E0003CE
:01002F0001CF
:010030000EC1
:010031000CC2
:010032000AC3
:0100330009C3
:0100340007C4
:0100350005C5
:0100360003C6
:0100370001C7
:010038000EB9
:010039000CBA
:01003A000ABB
:01003B0009BB
:01003C0007BC
:01003D0005BD
:01003E0003BE
:01003F0001BF
:010040000EB1
:010041000CB2
:010042000AB3
:0100430008B4
:0100440007B4
:0100450005B5
:0100460003B6
:0100470001B7
:010048000EA9
:010049000CAA
:01004A000AAB
:01004B0008AC
:01004C0007AC
:01004D0005AD
:01004E0003AE
:01004F0001AF
:010050000EA1
:010051000CA2
:010052000AA3
:0100530008A4
:0100540006A5
:0100550005A5
:0100560003A6
:0100570001A7
:010058000E99
:010059000C9A
:01005A000A9B
:01005B00089C
:01005C00069D
:01005D00059D
:01005E00039E
:01005F00019F
:010060000E91
:010061000C92
:010062000A93
:010063000894
:010064000695
:010065000595
:010066000396
:010067000197
:010068000E89
:010069000C8A
:01006A000A8B
:01006B00088C
:01006C00068D
:01006D00058D
:01006E00038E
:01006F00018F
:010070000E81
:010071000C82
:010072000A83
:010073000884
:010074000685
:010075000585
:010076000386
:010077000187
:010078000D7A
:010079000C7A
:01007A000A7B
:01007B00087C
:01007C00067D
:01007D00047E
:01007E00037E
:01007F00017F
:010080000D72
:010081000C72
:010082000A73
:010083000874
:010084000675
:010085000476
:010086000376
:010087000177
:010088000D6A
:010089000C6A
:01008A000A6B
:01008B00086C
:01008C00066D
:01008D00046E
:01008E00036E
:01008F00016F
:010090000D62
:010091000B63
:010092000A63
:010093000864
:010094000665
:010095000466
:010096000366
:010097000167
:010098000D5A
:010099000B5B
:01009A000A5B
:01009B00085C
:01009C00065D
:01009D00045E
:01009E00035E
:01009F00015F
:0100A0000D52
:0100A1000B53
:0100A2000A53
:0100A3000854
:0100A4000655
:0100A5000456
:0100A6000356
:0100A7000157
:0100A8000D4A
:0100A9000B4B
:0100AA000A4B
:0100AB00084C
:0100AC00064D
:0100AD00044E
:0100AE00034E
:0100AF00014F
:0100B0000D42
:0100B1000B43
:0100B2000944
:0100B3000844
:0100B4000645
:0100B5000446
:0100B6000346
:0100B7000147
:0100B8000D3A
:0100B9000B3B
:0100BA00093C
:0100BB00083C
:0100BC00063D
:0100BD00043E
:0100BE00033E
:0100BF00013F
:0100C0000D32
:0100C1000B33
:0100C2000934
:0100C3000834
:0100C4000635
:0100C5000436
:0100C6000336
:0100C7000137
:0100C8000D2A
:0100C9000B2B
:0100CA00092C
:0100CB00082C
:0100CC00062D
:0100CD00042E
:0100CE00032E
:0100CF00012F
:0100D0000D22
:0100D1000B23
:0100D2000924
:0100D3000824
:0100D4000625
:0100D5000426
:0100D6000326
:0100D7000127
:0100D8000D1A
:0100D9000B1B
:0100DA00091C
:0100DB00081C
:0100DC00061D
:0100DD00041E
:0100DE00031E
:0100DF00011F
:0100E0000C13
:0100E1000B13
:0100E2000914
:0100E3000715
:0100E4000615
:0100E5000416
:0100E6000217
:0100E7000117
:0100E8000C0B
:0100E9000B0B
:0100EA00090C
:0100EB00070D
:0100EC00060D
:0100ED00040E
:0100EE00020F
:0100EF00010F
:0100F0000C03
:0100F1000B03
:0100F2000904
:0100F3000705
:0100F4000605
:0100F5000406
:0100F6000207
:0100F7000107
:0100F8000CFB
:0100F9000BFB
:0100FA0009FC
:0100FB0007FD
:0100FC0006FD
:0100FD0004FE
:0100FE0002FF
:0100FF0001FF
:010100000CF2
:010101000BF2
:0101020009F3
:0101030007F4
:0101040006F4
:0101050004F5
:0101060002F6
:0101070001F6
:010108000CEA
:010109000BEA
:01010A0009EB
:01010B0007EC
:01010C0006EC
:01010D0004ED
:01010E0002EE
:01010F0001EE
:010110000CE2
:010111000AE3
:0101120009E3
:0101130007E4
:0101140006E4
:0101150004E5
:0101160002E6
:0101170001E6
:010118000CDA
:010119000ADB
:01011A0009DB
:01011B0007DC
:01011C0006DC
:01011D0004DD
:01011E0002DE
:01011F0001DE
:010120000CD2
:010121000AD3
:0101220009D3
:0101230007D4
:0101240006D4
:0101250004D5
:0101260002D6
:0101270001D6
:010128000CCA
:010129000ACB
:01012A0009CB
:01012B0007CC
:01012C0006CC
:01012D0004CD
:01012E0002CE
:01012F0001CE
:010130000CC2
:010131000AC3
:0101320009C3
:0101330007C4
:0101340006C4
:0101350004C5
:0101360002C6
:0101370001C6
:010138000CBA
:010139000ABB
:01013A0009BB
:01013B0007BC
:01013C0006BC
:01013D0004BD
:01013E0002BE
:01013F0001BE
:010140000CB2
:010141000AB3
:0101420009B3
:0101430007B4
:0101440005B5
:0101450004B5
:0101460002B6
:0101470001B6
:010148000CAA
:010149000AAB
:01014A0009AB
:01014B0007AC
:01014C0005AD
:01014D0004AD
:01014E0002AE
:01014F0001AE
:010150000CA2
:010151000AA3
:0101520009A3
:0101530007A4
:0101540005A5
:0101550004A5
:0101560002A6
:0101570001A6
:010158000C9A
:010159000A9B
:01015A00089C
:01015B00079C
:01015C00059D
:01015D00049D
:01015E00029E
:01015F00019E
:010160000C92
:010161000A93
:010162000894
:010163000794
:010164000595
:010165000495
:010166000296
:010167000196
:010168000B8B
:010169000A8B
:01016A00088C
:01016B00078C
:01016C00058D
:01016D00048D
:01016E00028E
:01016F00018E
:010170000B83
:010171000A83
:010172000884
:010173000784
:010174000585
:010175000485
:010176000286
:010177000186
:010178000B7B
:010179000A7B
:01017A00087C
:01017B00077C
:01017C00057D
:01017D00047D
:01017E00027E
:01017F00017E
:010180000B73
:010181000A73
:010182000874
:010183000774
:010184000575
:010185000475
:010186000276
:010187000176
:010188000B6B
:010189000A6B
:01018A00086C
:01018B00076C
:01018C00056D
:01018D00046D
:01018E00026E
:01018F00016E
:010190000B63
:010191000A63
:010192000864
:010193000764
:010194000565
:010195000465
:010196000266
:010197000166
:010198000B5B
:010199000A5B
:01019A00085C
:01019B00075C
:01019C00055D
:01019D00045D
:01019E00025E
:01019F00015E
:0101A0000B53
:0101A1000A53
:0101A2000854
:0101A3000754
:0101A4000555
:0101A5000455
:0101A6000256
:0101A7000156
:0101A8000B4B
:0101A9000A4B
:0101AA00084C
:0101AB00074C
:0101AC00054D
:0101AD00044D
:0101AE00024E
:0101AF00014E
:0101B0000B43
:0101B1000A43
:0101B2000844
:0101B3000744
:0101B4000545
:0101B5000445
:0101B6000246
:0101B7000146
:0101B8000B3B
:0101B9000A3B
:0101BA00083C
:0101BB00073C
:0101BC00053D
:0101BD00043D
:0101BE00023E
:0101BF00013E
:0101C0000B33
:0101C1000934
:0101C2000834
:0101C3000734
:0101C4000535
:0101C5000435
:0101C6000236
:0101C7000136
:0101C8000B2B
:0101C900092C
:0101CA00082C
:0101CB00072C
:0101CC00052D
:0101CD00042D
:0101CE00022E
:0101CF00012E
:0101D0000B23
:0101D1000924
:0101D2000824
:0101D3000724
:0101D4000525
:0101D5000425
:0101D6000226
:0101D7000126
:0101D8000B1B
:0101D900091C
:0101DA00081C
:0101DB00061D
:0101DC00051D
:0101DD00041D
:0101DE00021E
:0101DF00011E
:0101E0000B13
:0101E1000914
:0101E2000814
:0101E3000615
:0101E4000515
:0101E5000415
:0101E6000216
:0101E7000116
:0101E8000B0B
:0101E900090C
:0101EA00080C
:0101EB00060D
:0101EC00050D
:0101ED00040D
:0101EE00020E
:0101EF00010E
:0101F0000B03
:0101F1000904
:0101F2000804
:0101F3000605
:0101F4000505
:0101F5000405
:0101F6000206
:0101F7000106
:0101F8000BFB
:0101F90009FC
:0101FA0008FC
:0101FB0006FD
:0101FC0005FD
:0101FD0004FD
:0101FE0002FE
:0101FF0001FE
:00000001ff
