:020000040000FA
:02000000051FDA
:020001000520D8
:020002000522D5
:020003000527CF
:02000400052EC7
:020005000536BE
:020006000540B3
:02000700054CA6
:02000800055A97
:02000900056A86
:02000A00057C73
:02000B0005905E
:02000C0005A548
:02000D0005BC30
:02000E0005D516
:02000F0005F0FA
:02001000060DDB
:02001100062BBC
:02001200064B9B
:02001300066E77
:02001400069153
:0200150006B72C
:0200160006DE04
:020017000708D8
:020018000733AC
:02001900075F7F
:02001A00078E4F
:02001B0007BE1E
:02001C0007F0EB
:02001D000823B6
:02001E00085880
:02001F00088F48
:0200200008C80E
:020021000902D2
:02002200093D96
:02002300097B57
:0200240009BA17
:0200250009FAD6
:020026000A3C92
:020027000A804D
:020028000AC507
:020029000B0CBE
:02002A000B5475
:02002B000B9E2A
:02002C000BE9DE
:02002D000C3590
:02002E000C8341
:02002F000CD2F1
:020030000D239E
:020031000D754B
:020032000DC9F6
:020033000E1DA0
:020034000E7349
:020035000ECBF0
:020036000F2396
:020037000F7D3B
:020038000FD8DF
:02003900103481
:02003A00109222
:02003B0010F0C3
:02003C00115061
:02003D0011B1FF
:02003E0012129C
:02003F00127538
:0200400012D9D3
:02004100133E6C
:0200420013A405
:02004300140B9C
:02004400147234
:0200450014DBCA
:0200460015445F
:0200470015AFF3
:02004800161A86
:02004900168619
:02004A0016F2AC
:02004B0017603C
:02004C0017CECD
:02004D00183D5C
:02004E0018ACEC
:02004F00191C7A
:02005000198D08
:0200510019FE96
:020052001A7022
:020053001AE2AF
:020054001B553A
:020055001BC8C6
:020056001C3C50
:020057001CB0DB
:020058001D2564
:020059001D9AEE
:02005A001E0F77
:02005B001E8401
:02005C001EFA8A
:02005D001F7012
:02005E001FE69B
:02005F00205C23
:0200600020D3AB
:02006100214933
:0200620021C0BB
:02006300223643
:0200640022ADCB
:02006500232452
:02006600239ADB
:02006700241162
:020068002487EB
:0200690024FE73
:02006A002574FB
:02006B0025EA84
:02006C0026600C
:02006D0026D596
:02006E00274B1E
:02006F0027C0A8
:02007000283432
:0200710028A9BC
:02007200291C47
:020073002990D2
:020074002A035D
:020075002A76E9
:020076002AE876
:020077002B5903
:020078002BCA91
:020079002C3B1E
:02007A002CAAAE
:02007B002D193D
:02007C002D88CD
:02007D002DF65E
:02007E002E63EF
:02007F002ECF82
:020080002F3B14
:020081002FA5A9
:02008200300F3D
:020083003078D3
:0200840030E06A
:02008500314800
:0200860031AE99
:02008700321332
:020088003278CC
:0200890032DB68
:02008A00333D04
:02008B00339FA1
:02008C0033FF40
:02008D00345EDF
:02008E0034BC80
:02008F00351921
:020090003574C5
:0200910035CF69
:0200920036280E
:020093003680B5
:0200940036D65E
:02009500372C06
:020096003780B1
:0200970037D35D
:0200980038240A
:020099003874B9
:02009A0038C369
:02009B0039101A
:02009C00395CCD
:02009D0039A682
:02009E0039EF38
:02009F003A37EE
:0200A0003A7CA8
:0200A1003AC162
:0200A2003B041D
:0200A3003B45DB
:0200A4003B859A
:0200A5003BC35B
:0200A6003BFF1E
:0200A7003C3AE1
:0200A8003C74A6
:0200A9003CAB6E
:0200AA003CE137
:0200AB003D1600
:0200AC003D48CD
:0200AD003D799B
:0200AE003DA86B
:0200AF003DD63C
:0200B0003E020E
:0200B1003E2CE3
:0200B2003E54BA
:0200B3003E7B92
:0200B4003E9F6D
:0200B5003EC249
:0200B6003EE426
:0200B7003F0305
:0200B8003F21E6
:0200B9003F3CCA
:0200BA003F56AF
:0200BB003F6E96
:0200BC003F857E
:0200BD003F9969
:0200BE003FAC55
:0200BF003FBD43
:0200C0003FCB34
:0200C1003FD925
:0200C2003FE419
:0200C3003FED0F
:0200C4003FF506
:0200C5003FFA00
:0200C6003FFEFB
:0200C7004000F7
:0200C8004000F6
:0200C9003FFEF8
:0200CA003FFAFB
:0200CB003FF5FF
:0200CC003FED06
:0200CD003FE40E
:0200CE003FD918
:0200CF003FCB25
:0200D0003FBD32
:0200D1003FAC42
:0200D2003F9954
:0200D3003F8567
:0200D4003F6E7D
:0200D5003F5694
:0200D6003F3CAD
:0200D7003F21C7
:0200D8003F03E4
:0200D9003EE403
:0200DA003EC224
:0200DB003E9F46
:0200DC003E7B69
:0200DD003E548F
:0200DE003E2CB6
:0200DF003E02DF
:0200E0003DD60B
:0200E1003DA838
:0200E2003D7966
:0200E3003D4896
:0200E4003D16C7
:0200E5003CE1FC
:0200E6003CAB31
:0200E7003C7467
:0200E8003C3AA0
:0200E9003BFFDB
:0200EA003BC316
:0200EB003B8553
:0200EC003B4592
:0200ED003B04D2
:0200EE003AC115
:0200EF003A7C59
:0200F0003A379D
:0200F10039EFE5
:0200F20039A62D
:0200F300395C76
:0200F4003910C1
:0200F50038C30E
:0200F60038745C
:0200F7003824AB
:0200F80037D3FC
:0200F90037804E
:0200FA00372CA1
:0200FB0036D6F7
:0200FC0036804C
:0200FD003628A3
:0200FE0035CFFC
:0200FF00357456
:020100003519AF
:0201010034BC0C
:02010200345E69
:0201030033FFC8
:02010400339F27
:02010500333D88
:0201060032DBEA
:0201070032784C
:020108003213B0
:0201090031AE15
:02010A0031487A
:02010B0030E0E2
:02010C00307849
:02010D00300FB1
:02010E002FA51B
:02010F002F3B84
:020110002ECFF0
:020111002E635B
:020112002DF6C8
:020113002D8835
:020114002D19A3
:020115002CAA12
:020116002C3B80
:020117002BCAF1
:020118002B5961
:020119002AE8D2
:02011A002A7643
:02011B002A03B5
:02011C00299028
:02011D00291C9B
:02011E0028A90E
:02011F00283482
:0201200027C0F6
:02012100274B6A
:0201220026D5E0
:02012300266054
:0201240025EACA
:0201250025743F
:0201260024FEB5
:0201270024872B
:020128002411A0
:02012900239A17
:02012A0023248C
:02012B0022AD03
:02012C00223679
:02012D0021C0EF
:02012E00214965
:02012F0020D3DB
:02013000205C51
:020131001FE6C7
:020132001F703C
:020133001EFAB2
:020134001E8427
:020135001E0F9B
:020136001D9A10
:020137001D2584
:020138001CB0F9
:020139001C3C6C
:02013A001BC8E0
:02013B001B5552
:02013C001AE2C5
:02013D001A7036
:02013E0019FEA8
:02013F00198D18
:02014000191C88
:0201410018ACF8
:02014200183D66
:0201430017CED5
:02014400176042
:0201450016F2B0
:0201460016861B
:02014700161A86
:0201480015AFF1
:0201490015445B
:02014A0014DBC4
:02014B0014722C
:02014C00140B92
:02014D0013A4F9
:02014E00133E5E
:02014F0012D9C3
:02015000127526
:02015100121288
:0201520011B1E9
:02015300115049
:0201540010F0A9
:02015500109206
:02015600103463
:020157000FD8BF
:020158000F7D19
:020159000F2372
:02015A000ECBCA
:02015B000E7321
:02015C000E1D76
:02015D000DC9CA
:02015E000D751D
:02015F000D236E
:020160000CD2BF
:020161000C830D
:020162000C355A
:020163000BE9A6
:020164000B9EF0
:020165000B5439
:020166000B0C80
:020167000AC5C7
:020168000A800B
:020169000A3C4E
:02016A0009FA90
:02016B0009BACF
:02016C00097B0D
:02016D00093D4A
:02016E00090284
:02016F0008C8BE
:02017000088FF6
:0201710008582C
:02017200082360
:0201730007F093
:0201740007BEC4
:02017500078EF3
:02017600075F21
:0201770007334C
:02017800070876
:0201790006DEA0
:02017A0006B7C6
:02017B000691EB
:02017C00066E0D
:02017D00064B2F
:02017E00062B4E
:02017F00060D6B
:0201800005F088
:0201810005D5A2
:0201820005BCBA
:0201830005A5D0
:020184000590E4
:02018500057CF7
:02018600056A08
:02018700055A17
:02018800054C24
:0201890005402F
:02018A00053638
:02018B00052E3F
:02018C00052745
:02018D00052249
:02018E0005204A
:02018F00051F4A
:02019000051F49
:02019100051F48
:02019200051F47
:02019300051F46
:02019400051F45
:02019500051F44
:02019600051F43
:02019700051F42
:02019800051F41
:02019900051F40
:02019A00051F3F
:02019B00051F3E
:02019C00051F3D
:02019D00051F3C
:02019E00051F3B
:02019F00051F3A
:0201A000051F39
:0201A100051F38
:0201A200051F37
:0201A300051F36
:0201A400051F35
:0201A500051F34
:0201A600051F33
:0201A700051F32
:0201A800051F31
:0201A900051F30
:0201AA00051F2F
:0201AB00051F2E
:0201AC00051F2D
:0201AD00051F2C
:0201AE00051F2B
:0201AF00051F2A
:0201B000051F29
:0201B100051F28
:0201B200051F27
:0201B300051F26
:0201B400051F25
:0201B500051F24
:0201B600051F23
:0201B700051F22
:0201B800051F21
:0201B900051F20
:0201BA00051F1F
:0201BB00051F1E
:0201BC00051F1D
:0201BD00051F1C
:0201BE00051F1B
:0201BF00051F1A
:0201C000051F19
:0201C100051F18
:0201C200051F17
:0201C300051F16
:0201C400051F15
:0201C500051F14
:0201C600051F13
:0201C700051F12
:0201C800051F11
:0201C900051F10
:0201CA00051F0F
:0201CB00051F0E
:0201CC00051F0D
:0201CD00051F0C
:0201CE00051F0B
:0201CF00051F0A
:0201D000051F09
:0201D100051F08
:0201D200051F07
:0201D300051F06
:0201D400051F05
:0201D500051F04
:0201D600051F03
:0201D700051F02
:0201D800051F01
:0201D900051F00
:0201DA00051FFF
:0201DB00051FFE
:0201DC00051FFD
:0201DD00051FFC
:0201DE00051FFB
:0201DF00051FFA
:0201E000051FF9
:0201E100051FF8
:0201E200051FF7
:0201E300051FF6
:0201E400051FF5
:0201E500051FF4
:0201E600051FF3
:0201E700051FF2
:0201E800051FF1
:0201E900051FF0
:0201EA00051FEF
:0201EB00051FEE
:0201EC00051FED
:0201ED00051FEC
:0201EE00051FEB
:0201EF00051FEA
:0201F000051FE9
:0201F100051FE8
:0201F200051FE7
:0201F300051FE6
:0201F400051FE5
:0201F500051FE4
:0201F600051FE3
:0201F700051FE2
:0201F800051FE1
:0201F900051FE0
:0201FA00051FDF
:0201FB00051FDE
:0201FC00051FDD
:0201FD00051FDC
:0201FE00051FDB
:0201FF00051FDA
:00000001ff
