:020000040000FA
:0100000000FF
:0100010001FD
:0100020002FB
:0100030003F9
:0100040004F7
:0100050005F5
:0100060006F3
:0100070007F1
:0100080008EF
:0100090009ED
:01000A000AEB
:01000B000BE9
:01000C000CE7
:01000D000DE5
:01000E000EE3
:01000F000FE1
:0100100010DF
:0100110011DD
:0100120012DB
:0100130013D9
:0100140014D7
:0100150015D5
:0100160016D3
:0100170017D1
:0100180018CF
:0100190019CD
:01001A001ACB
:01001B001BC9
:01001C001CC7
:01001D001DC5
:01001E001EC3
:01001F001FC1
:0100200000DF
:0100210001DD
:0100220002DB
:0100230003D9
:0100240004D7
:0100250005D5
:0100260006D3
:0100270007D1
:0100280008CF
:0100290009CD
:01002A000ACB
:01002B000BC9
:01002C000CC7
:01002D000DC5
:01002E000EC3
:01002F000FC1
:0100300010BF
:0100310011BD
:0100320012BB
:0100330013B9
:0100340014B7
:0100350015B5
:0100360016B3
:0100370017B1
:0100380018AF
:0100390019AD
:01003A001AAB
:01003B001BA9
:01003C001CA7
:01003D001DA5
:01003E001EA3
:01003F001FA1
:010040001FA0
:0100410000BE
:0100420001BC
:0100430002BA
:0100440003B8
:0100450004B6
:0100460005B4
:0100470006B2
:0100480007B0
:0100490008AE
:01004A0009AC
:01004B000AAA
:01004C000BA8
:01004D000CA6
:01004E000DA4
:01004F000EA2
:010050000FA0
:01005100109E
:01005200119C
:01005300129A
:010054001398
:010055001496
:010056001594
:010057001692
:010058001790
:01005900188E
:01005A00198C
:01005B001A8A
:01005C001B88
:01005D001C86
:01005E001D84
:01005F001E82
:010060001F80
:01006100009E
:01006200019C
:01006300029A
:010064000398
:010065000496
:010066000594
:010067000692
:010068000790
:01006900088E
:01006A00098C
:01006B000A8A
:01006C000B88
:01006D000C86
:01006E000D84
:01006F000E82
:010070000E81
:010071000F7F
:01007200107D
:01007300117B
:010074001279
:010075001377
:010076001475
:010077001573
:010078001671
:01007900176F
:01007A00186D
:01007B00196B
:01007C001A69
:01007D001B67
:01007E001C65
:01007F001D63
:010080001E61
:010081001F5F
:01008200007D
:01008300017B
:010084000279
:010085000377
:010086000475
:010087000573
:010088000671
:01008900076F
:01008A00086D
:01008B00096B
:01008C000A69
:01008D000B67
:01008E000C65
:01008F000D63
:010090000E61
:010091000E60
:010092000F5E
:01009300105C
:01009400115A
:010095001258
:010096001356
:010097001454
:010098001552
:010099001650
:01009A00174E
:01009B00184C
:01009C00194A
:01009D001A48
:01009E001B46
:01009F001C44
:0100A0001D42
:0100A1001E40
:0100A2001F3E
:0100A300005C
:0100A400015A
:0100A5000258
:0100A6000356
:0100A7000454
:0100A8000552
:0100A9000650
:0100AA00074E
:0100AB00084C
:0100AC00084B
:0100AD000949
:0100AE000A47
:0100AF000B45
:0100B0000C43
:0100B1000D41
:0100B2000E3F
:0100B3000F3D
:0100B400103B
:0100B5001139
:0100B6001237
:0100B7001335
:0100B8001433
:0100B9001531
:0100BA00162F
:0100BB00172D
:0100BC00182B
:0100BD001929
:0100BE001A27
:0100BF001B25
:0100C0001C23
:0100C1001D21
:0100C2001E1F
:0100C3001F1D
:0100C4001F1C
:0100C500003A
:0100C6000138
:0100C7000236
:0100C8000334
:0100C9000432
:0100CA000530
:0100CB00062E
:0100CC00072C
:0100CD00082A
:0100CE000928
:0100CF000A26
:0100D0000B24
:0100D1000C22
:0100D2000D20
:0100D3000E1E
:0100D4000F1C
:0100D500101A
:0100D6001118
:0100D7001216
:0100D8001314
:0100D9001313
:0100DA001411
:0100DB00150F
:0100DC00160D
:0100DD00170B
:0100DE001809
:0100DF001907
:0100E0001A05
:0100E1001B03
:0100E2001C01
:0100E3001DFF
:0100E4001EFD
:0100E5001FFB
:0100E6000019
:0100E7000117
:0100E8000215
:0100E9000313
:0100EA000411
:0100EB00050F
:0100EC00060D
:0100ED00060C
:0100EE00070A
:0100EF000808
:0100F0000906
:0100F1000A04
:0100F2000B02
:0100F3000C00
:0100F4000DFE
:0100F5000EFC
:0100F6000FFA
:0100F70010F8
:0100F80011F6
:0100F90012F4
:0100FA0013F2
:0100FB0014F0
:0100FC0015EE
:0100FD0016EC
:0100FE0017EA
:0100FF0017E9
:0101000018E6
:0101010019E4
:010102001AE2
:010103001BE0
:010104001CDE
:010105001DDC
:010106001EDA
:010107001FD8
:0101080000F6
:0101090001F4
:01010A0002F2
:01010B0003F0
:01010C0004EE
:01010D0005EC
:01010E0006EA
:01010F0007E8
:0101100007E7
:0101110008E5
:0101120009E3
:010113000AE1
:010114000BDF
:010115000CDD
:010116000DDB
:010117000ED9
:010118000FD7
:0101190010D5
:01011A0011D3
:01011B0012D1
:01011C0013CF
:01011D0014CD
:01011E0015CB
:01011F0016C9
:0101200016C8
:0101210017C6
:0101220018C4
:0101230019C2
:010124001AC0
:010125001BBE
:010126001CBC
:010127001DBA
:010128001EB8
:010129001FB6
:01012A0000D4
:01012B0001D2
:01012C0002D0
:01012D0003CE
:01012E0004CC
:01012F0005CA
:0101300005C9
:0101310006C7
:0101320007C5
:0101330008C3
:0101340009C1
:010135000ABF
:010136000BBD
:010137000CBB
:010138000DB9
:010139000EB7
:01013A000FB5
:01013B0010B3
:01013C0011B1
:01013D0012AF
:01013E0012AE
:01013F0013AC
:0101400014AA
:0101410015A8
:0101420016A6
:0101430017A4
:0101440018A2
:0101450019A0
:010146001A9E
:010147001B9C
:010148001C9A
:010149001D98
:01014A001E96
:01014B001F94
:01014C001F93
:01014D0000B1
:01014E0001AF
:01014F0002AD
:0101500003AB
:0101510004A9
:0101520005A7
:0101530006A5
:0101540007A3
:0101550008A1
:01015600099F
:010157000A9D
:010158000B9B
:010159000C99
:01015A000C98
:01015B000D96
:01015C000E94
:01015D000F92
:01015E001090
:01015F00118E
:01016000128C
:01016100138A
:010162001488
:010163001586
:010164001684
:010165001782
:010166001880
:01016700187F
:01016800197D
:010169001A7B
:01016A001B79
:01016B001C77
:01016C001D75
:01016D001E73
:01016E001F71
:01016F00008F
:01017000018D
:01017100028B
:010172000389
:010173000487
:010174000486
:010175000584
:010176000682
:010177000780
:01017800087E
:01017900097C
:01017A000A7A
:01017B000B78
:01017C000C76
:01017D000D74
:01017E000E72
:01017F000F70
:010180000F6F
:01018100106D
:01018200116B
:010183001269
:010184001367
:010185001465
:010186001563
:010187001661
:01018800175F
:01018900185D
:01018A00195B
:01018B001A59
:01018C001A58
:01018D001B56
:01018E001C54
:01018F001D52
:010190001E50
:010191001F4E
:01019200006C
:01019300016A
:010194000268
:010195000366
:010196000464
:010197000562
:010198000561
:01019900065F
:01019A00075D
:01019B00085B
:01019C000959
:01019D000A57
:01019E000B55
:01019F000C53
:0101A0000D51
:0101A1000E4F
:0101A2000F4D
:0101A3000F4C
:0101A400104A
:0101A5001148
:0101A6001246
:0101A7001344
:0101A8001442
:0101A9001540
:0101AA00163E
:0101AB00173C
:0101AC00183A
:0101AD001938
:0101AE001937
:0101AF001A35
:0101B0001B33
:0101B1001C31
:0101B2001D2F
:0101B3001E2D
:0101B4001F2B
:0101B5000049
:0101B6000147
:0101B7000245
:0101B8000343
:0101B9000342
:0101BA000440
:0101BB00053E
:0101BC00063C
:0101BD00073A
:0101BE000838
:0101BF000936
:0101C0000A34
:0101C1000B32
:0101C2000C30
:0101C3000D2E
:0101C4000D2D
:0101C5000E2B
:0101C6000F29
:0101C7001027
:0101C8001125
:0101C9001223
:0101CA001321
:0101CB00141F
:0101CC00151D
:0101CD00161B
:0101CE00161A
:0101CF001718
:0101D0001816
:0101D1001914
:0101D2001A12
:0101D3001B10
:0101D4001C0E
:0101D5001D0C
:0101D6001E0A
:0101D7001F08
:0101D8001F07
:0101D9000025
:0101DA000123
:0101DB000221
:0101DC00031F
:0101DD00041D
:0101DE00051B
:0101DF000619
:0101E0000717
:0101E1000815
:0101E2000814
:0101E3000912
:0101E4000A10
:0101E5000B0E
:0101E6000C0C
:0101E7000D0A
:0101E8000E08
:0101E9000F06
:0101EA001004
:0101EB001102
:0101EC001101
:0101ED0012FF
:0101EE0013FD
:0101EF0014FB
:0101F00015F9
:0101F10016F7
:0101F20017F5
:0101F30018F3
:0101F40019F1
:0101F5001AEF
:0101F6001AEE
:0101F7001BEC
:0101F8001CEA
:0101F9001DE8
:0101FA001EE6
:0101FB001FE4
:0101FC000002
:0101FD000100
:0101FE0002FE
:0101FF0003FC
:0102000003FA
:0102010004F8
:0102020005F6
:0102030006F4
:0102040007F2
:0102050008F0
:0102060009EE
:010207000AEC
:010208000BEA
:010209000BE9
:01020A000CE7
:01020B000DE5
:01020C000EE3
:01020D000FE1
:01020E0010DF
:01020F0011DD
:0102100012DB
:0102110013D9
:0102120013D8
:0102130014D6
:0102140015D4
:0102150016D2
:0102160017D0
:0102170018CE
:0102180019CC
:010219001ACA
:01021A001BC8
:01021B001BC7
:01021C001CC5
:01021D001DC3
:01021E001EC1
:01021F001FBF
:0102200000DD
:0102210001DB
:0102220002D9
:0102230003D7
:0102240003D6
:0102250004D4
:0102260005D2
:0102270006D0
:0102280007CE
:0102290008CC
:01022A0009CA
:01022B000AC8
:01022C000BC6
:01022D000BC5
:01022E000CC3
:01022F000DC1
:010230000EBF
:010231000FBD
:0102320010BB
:0102330011B9
:0102340012B7
:0102350013B5
:0102360013B4
:0102370014B2
:0102380015B0
:0102390016AE
:01023A0017AC
:01023B0018AA
:01023C0019A8
:01023D001AA6
:01023E001BA4
:01023F001BA3
:010240001CA1
:010241001D9F
:010242001E9D
:010243001F9B
:0102440000B9
:0102450001B7
:0102460002B5
:0102470002B4
:0102480003B2
:0102490004B0
:01024A0005AE
:01024B0006AC
:01024C0007AA
:01024D0008A8
:01024E0009A6
:01024F000AA4
:010250000AA3
:010251000BA1
:010252000C9F
:010253000D9D
:010254000E9B
:010255000F99
:010256001097
:010257001195
:010258001194
:010259001292
:01025A001390
:01025B00148E
:01025C00158C
:01025D00168A
:01025E001788
:01025F001886
:010260001885
:010261001983
:010262001A81
:010263001B7F
:010264001C7D
:010265001D7B
:010266001E79
:010267001F77
:010268001F76
:010269000094
:01026A000192
:01026B000290
:01026C00038E
:01026D00048C
:01026E00058A
:01026F000688
:010270000687
:010271000785
:010272000883
:010273000981
:010274000A7F
:010275000B7D
:010276000C7B
:010277000D79
:010278000D78
:010279000E76
:01027A000F74
:01027B001072
:01027C001170
:01027D00126E
:01027E00136C
:01027F00146A
:010280001469
:010281001567
:010282001665
:010283001763
:010284001861
:01028500195F
:010286001A5D
:010287001B5B
:010288001B5A
:010289001C58
:01028A001D56
:01028B001E54
:01028C001F52
:01028D000070
:01028E00016E
:01028F00026C
:01029000026B
:010291000369
:010292000467
:010293000565
:010294000663
:010295000761
:01029600085F
:01029700095D
:01029800095C
:010299000A5A
:01029A000B58
:01029B000C56
:01029C000D54
:01029D000E52
:01029E000F50
:01029F000F4F
:0102A000104D
:0102A100114B
:0102A2001249
:0102A3001347
:0102A4001445
:0102A5001543
:0102A6001641
:0102A7001640
:0102A800173E
:0102A900183C
:0102AA00193A
:0102AB001A38
:0102AC001B36
:0102AD001C34
:0102AE001C33
:0102AF001D31
:0102B0001E2F
:0102B1001F2D
:0102B200004B
:0102B3000149
:0102B4000247
:0102B5000345
:0102B6000344
:0102B7000442
:0102B8000540
:0102B900063E
:0102BA00073C
:0102BB00083A
:0102BC000938
:0102BD000937
:0102BE000A35
:0102BF000B33
:0102C0000C31
:0102C1000D2F
:0102C2000E2D
:0102C3000F2B
:0102C4000F2A
:0102C5001028
:0102C6001126
:0102C7001224
:0102C8001322
:0102C9001420
:0102CA00151E
:0102CB00151D
:0102CC00161B
:0102CD001719
:0102CE001817
:0102CF001915
:0102D0001A13
:0102D1001B11
:0102D2001C0F
:0102D3001C0E
:0102D4001D0C
:0102D5001E0A
:0102D6001F08
:0102D7000026
:0102D8000124
:0102D9000222
:0102DA000221
:0102DB00031F
:0102DC00041D
:0102DD00051B
:0102DE000619
:0102DF000717
:0102E0000815
:0102E1000814
:0102E2000912
:0102E3000A10
:0102E4000B0E
:0102E5000C0C
:0102E6000D0A
:0102E7000E08
:0102E8000E07
:0102E9000F05
:0102EA001003
:0102EB001101
:0102EC0012FF
:0102ED0013FD
:0102EE0014FB
:0102EF0014FA
:0102F00015F8
:0102F10016F6
:0102F20017F4
:0102F30018F2
:0102F40019F0
:0102F5001AEE
:0102F6001AED
:0102F7001BEB
:0102F8001CE9
:0102F9001DE7
:0102FA001EE5
:0102FB001FE3
:0102FC001FE2
:0102FD000000
:0102FE0001FE
:0102FF0002FC
:0103000003F9
:0103010004F7
:0103020005F5
:0103030005F4
:0103040006F2
:0103050007F0
:0103060008EE
:0103070009EC
:010308000AEA
:010309000BE8
:01030A000BE7
:01030B000CE5
:01030C000DE3
:01030D000EE1
:01030E000FDF
:01030F0010DD
:0103100011DB
:0103110011DA
:0103120012D8
:0103130013D6
:0103140014D4
:0103150015D2
:0103160016D0
:0103170016CF
:0103180017CD
:0103190018CB
:01031A0019C9
:01031B001AC7
:01031C001BC5
:01031D001CC3
:01031E001CC2
:01031F001DC0
:010320001EBE
:010321001FBC
:0103220000DA
:0103230001D8
:0103240002D6
:0103250002D5
:0103260003D3
:0103270004D1
:0103280005CF
:0103290006CD
:01032A0007CB
:01032B0007CA
:01032C0008C8
:01032D0009C6
:01032E000AC4
:01032F000BC2
:010330000CC0
:010331000DBE
:010332000DBD
:010333000EBB
:010334000FB9
:0103350010B7
:0103360011B5
:0103370012B3
:0103380012B2
:0103390013B0
:01033A0014AE
:01033B0015AC
:01033C0016AA
:01033D0017A8
:01033E0017A7
:01033F0018A5
:0103400019A3
:010341001AA1
:010342001B9F
:010343001C9D
:010344001D9B
:010345001D9A
:010346001E98
:010347001F96
:0103480000B4
:0103490001B2
:01034A0002B0
:01034B0002AF
:01034C0003AD
:01034D0004AB
:01034E0005A9
:01034F0006A7
:0103500007A5
:0103510007A4
:0103520008A2
:0103530009A0
:010354000A9E
:010355000B9C
:010356000C9A
:010357000D98
:010358000D97
:010359000E95
:01035A000F93
:01035B001091
:01035C00118F
:01035D00128D
:01035E00128C
:01035F00138A
:010360001488
:010361001586
:010362001684
:010363001782
:010364001781
:01036500187F
:01036600197D
:010367001A7B
:010368001B79
:010369001C77
:01036A001C76
:01036B001D74
:01036C001E72
:01036D001F70
:01036E00008E
:01036F00018C
:01037000018B
:010371000289
:010372000387
:010373000485
:010374000583
:010375000681
:010376000680
:01037700077E
:01037800087C
:01037900097A
:01037A000A78
:01037B000B76
:01037C000C74
:01037D000C73
:01037E000D71
:01037F000E6F
:010380000F6D
:01038100106B
:010382001169
:010383001168
:010384001266
:010385001364
:010386001462
:010387001560
:01038800165E
:01038900165D
:01038A00175B
:01038B001859
:01038C001957
:01038D001A55
:01038E001B53
:01038F001B52
:010390001C50
:010391001D4E
:010392001E4C
:010393001F4A
:010394001F49
:010395000067
:010396000165
:010397000263
:010398000361
:01039900045F
:01039A00045E
:01039B00055C
:01039C00065A
:01039D000758
:01039E000856
:01039F000954
:0103A0000953
:0103A1000A51
:0103A2000B4F
:0103A3000C4D
:0103A4000D4B
:0103A5000E49
:0103A6000E48
:0103A7000F46
:0103A8001044
:0103A9001142
:0103AA001240
:0103AB00133E
:0103AC00133D
:0103AD00143B
:0103AE001539
:0103AF001637
:0103B0001735
:0103B1001833
:0103B2001832
:0103B3001930
:0103B4001A2E
:0103B5001B2C
:0103B6001C2A
:0103B7001C29
:0103B8001D27
:0103B9001E25
:0103BA001F23
:0103BB000041
:0103BC00013F
:0103BD00013E
:0103BE00023C
:0103BF00033A
:0103C0000438
:0103C1000536
:0103C2000634
:0103C3000633
:0103C4000731
:0103C500082F
:0103C600092D
:0103C7000A2B
:0103C8000B29
:0103C9000B28
:0103CA000C26
:0103CB000D24
:0103CC000E22
:0103CD000F20
:0103CE000F1F
:0103CF00101D
:0103D000111B
:0103D1001219
:0103D2001317
:0103D3001415
:0103D4001414
:0103D5001512
:0103D6001610
:0103D700170E
:0103D800180C
:0103D900190A
:0103DA001909
:0103DB001A07
:0103DC001B05
:0103DD001C03
:0103DE001D01
:0103DF001D00
:0103E0001EFE
:0103E1001FFC
:0103E200001A
:0103E3000118
:0103E4000216
:0103E5000215
:0103E6000313
:0103E7000411
:0103E800050F
:0103E900060D
:0103EA00060C
:0103EB00070A
:0103EC000808
:0103ED000906
:0103EE000A04
:0103EF000B02
:0103F0000B01
:0103F1000CFF
:0103F2000DFD
:0103F3000EFB
:0103F4000FF9
:0103F5000FF8
:0103F60010F6
:0103F70011F4
:0103F80012F2
:0103F90013F0
:0103FA0014EE
:0103FB0014ED
:0103FC0015EB
:0103FD0016E9
:0103FE0017E7
:0103FF0018E5
:0104000018E3
:0104010019E1
:010402001ADF
:010403001BDD
:010404001CDB
:010405001DD9
:010406001DD8
:010407001ED6
:010408001FD4
:0104090000F2
:01040A0001F0
:01040B0001EF
:01040C0002ED
:01040D0003EB
:01040E0004E9
:01040F0005E7
:0104100005E6
:0104110006E4
:0104120007E2
:0104130008E0
:0104140009DE
:010415000ADC
:010416000ADB
:010417000BD9
:010418000CD7
:010419000DD5
:01041A000ED3
:01041B000ED2
:01041C000FD0
:01041D0010CE
:01041E0011CC
:01041F0012CA
:0104200013C8
:0104210013C7
:0104220014C5
:0104230015C3
:0104240016C1
:0104250017BF
:0104260017BE
:0104270018BC
:0104280019BA
:010429001AB8
:01042A001BB6
:01042B001BB5
:01042C001CB3
:01042D001DB1
:01042E001EAF
:01042F001FAD
:010430001FAC
:0104310000CA
:0104320001C8
:0104330002C6
:0104340003C4
:0104350004C2
:0104360004C1
:0104370005BF
:0104380006BD
:0104390007BB
:01043A0008B9
:01043B0008B8
:01043C0009B6
:01043D000AB4
:01043E000BB2
:01043F000CB0
:010440000CAF
:010441000DAD
:010442000EAB
:010443000FA9
:0104440010A7
:0104450010A6
:0104460011A4
:0104470012A2
:0104480013A0
:01044900149E
:01044A00159C
:01044B00159B
:01044C001699
:01044D001797
:01044E001895
:01044F001993
:010450001992
:010451001A90
:010452001B8E
:010453001C8C
:010454001D8A
:010455001D89
:010456001E87
:010457001F85
:0104580000A3
:0104590001A1
:01045A0001A0
:01045B00029E
:01045C00039C
:01045D00049A
:01045E000598
:01045F000597
:010460000695
:010461000793
:010462000891
:01046300098F
:01046400098E
:010465000A8C
:010466000B8A
:010467000C88
:010468000D86
:010469000D85
:01046A000E83
:01046B000F81
:01046C00107F
:01046D00117D
:01046E00117C
:01046F00127A
:010470001378
:010471001476
:010472001574
:010473001573
:010474001671
:01047500176F
:01047600186D
:01047700196B
:01047800196A
:010479001A68
:01047A001B66
:01047B001C64
:01047C001D62
:01047D001D61
:01047E001E5F
:01047F001F5D
:01048000007B
:010481000179
:010482000178
:010483000276
:010484000374
:010485000472
:010486000570
:01048700056F
:01048800066D
:01048900076B
:01048A000869
:01048B000967
:01048C000966
:01048D000A64
:01048E000B62
:01048F000C60
:010490000D5E
:010491000D5D
:010492000E5B
:010493000F59
:010494001057
:010495001155
:010496001154
:010497001252
:010498001350
:01049900144E
:01049A00154C
:01049B00154B
:01049C001649
:01049D001747
:01049E001845
:01049F001943
:0104A0001942
:0104A1001A40
:0104A2001B3E
:0104A3001C3C
:0104A4001D3A
:0104A5001D39
:0104A6001E37
:0104A7001F35
:0104A8000053
:0104A9000151
:0104AA000150
:0104AB00024E
:0104AC00034C
:0104AD00044A
:0104AE000548
:0104AF000547
:0104B0000645
:0104B1000743
:0104B2000841
:0104B300093F
:0104B400093E
:0104B5000A3C
:0104B6000B3A
:0104B7000C38
:0104B8000C37
:0104B9000D35
:0104BA000E33
:0104BB000F31
:0104BC00102F
:0104BD00102E
:0104BE00112C
:0104BF00122A
:0104C0001328
:0104C1001426
:0104C2001425
:0104C3001523
:0104C4001621
:0104C500171F
:0104C600181D
:0104C700181C
:0104C800191A
:0104C9001A18
:0104CA001B16
:0104CB001C14
:0104CC001C13
:0104CD001D11
:0104CE001E0F
:0104CF001F0D
:0104D0001F0C
:0104D100002A
:0104D2000128
:0104D3000226
:0104D4000324
:0104D5000323
:0104D6000421
:0104D700051F
:0104D800061D
:0104D900071B
:0104DA00071A
:0104DB000818
:0104DC000916
:0104DD000A14
:0104DE000B12
:0104DF000B11
:0104E0000C0F
:0104E1000D0D
:0104E2000E0B
:0104E3000E0A
:0104E4000F08
:0104E5001006
:0104E6001104
:0104E7001202
:0104E8001201
:0104E90013FF
:0104EA0014FD
:0104EB0015FB
:0104EC0016F9
:0104ED0016F8
:0104EE0017F6
:0104EF0018F4
:0104F00019F2
:0104F10019F1
:0104F2001AEF
:0104F3001BED
:0104F4001CEB
:0104F5001DE9
:0104F6001DE8
:0104F7001EE6
:0104F8001FE4
:0104F9000002
:0104FA000100
:0104FB0001FF
:0104FC0002FD
:0104FD0003FB
:0104FE0004F9
:0104FF0004F8
:0105000005F5
:0105010006F3
:0105020007F1
:0105030008EF
:0105040008EE
:0105050009EC
:010506000AEA
:010507000BE8
:010508000CE6
:010509000CE5
:01050A000DE3
:01050B000EE1
:01050C000FDF
:01050D000FDE
:01050E0010DC
:01050F0011DA
:0105100012D8
:0105110013D6
:0105120013D5
:0105130014D3
:0105140015D1
:0105150016CF
:0105160017CD
:0105170017CC
:0105180018CA
:0105190019C8
:01051A001AC6
:01051B001AC5
:01051C001BC3
:01051D001CC1
:01051E001DBF
:01051F001EBD
:010520001EBC
:010521001FBA
:0105220000D8
:0105230001D6
:0105240001D5
:0105250002D3
:0105260003D1
:0105270004CF
:0105280005CD
:0105290005CC
:01052A0006CA
:01052B0007C8
:01052C0008C6
:01052D0008C5
:01052E0009C3
:01052F000AC1
:010530000BBF
:010531000CBD
:010532000CBC
:010533000DBA
:010534000EB8
:010535000FB6
:010536000FB5
:0105370010B3
:0105380011B1
:0105390012AF
:01053A0013AD
:01053B0013AC
:01053C0014AA
:01053D0015A8
:01053E0016A6
:01053F0016A5
:0105400017A3
:0105410018A1
:01054200199F
:010543001A9D
:010544001A9C
:010545001B9A
:010546001C98
:010547001D96
:010548001D95
:010549001E93
:01054A001F91
:01054B0000AF
:01054C0001AD
:01054D0001AC
:01054E0002AA
:01054F0003A8
:0105500004A6
:0105510004A5
:0105520005A3
:0105530006A1
:01055400079F
:01055500089D
:01055600089C
:01055700099A
:010558000A98
:010559000B96
:01055A000B95
:01055B000C93
:01055C000D91
:01055D000E8F
:01055E000F8D
:01055F000F8C
:01056000108A
:010561001188
:010562001286
:010563001285
:010564001383
:010565001481
:01056600157F
:01056700157E
:01056800167C
:01056900177A
:01056A001878
:01056B001976
:01056C001975
:01056D001A73
:01056E001B71
:01056F001C6F
:010570001C6E
:010571001D6C
:010572001E6A
:010573001F68
:010574001F67
:010575000085
:010576000183
:010577000281
:01057800037F
:01057900037E
:01057A00047C
:01057B00057A
:01057C000678
:01057D000677
:01057E000775
:01057F000873
:010580000971
:010581000A6F
:010582000A6E
:010583000B6C
:010584000C6A
:010585000D68
:010586000D67
:010587000E65
:010588000F63
:010589001061
:01058A001060
:01058B00115E
:01058C00125C
:01058D00135A
:01058E001458
:01058F001457
:010590001555
:010591001653
:010592001751
:010593001750
:01059400184E
:01059500194C
:010596001A4A
:010597001A49
:010598001B47
:010599001C45
:01059A001D43
:01059B001D42
:01059C001E40
:01059D001F3E
:01059E00005C
:01059F00015A
:0105A0000159
:0105A1000257
:0105A2000355
:0105A3000453
:0105A4000452
:0105A5000550
:0105A600064E
:0105A700074C
:0105A800074B
:0105A9000849
:0105AA000947
:0105AB000A45
:0105AC000A44
:0105AD000B42
:0105AE000C40
:0105AF000D3E
:0105B0000E3C
:0105B1000E3B
:0105B2000F39
:0105B3001037
:0105B4001135
:0105B5001134
:0105B6001232
:0105B7001330
:0105B800142E
:0105B900142D
:0105BA00152B
:0105BB001629
:0105BC001727
:0105BD001726
:0105BE001824
:0105BF001922
:0105C0001A20
:0105C1001B1E
:0105C2001B1D
:0105C3001C1B
:0105C4001D19
:0105C5001E17
:0105C6001E16
:0105C7001F14
:0105C8000032
:0105C9000130
:0105CA00012F
:0105CB00022D
:0105CC00032B
:0105CD000429
:0105CE000428
:0105CF000526
:0105D0000624
:0105D1000722
:0105D2000721
:0105D300081F
:0105D400091D
:0105D5000A1B
:0105D6000B19
:0105D7000B18
:0105D8000C16
:0105D9000D14
:0105DA000E12
:0105DB000E11
:0105DC000F0F
:0105DD00100D
:0105DE00110B
:0105DF00110A
:0105E0001208
:0105E1001306
:0105E2001404
:0105E3001403
:0105E4001501
:0105E50016FF
:0105E60017FD
:0105E70017FC
:0105E80018FA
:0105E90019F8
:0105EA001AF6
:0105EB001AF5
:0105EC001BF3
:0105ED001CF1
:0105EE001DEF
:0105EF001EED
:0105F0001EEC
:0105F1001FEA
:0105F2000008
:0105F3000106
:0105F4000105
:0105F5000203
:0105F6000301
:0105F70004FF
:0105F80004FE
:0105F90005FC
:0105FA0006FA
:0105FB0007F8
:0105FC0007F7
:0105FD0008F5
:0105FE0009F3
:0105FF000AF1
:010600000AEF
:010601000BED
:010602000CEB
:010603000DE9
:010604000DE8
:010605000EE6
:010606000FE4
:0106070010E2
:0106080010E1
:0106090011DF
:01060A0012DD
:01060B0013DB
:01060C0013DA
:01060D0014D8
:01060E0015D6
:01060F0016D4
:0106100016D3
:0106110017D1
:0106120018CF
:0106130019CD
:0106140019CC
:010615001ACA
:010616001BC8
:010617001CC6
:010618001CC5
:010619001DC3
:01061A001EC1
:01061B001FBF
:01061C001FBE
:01061D0000DC
:01061E0001DA
:01061F0002D8
:0106200003D6
:0106210003D5
:0106220004D3
:0106230005D1
:0106240006CF
:0106250006CE
:0106260007CC
:0106270008CA
:0106280009C8
:0106290009C7
:01062A000AC5
:01062B000BC3
:01062C000CC1
:01062D000CC0
:01062E000DBE
:01062F000EBC
:010630000FBA
:010631000FB9
:0106320010B7
:0106330011B5
:0106340012B3
:0106350012B2
:0106360013B0
:0106370014AE
:0106380015AC
:0106390015AB
:01063A0016A9
:01063B0017A7
:01063C0018A5
:01063D0018A4
:01063E0019A2
:01063F001AA0
:010640001B9E
:010641001B9D
:010642001C9B
:010643001D99
:010644001E97
:010645001E96
:010646001F94
:0106470000B2
:0106480001B0
:0106490001AF
:01064A0002AD
:01064B0003AB
:01064C0004A9
:01064D0004A8
:01064E0005A6
:01064F0006A4
:0106500007A2
:0106510007A1
:01065200089F
:01065300099D
:01065400099C
:010655000A9A
:010656000B98
:010657000C96
:010658000C95
:010659000D93
:01065A000E91
:01065B000F8F
:01065C000F8E
:01065D00108C
:01065E00118A
:01065F001288
:010660001287
:010661001385
:010662001483
:010663001581
:010664001580
:01066500167E
:01066600177C
:01066700187A
:010668001879
:010669001977
:01066A001A75
:01066B001B73
:01066C001B72
:01066D001C70
:01066E001D6E
:01066F001E6C
:010670001E6B
:010671001F69
:010672000087
:010673000185
:010674000184
:010675000282
:010676000380
:01067700047E
:01067800047D
:01067900057B
:01067A000679
:01067B000777
:01067C000776
:01067D000874
:01067E000972
:01067F000A70
:010680000A6F
:010681000B6D
:010682000C6B
:010683000D69
:010684000D68
:010685000E66
:010686000F64
:010687000F63
:010688001061
:01068900115F
:01068A00125D
:01068B00125C
:01068C00135A
:01068D001458
:01068E001556
:01068F001555
:010690001653
:010691001751
:01069200184F
:01069300184E
:01069400194C
:010695001A4A
:010696001B48
:010697001B47
:010698001C45
:010699001D43
:01069A001E41
:01069B001E40
:01069C001F3E
:01069D00005C
:01069E00015A
:01069F000159
:0106A0000257
:0106A1000355
:0106A2000354
:0106A3000452
:0106A4000550
:0106A500064E
:0106A600064D
:0106A700074B
:0106A8000849
:0106A9000947
:0106AA000946
:0106AB000A44
:0106AC000B42
:0106AD000C40
:0106AE000C3F
:0106AF000D3D
:0106B0000E3B
:0106B1000F39
:0106B2000F38
:0106B3001036
:0106B4001134
:0106B5001133
:0106B6001231
:0106B700132F
:0106B800142D
:0106B900142C
:0106BA00152A
:0106BB001628
:0106BC001726
:0106BD001725
:0106BE001823
:0106BF001921
:0106C0001A1F
:0106C1001A1E
:0106C2001B1C
:0106C3001C1A
:0106C4001D18
:0106C5001D17
:0106C6001E15
:0106C7001F13
:0106C8001F12
:0106C9000030
:0106CA00012E
:0106CB00022C
:0106CC00022B
:0106CD000329
:0106CE000427
:0106CF000525
:0106D0000524
:0106D1000622
:0106D2000720
:0106D300081E
:0106D400081D
:0106D500091B
:0106D6000A19
:0106D7000B17
:0106D8000B16
:0106D9000C14
:0106DA000D12
:0106DB000D11
:0106DC000E0F
:0106DD000F0D
:0106DE00100B
:0106DF00100A
:0106E0001108
:0106E1001206
:0106E2001304
:0106E3001303
:0106E4001401
:0106E50015FF
:0106E60016FD
:0106E70016FC
:0106E80017FA
:0106E90018F8
:0106EA0018F7
:0106EB0019F5
:0106EC001AF3
:0106ED001BF1
:0106EE001BF0
:0106EF001CEE
:0106F0001DEC
:0106F1001EEA
:0106F2001EE9
:0106F3001FE7
:0106F4000005
:0106F5000004
:0106F6000102
:0106F7000200
:0106F80003FE
:0106F90003FD
:0106FA0004FB
:0106FB0005F9
:0106FC0006F7
:0106FD0006F6
:0106FE0007F4
:0106FF0008F2
:0107000009EF
:0107010009EE
:010702000AEC
:010703000BEA
:010704000BE9
:010705000CE7
:010706000DE5
:010707000EE3
:010708000EE2
:010709000FE0
:01070A0010DE
:01070B0011DC
:01070C0011DB
:01070D0012D9
:01070E0013D7
:01070F0013D6
:0107100014D4
:0107110015D2
:0107120016D0
:0107130016CF
:0107140017CD
:0107150018CB
:0107160019C9
:0107170019C8
:010718001AC6
:010719001BC4
:01071A001BC3
:01071B001CC1
:01071C001DBF
:01071D001EBD
:01071E001EBC
:01071F001FBA
:0107200000D8
:0107210001D6
:0107220001D5
:0107230002D3
:0107240003D1
:0107250003D0
:0107260004CE
:0107270005CC
:0107280006CA
:0107290006C9
:01072A0007C7
:01072B0008C5
:01072C0009C3
:01072D0009C2
:01072E000AC0
:01072F000BBE
:010730000BBD
:010731000CBB
:010732000DB9
:010733000EB7
:010734000EB6
:010735000FB4
:0107360010B2
:0107370011B0
:0107380011AF
:0107390012AD
:01073A0013AB
:01073B0013AA
:01073C0014A8
:01073D0015A6
:01073E0016A4
:01073F0016A3
:0107400017A1
:01074100189F
:01074200199D
:01074300199C
:010744001A9A
:010745001B98
:010746001B97
:010747001C95
:010748001D93
:010749001E91
:01074A001E90
:01074B001F8E
:01074C0000AC
:01074D0000AB
:01074E0001A9
:01074F0002A7
:0107500003A5
:0107510003A4
:0107520004A2
:0107530005A0
:01075400069E
:01075500069D
:01075600079B
:010757000899
:010758000898
:010759000996
:01075A000A94
:01075B000B92
:01075C000B91
:01075D000C8F
:01075E000D8D
:01075F000D8C
:010760000E8A
:010761000F88
:010762001086
:010763001085
:010764001183
:010765001281
:01076600137F
:01076700137E
:01076800147C
:01076900157A
:01076A001579
:01076B001677
:01076C001775
:01076D001873
:01076E001872
:01076F001970
:010770001A6E
:010771001A6D
:010772001B6B
:010773001C69
:010774001D67
:010775001D66
:010776001E64
:010777001F62
:010778001F61
:01077900007F
:01077A00017D
:01077B00027B
:01077C00027A
:01077D000378
:01077E000476
:01077F000574
:010780000573
:010781000671
:01078200076F
:01078300076E
:01078400086C
:01078500096A
:010786000A68
:010787000A67
:010788000B65
:010789000C63
:01078A000C62
:01078B000D60
:01078C000E5E
:01078D000F5C
:01078E000F5B
:01078F001059
:010790001157
:010791001156
:010792001254
:010793001352
:010794001450
:01079500144F
:01079600154D
:01079700164B
:01079800164A
:010799001748
:01079A001846
:01079B001944
:01079C001943
:01079D001A41
:01079E001B3F
:01079F001B3E
:0107A0001C3C
:0107A1001D3A
:0107A2001E38
:0107A3001E37
:0107A4001F35
:0107A5000053
:0107A6000052
:0107A7000150
:0107A800024E
:0107A900034C
:0107AA00034B
:0107AB000449
:0107AC000547
:0107AD000546
:0107AE000644
:0107AF000742
:0107B0000840
:0107B100083F
:0107B200093D
:0107B3000A3B
:0107B4000A3A
:0107B5000B38
:0107B6000C36
:0107B7000D34
:0107B8000D33
:0107B9000E31
:0107BA000F2F
:0107BB000F2E
:0107BC00102C
:0107BD00112A
:0107BE001228
:0107BF001227
:0107C0001325
:0107C1001423
:0107C2001422
:0107C3001520
:0107C400161E
:0107C500171C
:0107C600171B
:0107C7001819
:0107C8001917
:0107C9001916
:0107CA001A14
:0107CB001B12
:0107CC001C10
:0107CD001C0F
:0107CE001D0D
:0107CF001E0B
:0107D0001E0A
:0107D1001F08
:0107D2000026
:0107D3000124
:0107D4000123
:0107D5000221
:0107D600031F
:0107D700031E
:0107D800041C
:0107D900051A
:0107DA000618
:0107DB000617
:0107DC000715
:0107DD000813
:0107DE000812
:0107DF000910
:0107E0000A0E
:0107E1000B0C
:0107E2000B0B
:0107E3000C09
:0107E4000D07
:0107E5000D06
:0107E6000E04
:0107E7000F02
:0107E8000F01
:0107E90010FF
:0107EA0011FD
:0107EB0012FB
:0107EC0012FA
:0107ED0013F8
:0107EE0014F6
:0107EF0014F5
:0107F00015F3
:0107F10016F1
:0107F20017EF
:0107F30017EE
:0107F40018EC
:0107F50019EA
:0107F60019E9
:0107F7001AE7
:0107F8001BE5
:0107F9001CE3
:0107FA001CE2
:0107FB001DE0
:0107FC001EDE
:0107FD001EDD
:0107FE001FDB
:0107FF0000F9
:00000001ff
