:020000040000FA
:020000003F6758
:020001003E259A
:020002003D05BA
:020003003BD1EF
:020004003AA41C
:0200050039833D
:02000600387B45
:02000700375A66
:02000800365967
:02000900355868
:02000A0034516F
:02000B00336759
:02000C0032764A
:02000D0031863A
:02000E00309D23
:02000F002FBC04
:020010002ED7E9
:020011002DF3CD
:020012002D229D
:020013002C427D
:020014002B912E
:020015002AC4FB
:0200160029FAC5
:0200170029407E
:02001800288A34
:0200190027CFEF
:02001A00271DA0
:02001B00265D60
:02001C0025C6F7
:02001D00251AA2
:02001E0024704C
:02001F0023BFFD
:02002000232E8D
:02002100229E1D
:02002200220DAD
:02002300216F4B
:0200240020E2D8
:02002500204F6A
:020026001FC5F4
:020027001F3781
:020028001EC3F5
:020029001E298E
:02002A001DAE09
:02002B001D2E88
:02002C001CC0F6
:02002D001C4F66
:02002E001BD7DE
:02002F001B5361
:020030001ADFD5
:020031001A7E35
:020032001A00B2
:0200330019971B
:02003400192091
:0200350018D2DF
:0200360018654B
:02003700180FA0
:02003800179C13
:02003900173876
:02003A0016D7D7
:02003B00167835
:02003C00163577
:02003D0015C5E7
:02003E00157536
:02003F00153179
:0200400014CAE0
:02004100148128
:02004200143474
:0200430013CBDD
:02004400139C0B
:02004500134C5A
:0200460012ECBA
:0200470012B7EE
:0200480012653F
:02004900120F94
:02004A0011E3C0
:02004B00118E14
:02004C0011445D
:02004D0011069A
:02004E0010D8C8
:02004F00107D22
:02005000104658
:02005100100A93
:020052000FE2BB
:020053000F910B
:020054000F5942
:020055000F2575
:020056000EDAC0
:020057000EB2E7
:020058000E8414
:020059000E4B4C
:02005A000E2076
:02005B000DDFB7
:02005C000DBBDA
:02005D000D7D17
:02005E000D494A
:02005F000D2072
:020060000CF79B
:020061000CBDD4
:020062000C840C
:020063000C6827
:020064000C3856
:020065000C0588
:020066000BF598
:020067000BB9D3
:020068000B8902
:020069000B5634
:02006A000B3950
:02006B000B0682
:02006C000AE4A4
:02006D000AC6C1
:02006E000AAADC
:02006F000A8005
:020070000A681C
:020071000A3F44
:020072000A067C
:0200730009ED95
:0200740009CEB3
:0200750009B5CB
:020076000996E9
:0200770009611D
:0200780009512C
:02007900092B51
:02007A00090873
:02007B0008EE8D
:02007C0008DC9E
:02007D0008BEBB
:02007E000884F4
:02007F00087EF9
:0200800008690D
:0200810008492C
:0200820008294B
:02008300081360
:0200840007ED86
:0200850007E290
:0200860007B7BA
:0200870007A1CF
:020088000780EF
:020089000785E9
:02008A00076706
:02008B00074626
:02008C00073338
:02008D00072743
:02008E00070762
:02008F0006ED7C
:0200900006DB8D
:0200910006BFA8
:0200920006A0C6
:0200930006A1C4
:02009400067FE5
:020095000673F0
:02009600065012
:02009700064819
:0200980006312F
:0200990006233C
:02009A00060B53
:02009B0005F668
:02009C0005E578
:02009D0005E27A
:02009E0005C398
:02009F0005B2A8
:0200A000059FBA
:0200A1000589CF
:0200A200057CDB
:0200A3000564F2
:0200A4000558FD
:0200A500054E06
:0200A60005470C
:0200A700052D25
:0200A80005252C
:0200A900051A36
:0200AA0004F45C
:0200AB0004EE61
:0200AC0004D579
:0200AD0004C18C
:0200AE0004B894
:0200AF0004BD8E
:0200B00004AAA0
:0200B100049FAA
:0200B2000481C7
:0200B3000470D7
:0200B4000466E0
:0200B500045EE7
:0200B600044BF9
:0200B700044201
:0200B800043D05
:0200B90004251C
:0200BA00042020
:0200BB00042619
:0200BC00040836
:0200BD0003FC42
:0200BE0003FE3F
:0200BF0003DE5E
:0200C00003D665
:0200C10003E555
:0200C20003D663
:0200C30003BB7D
:0200C40003BD7A
:0200C50003AC8A
:0200C60003A491
:0200C70003959F
:0200C800038BA8
:0200C9000392A0
:0200CA00037BB6
:0200CB00035DD3
:0200CC00035AD5
:0200CD000367C7
:0200CE000342EB
:0200CF00034AE2
:0200D0000336F5
:0200D100032EFC
:0200D200032405
:0200D3000329FF
:0200D400031B0C
:0200D500031511
:0200D600030F16
:0200D700030420
:0200D80002FA2A
:0200D90002FF24
:0200DA0002DA48
:0200DB0002D948
:0200DC0002E040
:0200DD0002D14E
:0200DE0002CB53
:0200DF0002BC61
:0200E00002BB61
:0200E10002B566
:0200E20002B664
:0200E30002A178
:0200E400029E7A
:0200E500029483
:0200E600029086
:0200E700028392
:0200E800028094
:0200E900028291
:0200EA00028989
:0200EB00026DA4
:0200EC000260B0
:0200ED00026CA3
:0200EE00026EA0
:0200EF000261AC
:0200F000025CB0
:0200F1000252B9
:0200F2000255B5
:0200F3000243C6
:0200F400023ECA
:0200F5000235D2
:0200F6000233D3
:0200F7000236CF
:0200F8000226DE
:0200F900021DE6
:0200FA00021CE6
:0200FB00021BE6
:0200FC000210F0
:0200FD0001FF01
:0200FE000206F8
:0200FF000202FB
:00000001ff
