:020000040000FA
:030000008000FD80
:0300010081FC2857
:0300020083ED1F6C
:0300030085D4FDA4
:0300040087B3813E
:030005008988DA0D
:030006008B54F325
:030007008D18E46D
:030008008ED3E4B0
:030009009086AD31
:03000A00923190A0
:03000B0093D4107B
:03000C00956F08E5
:03000D00970274E3
:03000E00988E7257
:03000F009A131F22
:030010009B90D9E9
:030011009D07A4A4
:030012009E776B6B
:030013009FE0E388
:03001400A1431CE9
:03001500A29F8F18
:03001600A3F5C788
:03001700A545B547
:03001800A68FA50B
:03001900A7D3E288
:03001A00A9124FD9
:03001B00AA4B7A73
:03001C00AB7E8A2E
:03001D00ACAC96F2
:03001E00ADD579E4
:03001F00AEF95ED9
:03002000B017C254
:03002100B13140BA
:03002200B245FBE9
:03002300B3564091
:03002400B4619A2A
:03002500B568A01B
:03002600B66B12A4
:03002700B7694373
:03002800B862D3E8
:03002900B958DEE5
:03002A00BA4A547B
:03002B00BB37E5FB
:03002C00BC2141B3
:03002D00BD06E627
:03002E00BDE8DF4B
:03002F00BEC765E4
:03003000BFA20A62
:03003100C078D1C3
:03003200C14CA21C
:03003300C21CB13B
:03003400C2E9AD71
:03003500C3B2B69D
:03003600C4790B7F
:03003700C53BE5E1
:03003800C5FC25DF
:03003900C6B9162F
:03003A00C7730287
:03003B00C82A05CB
:03003C00C8DDB963
:03003D00C98F5E0A
:03003E00CA3DB503
:03003F00CAE933D8
:03004000CB929AC6
:03004100CC38EACE
:03004200CCDCBD56
:03004300CD7E83EC
:03004400CE1CE8E7
:03004500CEB96BC6
:03004600CF53D3C2
:03004700CFEB32CA
:03004800D080C79E
:03004900D114319E
:03004A00D1A4B18D
:03004B00D233C5E8
:03004C00D2C076A9
:03004D00D34AEBA8
:03004E00D3D30BFE
:03004F00D459EE93
:03005000D4DE3CBF
:03005100D560AFC8
:03005200D5E0EB0B
:03005300D65FEE87
:03005400D6DCB83F
:03005500D7579FDB
:03005600D7D120DF
:03005700D8485630
:03005800D8BDE42C
:03005900D931F7A3
:03005A00D9A42204
:03005B00DA15159E
:03005C00DA83EA5A
:03005D00DAF1A92C
:03005E00DB5DAEB9
:03005F00DBC7F10B
:03006000DC30BCD5
:03006100DC9863C5
:03006200DCFE9031
:03006300DD62D487
:03006400DDC600F6
:03006500DE27E9AA
:03006600DE87DE54
:03006700DEE7349D
:03006800DF45175A
:03006900DFA1B85C
:03006A00DFFCB701
:03006B00E056D884
:03006C00E0AF748E
:03006D00E106D6D3
:03006E00E15CFD55
:03006F00E1B238C3
:03007000E205FCAA
:03007100E258E56D
:03007200E2AB02FC
:03007300E2FB7A33
:03007400E34AFC60
:03007500E3995AB2
:03007600E3E6C1FD
:03007700E43381EE
:03007800E47EA083
:03007900E4C92FA8
:03007A00E512B5D7
:03007B00E55B182A
:03007C00E5A26694
:03007D00E5E8F9BA
:03007E00E62F1D4D
:03007F00E6737BAA
:03008000E6B73CA4
:03008100E6FA524A
:03008200E73C7DDB
:03008300E77DAA6C
:03008400E7BE5381
:03008500E7FDA6EE
:03008600E83CC093
:03008700E87AB75D
:03008800E8B80FC6
:03008900E8F3FE9B
:03008A00E92FC695
:03008B00E96ACD52
:03008C00E9A4E9FB
:03008D00E9DE3277
:03008E00EA17105E
:03008F00EA4F280D
:03009000EA866C91
:03009100EABD1EA7
:03009200EAF3414D
:03009300EB282C2B
:03009400EB5D051C
:03009500EB90DC11
:03009600EBC47543
:03009700EBF6F88D
:03009800EC292C24
:03009900EC5A8C92
:03009A00EC8B8468
:03009B00ECBBDCDF
:03009C00ECEB8BFF
:03009D00ED1A6CED
:03009E00ED4931F8
:03009F00ED772ECC
:0300A000EDA4B913
:0300A100EDD1B8E6
:0300A200EDFDFC75
:0300A300EE29F84B
:0300A400EE5540D6
:0300A500EE7FF1FA
:0300A600EEAA1CA3
:0300A700EED41B79
:0300A800EEFD4723
:0300A900EF26112E
:0300AA00EF4ED442
:0300AB00EF768D60
:0300AC00EF9E2F95
:0300AD00EFC53864
:0300AE00EFEBA1D4
:0300AF00F01168E5
:0300B000F0371B0B
:0300B100F05C3EC2
:0300B200F0814E8C
:0300B300F0A5B8FD
:0300B400F0C99CF4
:0300B500F0ED0F5C
:0300B600F1104EF8
:0300B700F132EE35
:0300B800F1552FD0
:0300B900F1774A92
:0300BA00F198BBFF
:0300BB00F1B99DFB
:0300BC00F1DAC3B3
:0300BD00F1FB3222
:0300BE00F21B0B27
:0300BF00F23B1AF7
:0300C000F25A678A
:0300C100F27904CD
:0300C200F297C3EF
:0300C300F2B66230
:0300C400F2D42C47
:0300C500F2F1EB6A
:0300C600F30F3AFB
:0300C700F32C60B7
:0300C800F3490DEC
:0300C900F3652EAE
:0300CA00F3817D42
:0300CB00F39D9C06
:0300CC00F3B8F98D
:0300CD00F3D3CD9D
:0300CE00F3EF232A
:0300CF00F40970C1
:0300D000F423F224
:0300D100F43DF803
:0300D200F457BF21
:0300D300F470FCCA
:0300D400F48A505B
:0300D500F4A3365B
:0300D600F4BBD8A0
:0300D700F4D44E10
:0300D800F4EC7FC6
:0300D900F5042B00
:0300DA00F51C50C2
:0300DB00F5339A60
:0300DC00F54A8B57
:0300DD00F5619535
:0300DE00F5783F73
:0300DF00F58EC8D3
:0300E000F5A4E2A2
:0300E100F5BAD499
:0300E200F5D07BDB
:0300E300F5E63609
:0300E400F5FB72B7
:0300E500F610947E
:0300E600F6256B91
:0300E700F63A31B5
:0300E800F64E963B
:0300E900F662A319
:0300EA00F6767334
:0300EB00F68AADE5
:0300EC00F69E5F1E
:0300ED00F6B17BEE
:0300EE00F6C49CB9
:0300EF00F6D7BE83
:0300F000F6EA9C91
:0300F100F6FD4BCE
:0300F200F70F9E67
:0300F300F7221ED3
:0300F400F73436A8
:0300F500F746309B
:0300F600F757E1D8
:0300F700F769485E
:0300F800F77AE2B2
:0300F900F78C245D
:0300FA00F79D2C43
:0300FB00F7ADF46A
:0300FC00F7BEC983
:0300FD00F7CF8AB0
:0300FE00F7DFBC6D
:0300FF00F7EFF226
:00000001ff
