:020000040000FA
:0100000004FB
:0100010004FA
:0100020004F9
:0100030004F8
:0100040004F7
:0100050004F6
:0100060004F5
:0100070004F4
:0100080004F3
:0100090004F2
:01000A0004F1
:01000B0004F0
:01000C0004EF
:01000D0004EE
:01000E0004ED
:01000F0004EC
:0100100004EB
:0100110004EA
:0100120004E9
:0100130004E8
:0100140004E7
:0100150004E6
:0100160004E5
:0100170004E4
:0100180004E3
:0100190004E2
:01001A0004E1
:01001B0004E0
:01001C0004DF
:01001D0004DE
:01001E0004DD
:01001F0004DC
:0100200004DB
:0100210004DA
:0100220004D9
:0100230004D8
:0100240004D7
:0100250004D6
:0100260004D5
:0100270004D4
:0100280004D3
:0100290004D2
:01002A0004D1
:01002B0004D0
:01002C0004CF
:01002D0004CE
:01002E0004CD
:01002F0004CC
:0100300004CB
:0100310004CA
:0100320004C9
:0100330004C8
:0100340004C7
:0100350004C6
:0100360004C5
:0100370004C4
:0100380004C3
:0100390004C2
:01003A0004C1
:01003B0004C0
:01003C0004BF
:01003D0004BE
:01003E0004BD
:01003F0004BC
:0100400004BB
:0100410004BA
:0100420004B9
:0100430004B8
:0100440004B7
:0100450004B6
:0100460004B5
:0100470004B4
:0100480004B3
:0100490004B2
:01004A0004B1
:01004B0004B0
:01004C0004AF
:01004D0004AE
:01004E0004AD
:01004F0004AC
:0100500004AB
:0100510004AA
:0100520004A9
:0100530004A8
:0100540004A7
:0100550004A6
:0100560004A5
:0100570004A4
:0100580004A3
:0100590004A2
:01005A0004A1
:01005B0004A0
:01005C00049F
:01005D00049E
:01005E00049D
:01005F00049C
:01006000049B
:01006100049A
:010062000499
:010063000498
:010064000497
:010065000496
:010066000495
:010067000494
:010068000493
:010069000492
:01006A000491
:01006B000490
:01006C00048F
:01006D00048E
:01006E00048D
:01006F00048C
:01007000048B
:01007100048A
:010072000489
:010073000488
:010074000487
:010075000486
:010076000485
:010077000484
:010078000483
:010079000482
:01007A000481
:01007B000480
:01007C00047F
:01007D00047E
:01007E00047D
:01007F00047C
:01008000047B
:01008100047A
:010082000479
:010083000478
:010084000477
:010085000476
:010086000475
:010087000474
:010088000473
:010089000472
:01008A000471
:01008B000470
:01008C00046F
:01008D00046E
:01008E00046D
:01008F00046C
:01009000046B
:01009100046A
:010092000469
:010093000468
:010094000467
:010095000466
:010096000465
:010097000464
:010098000463
:010099000462
:01009A000461
:01009B000460
:01009C00045F
:01009D00045E
:01009E00045D
:01009F00045C
:0100A000045B
:0100A100045A
:0100A2000459
:0100A3000458
:0100A4000457
:0100A5000456
:0100A6000455
:0100A7000454
:0100A8000453
:0100A9000452
:0100AA000451
:0100AB000450
:0100AC00044F
:0100AD00044E
:0100AE00044D
:0100AF00044C
:0100B000044B
:0100B100044A
:0100B2000449
:0100B3000448
:0100B4000447
:0100B5000446
:0100B6000445
:0100B7000444
:0100B8000443
:0100B9000442
:0100BA000441
:0100BB000440
:0100BC00043F
:0100BD00043E
:0100BE00043D
:0100BF00043C
:0100C000043B
:0100C100043A
:0100C2000439
:0100C3000438
:0100C4000437
:0100C5000436
:0100C6000435
:0100C7000434
:0100C8000433
:0100C9000432
:0100CA000431
:0100CB000430
:0100CC00042F
:0100CD00042E
:0100CE00042D
:0100CF00042C
:0100D000042B
:0100D100042A
:0100D2000429
:0100D3000428
:0100D4000427
:0100D5000426
:0100D6000425
:0100D7000424
:0100D8000423
:0100D9000422
:0100DA000421
:0100DB000420
:0100DC00041F
:0100DD00041E
:0100DE00041D
:0100DF00041C
:0100E000041B
:0100E100041A
:0100E2000419
:0100E3000418
:0100E4000417
:0100E5000416
:0100E6000415
:0100E7000414
:0100E8000413
:0100E9000412
:0100EA000411
:0100EB000410
:0100EC00040F
:0100ED00040E
:0100EE00040D
:0100EF00040C
:0100F000040B
:0100F100040A
:0100F2000409
:0100F3000408
:0100F4000407
:0100F5000406
:0100F6000405
:0100F7000404
:0100F8000403
:0100F9000402
:0100FA000401
:0100FB000400
:0100FC0004FF
:0100FD0004FE
:0100FE0004FD
:0100FF0004FC
:0101000004FA
:0101010004F9
:0101020004F8
:0101030004F7
:0101040004F6
:0101050004F5
:0101060004F4
:0101070004F3
:0101080004F2
:0101090004F1
:01010A0004F0
:01010B0004EF
:01010C0004EE
:01010D0004ED
:01010E0004EC
:01010F0004EB
:0101100004EA
:0101110004E9
:0101120004E8
:0101130004E7
:0101140004E6
:0101150004E5
:0101160004E4
:0101170004E3
:0101180004E2
:0101190004E1
:01011A0004E0
:01011B0004DF
:01011C0004DE
:01011D0004DD
:01011E0004DC
:01011F0004DB
:0101200004DA
:0101210004D9
:0101220004D8
:0101230004D7
:0101240004D6
:0101250004D5
:0101260004D4
:0101270004D3
:0101280004D2
:0101290004D1
:01012A0004D0
:01012B0004CF
:01012C0004CE
:01012D0004CD
:01012E0004CC
:01012F0004CB
:0101300004CA
:0101310004C9
:0101320004C8
:0101330004C7
:0101340004C6
:0101350004C5
:0101360004C4
:0101370004C3
:0101380004C2
:0101390004C1
:01013A0004C0
:01013B0004BF
:01013C0004BE
:01013D0004BD
:01013E0004BC
:01013F0004BB
:0101400004BA
:0101410004B9
:0101420004B8
:0101430004B7
:0101440004B6
:0101450004B5
:0101460004B4
:0101470004B3
:0101480004B2
:0101490004B1
:01014A0004B0
:01014B0004AF
:01014C0004AE
:01014D0004AD
:01014E0004AC
:01014F0004AB
:0101500004AA
:0101510004A9
:0101520004A8
:0101530004A7
:0101540004A6
:0101550004A5
:0101560004A4
:0101570004A3
:0101580004A2
:0101590004A1
:01015A0004A0
:01015B00049F
:01015C00049E
:01015D00049D
:01015E00049C
:01015F00049B
:01016000049A
:010161000499
:010162000498
:010163000497
:010164000496
:010165000495
:010166000494
:010167000493
:010168000492
:010169000491
:01016A000490
:01016B00048F
:01016C00048E
:01016D00048D
:01016E00048C
:01016F00048B
:01017000048A
:010171000489
:010172000488
:010173000487
:010174000486
:010175000485
:010176000484
:010177000483
:010178000482
:010179000481
:01017A000480
:01017B00047F
:01017C00047E
:01017D00047D
:01017E00047C
:01017F00047B
:01018000047A
:010181000479
:010182000478
:010183000477
:010184000476
:010185000475
:010186000474
:010187000473
:010188000472
:010189000471
:01018A000470
:01018B00046F
:01018C00046E
:01018D00046D
:01018E00046C
:01018F00046B
:01019000046A
:010191000469
:010192000468
:010193000467
:010194000466
:010195000465
:010196000464
:010197000463
:010198000462
:010199000461
:01019A000460
:01019B00045F
:01019C00045E
:01019D00045D
:01019E00045C
:01019F00045B
:0101A000045A
:0101A1000459
:0101A2000458
:0101A3000457
:0101A4000456
:0101A5000455
:0101A6000454
:0101A7000453
:0101A8000452
:0101A9000451
:0101AA000450
:0101AB00044F
:0101AC00044E
:0101AD00044D
:0101AE00044C
:0101AF00044B
:0101B000044A
:0101B1000449
:0101B2000448
:0101B3000447
:0101B4000446
:0101B5000445
:0101B6000444
:0101B7000443
:0101B8000442
:0101B9000441
:0101BA000440
:0101BB00043F
:0101BC00043E
:0101BD00043D
:0101BE00043C
:0101BF00043B
:0101C000043A
:0101C1000439
:0101C2000438
:0101C3000437
:0101C4000436
:0101C5000435
:0101C6000434
:0101C7000433
:0101C8000432
:0101C9000431
:0101CA000430
:0101CB00042F
:0101CC00042E
:0101CD00042D
:0101CE00042C
:0101CF00042B
:0101D000042A
:0101D1000429
:0101D2000428
:0101D3000427
:0101D4000426
:0101D5000425
:0101D6000424
:0101D7000423
:0101D8000422
:0101D9000421
:0101DA000420
:0101DB00041F
:0101DC00041E
:0101DD00041D
:0101DE00041C
:0101DF00041B
:0101E000041A
:0101E1000419
:0101E2000418
:0101E3000417
:0101E4000416
:0101E5000415
:0101E6000414
:0101E7000413
:0101E8000412
:0101E9000411
:0101EA000410
:0101EB00040F
:0101EC00040E
:0101ED00040D
:0101EE00040C
:0101EF00040B
:0101F000040A
:0101F1000409
:0101F2000408
:0101F3000407
:0101F4000406
:0101F5000405
:0101F6000404
:0101F7000403
:0101F8000402
:0101F9000401
:0101FA000400
:0101FB0004FF
:0101FC0004FE
:0101FD0004FD
:0101FE0004FC
:0101FF0004FB
:0102000004F9
:0102010004F8
:0102020004F7
:0102030004F6
:0102040004F5
:0102050004F4
:0102060004F3
:0102070004F2
:0102080004F1
:0102090004F0
:01020A0004EF
:01020B0004EE
:01020C0004ED
:01020D0004EC
:01020E0004EB
:01020F0004EA
:0102100004E9
:0102110004E8
:0102120004E7
:0102130004E6
:0102140004E5
:0102150004E4
:0102160004E3
:0102170004E2
:0102180004E1
:0102190004E0
:01021A0004DF
:01021B0004DE
:01021C0004DD
:01021D0004DC
:01021E0004DB
:01021F0004DA
:0102200004D9
:0102210004D8
:0102220004D7
:0102230004D6
:0102240004D5
:0102250004D4
:0102260004D3
:0102270004D2
:0102280004D1
:0102290004D0
:01022A0004CF
:01022B0004CE
:01022C0004CD
:01022D0004CC
:01022E0004CB
:01022F0004CA
:0102300004C9
:0102310004C8
:0102320004C7
:0102330004C6
:0102340004C5
:0102350004C4
:0102360004C3
:0102370004C2
:0102380004C1
:0102390004C0
:01023A0004BF
:01023B0004BE
:01023C0004BD
:01023D0004BC
:01023E0004BB
:01023F0004BA
:0102400004B9
:0102410004B8
:0102420004B7
:0102430004B6
:0102440004B5
:0102450004B4
:0102460004B3
:0102470004B2
:0102480004B1
:0102490004B0
:01024A0004AF
:01024B0004AE
:01024C0004AD
:01024D0004AC
:01024E0004AB
:01024F0004AA
:0102500004A9
:0102510004A8
:0102520004A7
:0102530004A6
:0102540004A5
:0102550004A4
:0102560004A3
:0102570004A2
:0102580004A1
:0102590004A0
:01025A00049F
:01025B00049E
:01025C00049D
:01025D00049C
:01025E00049B
:01025F00049A
:010260000499
:010261000498
:010262000497
:010263000496
:010264000495
:010265000494
:010266000493
:010267000492
:010268000491
:010269000490
:01026A00048F
:01026B00048E
:01026C00048D
:01026D00048C
:01026E00048B
:01026F00048A
:010270000489
:010271000488
:010272000487
:010273000486
:010274000485
:010275000484
:010276000483
:010277000482
:010278000481
:010279000480
:01027A00047F
:01027B00047E
:01027C00047D
:01027D00047C
:01027E00047B
:01027F00047A
:010280000479
:010281000478
:010282000477
:010283000476
:010284000475
:010285000474
:010286000473
:010287000472
:010288000471
:010289000470
:01028A00046F
:01028B00046E
:01028C00046D
:01028D00046C
:01028E00046B
:01028F00046A
:010290000469
:010291000468
:010292000467
:010293000466
:010294000465
:010295000464
:010296000463
:010297000462
:010298000461
:010299000460
:01029A00045F
:01029B00045E
:01029C00045D
:01029D00045C
:01029E00045B
:01029F00045A
:0102A0000459
:0102A1000458
:0102A2000457
:0102A3000456
:0102A4000455
:0102A5000454
:0102A6000453
:0102A7000452
:0102A8000451
:0102A9000450
:0102AA00044F
:0102AB00044E
:0102AC00044D
:0102AD00044C
:0102AE00044B
:0102AF00044A
:0102B0000449
:0102B1000448
:0102B2000447
:0102B3000446
:0102B4000445
:0102B5000444
:0102B6000443
:0102B7000442
:0102B8000441
:0102B9000440
:0102BA00043F
:0102BB00043E
:0102BC00043D
:0102BD00043C
:0102BE00043B
:0102BF00043A
:0102C0000439
:0102C1000438
:0102C2000437
:0102C3000436
:0102C4000435
:0102C5000434
:0102C6000433
:0102C7000432
:0102C8000431
:0102C9000430
:0102CA00042F
:0102CB00042E
:0102CC00042D
:0102CD00042C
:0102CE00042B
:0102CF00042A
:0102D0000429
:0102D1000428
:0102D2000427
:0102D3000426
:0102D4000425
:0102D5000424
:0102D6000423
:0102D7000422
:0102D8000421
:0102D9000420
:0102DA00041F
:0102DB00041E
:0102DC00041D
:0102DD00041C
:0102DE00041B
:0102DF00041A
:0102E0000419
:0102E1000418
:0102E2000417
:0102E3000416
:0102E4000415
:0102E5000414
:0102E6000413
:0102E7000412
:0102E8000411
:0102E9000410
:0102EA00040F
:0102EB00040E
:0102EC00040D
:0102ED00040C
:0102EE00040B
:0102EF00040A
:0102F0000409
:0102F1000408
:0102F2000407
:0102F3000406
:0102F4000405
:0102F5000404
:0102F6000403
:0102F7000402
:0102F8000401
:0102F9000400
:0102FA0004FF
:0102FB0004FE
:0102FC0004FD
:0102FD0004FC
:0102FE0004FB
:0102FF0004FA
:0103000004F8
:0103010004F7
:0103020004F6
:0103030004F5
:0103040004F4
:0103050004F3
:0103060004F2
:0103070004F1
:0103080004F0
:0103090004EF
:01030A0004EE
:01030B0004ED
:01030C0004EC
:01030D0004EB
:01030E0004EA
:01030F0004E9
:0103100004E8
:0103110004E7
:0103120004E6
:0103130004E5
:0103140004E4
:0103150004E3
:0103160004E2
:0103170004E1
:0103180004E0
:0103190004DF
:01031A0004DE
:01031B0004DD
:01031C0004DC
:01031D0004DB
:01031E0004DA
:01031F0004D9
:0103200004D8
:0103210004D7
:0103220004D6
:0103230004D5
:0103240004D4
:0103250004D3
:0103260004D2
:0103270004D1
:0103280004D0
:0103290004CF
:01032A0004CE
:01032B0004CD
:01032C0004CC
:01032D0004CB
:01032E0004CA
:01032F0004C9
:0103300004C8
:0103310004C7
:0103320004C6
:0103330004C5
:0103340004C4
:0103350004C3
:0103360004C2
:0103370004C1
:0103380004C0
:0103390004BF
:01033A0004BE
:01033B0004BD
:01033C0004BC
:01033D0004BB
:01033E0004BA
:01033F0004B9
:0103400004B8
:0103410004B7
:0103420004B6
:0103430004B5
:0103440004B4
:0103450004B3
:0103460004B2
:0103470004B1
:0103480004B0
:0103490004AF
:01034A0004AE
:01034B0004AD
:01034C0004AC
:01034D0004AB
:01034E0004AA
:01034F0004A9
:0103500004A8
:0103510004A7
:0103520004A6
:0103530004A5
:0103540004A4
:0103550004A3
:0103560004A2
:0103570004A1
:0103580004A0
:01035900049F
:01035A00049E
:01035B00049D
:01035C00049C
:01035D00049B
:01035E00049A
:01035F000499
:010360000498
:010361000497
:010362000496
:010363000495
:010364000494
:010365000493
:010366000492
:010367000491
:010368000490
:01036900048F
:01036A00048E
:01036B00048D
:01036C00048C
:01036D00048B
:01036E00048A
:01036F000489
:010370000488
:010371000487
:010372000486
:010373000485
:010374000484
:010375000483
:010376000482
:010377000481
:010378000480
:01037900047F
:01037A00047E
:01037B00047D
:01037C00047C
:01037D00047B
:01037E00047A
:01037F000479
:010380000478
:010381000477
:010382000476
:010383000475
:010384000474
:010385000473
:010386000472
:010387000471
:010388000470
:01038900046F
:01038A00046E
:01038B00046D
:01038C00046C
:01038D00046B
:01038E00046A
:01038F000469
:010390000468
:010391000467
:010392000466
:010393000465
:010394000464
:010395000463
:010396000462
:010397000461
:010398000460
:01039900045F
:01039A00045E
:01039B00045D
:01039C00045C
:01039D00045B
:01039E00045A
:01039F000459
:0103A0000458
:0103A1000457
:0103A2000456
:0103A3000455
:0103A4000454
:0103A5000453
:0103A6000452
:0103A7000451
:0103A8000450
:0103A900044F
:0103AA00044E
:0103AB00044D
:0103AC00044C
:0103AD00044B
:0103AE00044A
:0103AF000449
:0103B0000448
:0103B1000447
:0103B2000446
:0103B3000445
:0103B4000444
:0103B5000443
:0103B6000442
:0103B7000441
:0103B8000440
:0103B900043F
:0103BA00043E
:0103BB00043D
:0103BC00043C
:0103BD00043B
:0103BE00043A
:0103BF000439
:0103C0000438
:0103C1000437
:0103C2000436
:0103C3000435
:0103C4000434
:0103C5000433
:0103C6000432
:0103C7000431
:0103C8000430
:0103C900042F
:0103CA00042E
:0103CB00042D
:0103CC00042C
:0103CD00042B
:0103CE00042A
:0103CF000429
:0103D0000428
:0103D1000427
:0103D2000426
:0103D3000425
:0103D4000424
:0103D5000423
:0103D6000422
:0103D7000421
:0103D8000420
:0103D900041F
:0103DA00041E
:0103DB00041D
:0103DC00041C
:0103DD00041B
:0103DE00041A
:0103DF000419
:0103E0000418
:0103E1000417
:0103E2000416
:0103E3000415
:0103E4000414
:0103E5000413
:0103E6000412
:0103E7000411
:0103E8000410
:0103E900040F
:0103EA00040E
:0103EB00040D
:0103EC00040C
:0103ED00040B
:0103EE00040A
:0103EF000409
:0103F0000408
:0103F1000407
:0103F2000406
:0103F3000405
:0103F4000404
:0103F5000403
:0103F6000402
:0103F7000401
:0103F8000400
:0103F90004FF
:0103FA0004FE
:0103FB0004FD
:0103FC0004FC
:0103FD0004FB
:0103FE0004FA
:0103FF0004F9
:0104000004F7
:0104010004F6
:0104020004F5
:0104030004F4
:0104040004F3
:0104050004F2
:0104060004F1
:0104070004F0
:0104080004EF
:0104090004EE
:01040A0004ED
:01040B0004EC
:01040C0004EB
:01040D0004EA
:01040E0004E9
:01040F0004E8
:0104100004E7
:0104110004E6
:0104120004E5
:0104130004E4
:0104140004E3
:0104150004E2
:0104160004E1
:0104170004E0
:0104180004DF
:0104190004DE
:01041A0004DD
:01041B0004DC
:01041C0004DB
:01041D0004DA
:01041E0004D9
:01041F0004D8
:0104200004D7
:0104210004D6
:0104220004D5
:0104230004D4
:0104240004D3
:0104250004D2
:0104260004D1
:0104270004D0
:0104280004CF
:0104290004CE
:01042A0004CD
:01042B0004CC
:01042C0004CB
:01042D0004CA
:01042E0004C9
:01042F0004C8
:0104300004C7
:0104310004C6
:0104320004C5
:0104330004C4
:0104340004C3
:0104350004C2
:0104360004C1
:0104370004C0
:0104380004BF
:0104390004BE
:01043A0004BD
:01043B0004BC
:01043C0004BB
:01043D0004BA
:01043E0004B9
:01043F0004B8
:0104400004B7
:0104410004B6
:0104420004B5
:0104430004B4
:0104440004B3
:0104450004B2
:0104460004B1
:0104470004B0
:0104480004AF
:0104490004AE
:01044A0004AD
:01044B0004AC
:01044C0004AB
:01044D0004AA
:01044E0004A9
:01044F0004A8
:0104500004A7
:0104510004A6
:0104520004A5
:0104530004A4
:0104540004A3
:0104550004A2
:0104560004A1
:0104570004A0
:01045800049F
:01045900049E
:01045A00049D
:01045B00049C
:01045C00049B
:01045D00049A
:01045E000499
:01045F000498
:010460000497
:010461000496
:010462000495
:010463000494
:010464000493
:010465000492
:010466000491
:010467000490
:01046800048F
:01046900048E
:01046A00048D
:01046B00048C
:01046C00048B
:01046D00048A
:01046E000489
:01046F000488
:010470000487
:010471000486
:010472000485
:010473000484
:010474000483
:010475000482
:010476000481
:010477000480
:01047800047F
:01047900047E
:01047A00047D
:01047B00047C
:01047C00047B
:01047D00047A
:01047E000479
:01047F000478
:010480000576
:010481000575
:010482000574
:010483000573
:010484000572
:010485000571
:010486000570
:01048700056F
:01048800056E
:01048900056D
:01048A00056C
:01048B00056B
:01048C00056A
:01048D000569
:01048E000568
:01048F000567
:010490000566
:010491000565
:010492000564
:010493000563
:010494000562
:010495000561
:010496000560
:01049700055F
:01049800055E
:01049900055D
:01049A00055C
:01049B00055B
:01049C00055A
:01049D000559
:01049E000558
:01049F000557
:0104A0000556
:0104A1000555
:0104A2000554
:0104A3000553
:0104A4000552
:0104A5000551
:0104A6000550
:0104A700054F
:0104A800054E
:0104A900054D
:0104AA00054C
:0104AB00054B
:0104AC00054A
:0104AD000549
:0104AE000548
:0104AF000547
:0104B0000546
:0104B1000545
:0104B2000544
:0104B3000543
:0104B4000542
:0104B5000541
:0104B6000540
:0104B700053F
:0104B800053E
:0104B900053D
:0104BA00053C
:0104BB00053B
:0104BC00053A
:0104BD000539
:0104BE000538
:0104BF000537
:0104C0000536
:0104C1000535
:0104C2000534
:0104C3000533
:0104C4000532
:0104C5000531
:0104C6000530
:0104C700052F
:0104C800052E
:0104C900052D
:0104CA00052C
:0104CB00052B
:0104CC00052A
:0104CD000529
:0104CE000528
:0104CF000527
:0104D0000526
:0104D1000525
:0104D2000524
:0104D3000523
:0104D4000522
:0104D5000521
:0104D6000520
:0104D700051F
:0104D800051E
:0104D900051D
:0104DA00051C
:0104DB00051B
:0104DC00051A
:0104DD000519
:0104DE000518
:0104DF000517
:0104E0000516
:0104E1000515
:0104E2000514
:0104E3000513
:0104E4000512
:0104E5000511
:0104E6000510
:0104E700050F
:0104E800050E
:0104E900050D
:0104EA00050C
:0104EB00050B
:0104EC00050A
:0104ED000509
:0104EE000508
:0104EF000507
:0104F0000506
:0104F1000505
:0104F2000504
:0104F3000503
:0104F4000502
:0104F5000501
:0104F6000500
:0104F70005FF
:0104F80005FE
:0104F90005FD
:0104FA0005FC
:0104FB0005FB
:0104FC0005FA
:0104FD0005F9
:0104FE0005F8
:0104FF0005F7
:0105000005F5
:0105010005F4
:0105020005F3
:0105030005F2
:0105040005F1
:0105050005F0
:0105060005EF
:0105070005EE
:0105080005ED
:0105090005EC
:01050A0005EB
:01050B0005EA
:01050C0005E9
:01050D0005E8
:01050E0005E7
:01050F0005E6
:0105100005E5
:0105110005E4
:0105120005E3
:0105130005E2
:0105140005E1
:0105150005E0
:0105160005DF
:0105170005DE
:0105180005DD
:0105190005DC
:01051A0005DB
:01051B0005DA
:01051C0005D9
:01051D0005D8
:01051E0005D7
:01051F0005D6
:0105200005D5
:0105210005D4
:0105220005D3
:0105230005D2
:0105240005D1
:0105250005D0
:0105260005CF
:0105270005CE
:0105280005CD
:0105290005CC
:01052A0005CB
:01052B0005CA
:01052C0005C9
:01052D0005C8
:01052E0005C7
:01052F0005C6
:0105300005C5
:0105310005C4
:0105320005C3
:0105330005C2
:0105340005C1
:0105350005C0
:0105360005BF
:0105370005BE
:0105380005BD
:0105390005BC
:01053A0005BB
:01053B0005BA
:01053C0005B9
:01053D0005B8
:01053E0005B7
:01053F0005B6
:0105400005B5
:0105410005B4
:0105420005B3
:0105430005B2
:0105440005B1
:0105450005B0
:0105460005AF
:0105470005AE
:0105480005AD
:0105490005AC
:01054A0005AB
:01054B0005AA
:01054C0005A9
:01054D0005A8
:01054E0005A7
:01054F0005A6
:0105500005A5
:0105510005A4
:0105520005A3
:0105530005A2
:0105540005A1
:0105550005A0
:01055600059F
:01055700059E
:01055800059D
:01055900059C
:01055A00059B
:01055B00059A
:01055C000599
:01055D000598
:01055E000597
:01055F000596
:010560000595
:010561000594
:010562000593
:010563000592
:010564000591
:010565000590
:01056600058F
:01056700058E
:01056800058D
:01056900058C
:01056A00058B
:01056B00058A
:01056C000589
:01056D000588
:01056E000587
:01056F000586
:010570000585
:010571000584
:010572000583
:010573000582
:010574000581
:010575000580
:01057600057F
:01057700057E
:01057800057D
:01057900057C
:01057A00057B
:01057B00057A
:01057C000579
:01057D000578
:01057E000577
:01057F000576
:010580000575
:010581000574
:010582000573
:010583000572
:010584000571
:010585000570
:01058600056F
:01058700056E
:01058800056D
:01058900056C
:01058A00056B
:01058B00056A
:01058C000569
:01058D000568
:01058E000567
:01058F000566
:010590000565
:010591000564
:010592000563
:010593000562
:010594000561
:010595000560
:01059600055F
:01059700055E
:01059800055D
:01059900055C
:01059A00055B
:01059B00055A
:01059C000559
:01059D000558
:01059E000557
:01059F000556
:0105A0000555
:0105A1000554
:0105A2000553
:0105A3000552
:0105A4000551
:0105A5000550
:0105A600054F
:0105A700054E
:0105A800054D
:0105A900054C
:0105AA00054B
:0105AB00054A
:0105AC000549
:0105AD000548
:0105AE000547
:0105AF000546
:0105B0000545
:0105B1000544
:0105B2000543
:0105B3000542
:0105B4000541
:0105B5000540
:0105B600053F
:0105B700053E
:0105B800053D
:0105B900053C
:0105BA00053B
:0105BB00053A
:0105BC000539
:0105BD000538
:0105BE000537
:0105BF000536
:0105C0000535
:0105C1000534
:0105C2000533
:0105C3000532
:0105C4000531
:0105C5000530
:0105C600052F
:0105C700052E
:0105C800052D
:0105C900052C
:0105CA00052B
:0105CB00052A
:0105CC000529
:0105CD000528
:0105CE000527
:0105CF000526
:0105D0000525
:0105D1000524
:0105D2000523
:0105D3000522
:0105D4000521
:0105D5000520
:0105D600051F
:0105D700051E
:0105D800051D
:0105D900051C
:0105DA00051B
:0105DB00051A
:0105DC000519
:0105DD000518
:0105DE000517
:0105DF000516
:0105E0000515
:0105E1000514
:0105E2000513
:0105E3000512
:0105E4000511
:0105E5000510
:0105E600050F
:0105E700050E
:0105E800050D
:0105E900050C
:0105EA00050B
:0105EB00050A
:0105EC000509
:0105ED000508
:0105EE000507
:0105EF000506
:0105F0000505
:0105F1000504
:0105F2000503
:0105F3000502
:0105F4000501
:0105F5000500
:0105F60005FF
:0105F70005FE
:0105F80005FD
:0105F90005FC
:0105FA0005FB
:0105FB0005FA
:0105FC0005F9
:0105FD0005F8
:0105FE0005F7
:0105FF0005F6
:0106000005F4
:0106010005F3
:0106020005F2
:0106030005F1
:0106040005F0
:0106050005EF
:0106060005EE
:0106070005ED
:0106080005EC
:0106090005EB
:01060A0005EA
:01060B0005E9
:01060C0005E8
:01060D0005E7
:01060E0005E6
:01060F0005E5
:0106100005E4
:0106110005E3
:0106120005E2
:0106130005E1
:0106140005E0
:0106150005DF
:0106160005DE
:0106170005DD
:0106180005DC
:0106190005DB
:01061A0005DA
:01061B0005D9
:01061C0005D8
:01061D0005D7
:01061E0005D6
:01061F0005D5
:0106200005D4
:0106210005D3
:0106220005D2
:0106230005D1
:0106240005D0
:0106250005CF
:0106260005CE
:0106270005CD
:0106280005CC
:0106290005CB
:01062A0005CA
:01062B0005C9
:01062C0005C8
:01062D0005C7
:01062E0005C6
:01062F0005C5
:0106300005C4
:0106310005C3
:0106320005C2
:0106330005C1
:0106340005C0
:0106350005BF
:0106360005BE
:0106370005BD
:0106380005BC
:0106390005BB
:01063A0005BA
:01063B0005B9
:01063C0005B8
:01063D0005B7
:01063E0005B6
:01063F0005B5
:0106400005B4
:0106410005B3
:0106420005B2
:0106430005B1
:0106440005B0
:0106450005AF
:0106460005AE
:0106470005AD
:0106480005AC
:0106490005AB
:01064A0005AA
:01064B0005A9
:01064C0005A8
:01064D0005A7
:01064E0005A6
:01064F0005A5
:0106500005A4
:0106510005A3
:0106520005A2
:0106530005A1
:0106540005A0
:01065500059F
:01065600059E
:01065700059D
:01065800059C
:01065900059B
:01065A00059A
:01065B000599
:01065C000598
:01065D000597
:01065E000596
:01065F000595
:010660000594
:010661000593
:010662000592
:010663000591
:010664000590
:01066500058F
:01066600058E
:01066700058D
:01066800058C
:01066900058B
:01066A00058A
:01066B000589
:01066C000588
:01066D000587
:01066E000586
:01066F000585
:010670000584
:010671000583
:010672000582
:010673000581
:010674000580
:01067500057F
:01067600057E
:01067700057D
:01067800057C
:01067900057B
:01067A00057A
:01067B000579
:01067C000578
:01067D000577
:01067E000576
:01067F000575
:010680000574
:010681000573
:010682000572
:010683000571
:010684000570
:01068500056F
:01068600056E
:01068700056D
:01068800056C
:01068900056B
:01068A00056A
:01068B000569
:01068C000568
:01068D000567
:01068E000566
:01068F000565
:010690000564
:010691000563
:010692000562
:010693000561
:010694000560
:01069500055F
:01069600055E
:01069700055D
:01069800055C
:01069900055B
:01069A00055A
:01069B000559
:01069C000558
:01069D000557
:01069E000556
:01069F000555
:0106A0000554
:0106A1000553
:0106A2000552
:0106A3000551
:0106A4000550
:0106A500054F
:0106A600054E
:0106A700054D
:0106A800054C
:0106A900054B
:0106AA00054A
:0106AB000549
:0106AC000548
:0106AD000547
:0106AE000546
:0106AF000545
:0106B0000544
:0106B1000543
:0106B2000542
:0106B3000541
:0106B4000540
:0106B500053F
:0106B600053E
:0106B700053D
:0106B800053C
:0106B900053B
:0106BA00053A
:0106BB000539
:0106BC000538
:0106BD000537
:0106BE000536
:0106BF000535
:0106C0000534
:0106C1000533
:0106C2000532
:0106C3000531
:0106C4000530
:0106C500052F
:0106C600052E
:0106C700052D
:0106C800052C
:0106C900052B
:0106CA00052A
:0106CB000529
:0106CC000528
:0106CD000527
:0106CE000526
:0106CF000525
:0106D0000524
:0106D1000523
:0106D2000522
:0106D3000521
:0106D4000520
:0106D500051F
:0106D600051E
:0106D700051D
:0106D800051C
:0106D900051B
:0106DA00051A
:0106DB000519
:0106DC000518
:0106DD000517
:0106DE000516
:0106DF000515
:0106E0000514
:0106E1000513
:0106E2000512
:0106E3000511
:0106E4000510
:0106E500050F
:0106E600050E
:0106E700050D
:0106E800050C
:0106E900050B
:0106EA00050A
:0106EB000509
:0106EC000508
:0106ED000507
:0106EE000506
:0106EF000505
:0106F0000504
:0106F1000503
:0106F2000502
:0106F3000501
:0106F4000500
:0106F50005FF
:0106F60005FE
:0106F70005FD
:0106F80005FC
:0106F90005FB
:0106FA0005FA
:0106FB0005F9
:0106FC0005F8
:0106FD0005F7
:0106FE0005F6
:0106FF0005F5
:0107000005F3
:0107010005F2
:0107020005F1
:0107030005F0
:0107040005EF
:0107050005EE
:0107060005ED
:0107070005EC
:0107080005EB
:0107090005EA
:01070A0005E9
:01070B0005E8
:01070C0005E7
:01070D0005E6
:01070E0005E5
:01070F0005E4
:0107100005E3
:0107110005E2
:0107120005E1
:0107130005E0
:0107140005DF
:0107150005DE
:0107160005DD
:0107170005DC
:0107180005DB
:0107190005DA
:01071A0005D9
:01071B0005D8
:01071C0005D7
:01071D0005D6
:01071E0005D5
:01071F0005D4
:0107200005D3
:0107210005D2
:0107220005D1
:0107230005D0
:0107240005CF
:0107250005CE
:0107260005CD
:0107270005CC
:0107280005CB
:0107290005CA
:01072A0005C9
:01072B0005C8
:01072C0005C7
:01072D0005C6
:01072E0005C5
:01072F0005C4
:0107300005C3
:0107310005C2
:0107320005C1
:0107330005C0
:0107340005BF
:0107350005BE
:0107360005BD
:0107370005BC
:0107380005BB
:0107390005BA
:01073A0005B9
:01073B0005B8
:01073C0005B7
:01073D0005B6
:01073E0005B5
:01073F0005B4
:0107400005B3
:0107410005B2
:0107420005B1
:0107430005B0
:0107440005AF
:0107450005AE
:0107460005AD
:0107470005AC
:0107480005AB
:0107490005AA
:01074A0005A9
:01074B0005A8
:01074C0005A7
:01074D0005A6
:01074E0005A5
:01074F0005A4
:0107500005A3
:0107510005A2
:0107520005A1
:0107530005A0
:01075400059F
:01075500059E
:01075600059D
:01075700059C
:01075800059B
:01075900059A
:01075A000599
:01075B000598
:01075C000597
:01075D000596
:01075E000595
:01075F000594
:010760000593
:010761000592
:010762000591
:010763000590
:01076400058F
:01076500058E
:01076600058D
:01076700058C
:01076800058B
:01076900058A
:01076A000589
:01076B000588
:01076C000587
:01076D000586
:01076E000585
:01076F000584
:010770000583
:010771000582
:010772000581
:010773000580
:01077400057F
:01077500057E
:01077600057D
:01077700057C
:01077800057B
:01077900057A
:01077A000579
:01077B000578
:01077C000577
:01077D000576
:01077E000575
:01077F000574
:010780000573
:010781000572
:010782000571
:010783000570
:01078400056F
:01078500056E
:01078600056D
:01078700056C
:01078800056B
:01078900056A
:01078A000569
:01078B000568
:01078C000567
:01078D000566
:01078E000565
:01078F000564
:010790000563
:010791000562
:010792000561
:010793000560
:01079400055F
:01079500055E
:01079600055D
:01079700055C
:01079800055B
:01079900055A
:01079A000559
:01079B000558
:01079C000557
:01079D000556
:01079E000555
:01079F000554
:0107A0000553
:0107A1000552
:0107A2000551
:0107A3000550
:0107A400054F
:0107A500054E
:0107A600054D
:0107A700054C
:0107A800054B
:0107A900054A
:0107AA000549
:0107AB000548
:0107AC000547
:0107AD000546
:0107AE000545
:0107AF000544
:0107B0000543
:0107B1000542
:0107B2000541
:0107B3000540
:0107B400053F
:0107B500053E
:0107B600053D
:0107B700053C
:0107B800053B
:0107B900053A
:0107BA000539
:0107BB000538
:0107BC000537
:0107BD000536
:0107BE000535
:0107BF000534
:0107C0000533
:0107C1000532
:0107C2000531
:0107C3000530
:0107C400052F
:0107C500052E
:0107C600052D
:0107C700052C
:0107C800052B
:0107C900052A
:0107CA000529
:0107CB000528
:0107CC000527
:0107CD000526
:0107CE000525
:0107CF000524
:0107D0000523
:0107D1000522
:0107D2000521
:0107D3000520
:0107D400051F
:0107D500051E
:0107D600051D
:0107D700051C
:0107D800051B
:0107D900051A
:0107DA000519
:0107DB000518
:0107DC000517
:0107DD000516
:0107DE000515
:0107DF000514
:0107E0000513
:0107E1000512
:0107E2000511
:0107E3000510
:0107E400050F
:0107E500050E
:0107E600050D
:0107E700050C
:0107E800050B
:0107E900050A
:0107EA000509
:0107EB000508
:0107EC000507
:0107ED000506
:0107EE000505
:0107EF000504
:0107F0000503
:0107F1000502
:0107F2000501
:0107F3000500
:0107F40005FF
:0107F50005FE
:0107F60005FD
:0107F70005FC
:0107F80005FB
:0107F90005FA
:0107FA0005F9
:0107FB0005F8
:0107FC0005F7
:0107FD0005F6
:0107FE0005F5
:0107FF0005F4
:00000001ff
