:020000040000FA
:0400000000000000FC
:040001003D5691E2F5
:040002003DBFBEF54B
:040003003E00F46067
:040004003E1AB47775
:040005003E2E958472
:040006003E3DC3D0E8
:040007003E49309DA1
:040008003E519DCAFE
:040009003E57A71C9B
:04000A003E5BC9BFD1
:04000B003E5E6A3FAC
:04000C003E5FD96218
:04000D003E605802F7
:04000E003E601A2C0A
:04000F003E5F499F68
:040010003E5E07D277
:040011003E5C6F8D55
:040012003E5A963E7E
:040013003E588CFCCB
:040014003E5661688B
:040015003E541E52E5
:040016003E51CC4F3C
:040017003E4F7221C5
:040018003E4D15152F
:040019003E4AB95151
:04001A003E486206F4
:04001B003E4611A9A3
:04001C003E43CA1184
:04001D003E418C9D37
:04001E003E3F5A48BF
:04001F003E3D33C16E
:040020003E3B1978D2
:040021003E390BABAE
:040022003E370A76E5
:040023003E3515D27F
:040024003E332DA595
:040025003E3151C255
:040026003E2F81EFF9
:040027003E2DBDE7C6
:040028003E2C056104
:040029003E2A580D06
:04002A003E28B5991E
:04002B003E271DB19E
:04002C003E259000DD
:04002D003E240C332E
:04002E003E2291F7E6
:04002F003E2120FA54
:040030003E1FB8ECCB
:040031003E1E598096
:040032003E1D026A03
:040033003E1BB3615C
:040034003E1A6C1FE5
:040035003E192C5FE5
:040036003E17F3E09E
:040037003E16C2644B
:040038003E1597AC2E
:040039003E14737F7F
:04003A003E1355A676
:04003B003E123DE94B
:04003C003E112C1530
:04003D003E101FFA58
:04003E003E0F1966F2
:04003F003E0E182E2B
:040040003E0D1C2530
:040041003E0C25202C
:040042003E0B32F946
:040043003E0A4587A5
:040044003E095CA66F
:040045003E087833C6
:040046003E07980BCE
:040047003E06BC0DA8
:040048003E05E41A73
:040049003E0510134D
:04004A003E043FDB56
:04004B003E037356A7
:04004C003E02AA6A5C
:04004D003E01E4FB91
:04004E003E0122F25B
:04004F003E006436D5
:040050003DFF515FC0
:040051003DFDE092FF
:040052003DFC75D923
:040053003DFB110B55
:040054003DF9B200C0
:040055003DF8589288
:040056003DF7049AD4
:040057003DF5B5F6C8
:040058003DF46C8384
:040059003DF3281F2C
:04005A003DF1E8AAE2
:04005B003DF0AE04C2
:04005C003DEF7811EB
:04005D003DEE46B17D
:04005E003DED19CA91
:04005F003DEBF14044
:040060003DEACCF9B0
:040061003DE9ACDBEE
:040062003DE890CD18
:040063003DE778B746
:040064003DE664838E
:040065003DE5541A07
:040066003DE44765C9
:040067003DE33E50E7
:040068003DE238C776
:040069003DE136B689
:04006A003DE0380934
:04006B003DDF3CAD8C
:04006C003DDE4491A0
:04006D003DDD4FA383
:04006E003DDC5DD246
:04006F003DDB6F0EF8
:040070003DDA8345AD
:040071003DD99A6972
:040072003DD8B46B56
:040073003DD7D13A6A
:040074003DD6F0CABB
:040075003DD6130D54
:040076003DD537F34A
:040077003DD45F71A4
:040078003DD3897A71
:040079003DD2B600BE
:04007A003DD1E4F898
:04007B003DD1165607
:04007C003DD04A0E1B
:04007D003DCF8016DD
:04007E003DCEB8615A
:04007F003DCDF2E59C
:040080003DCD2F99AA
:040081003DCC6E7193
:040082003DCBAF645F
:040083003DCAF26818
:040084003DCA3774C6
:040085003DC97E7E75
:040086003DC8C77E2C
:040087003DC8126BF3
:040088003DC75F3CD5
:040089003DC6ADE9DA
:04008A003DC5FE6A08
:04008B003DC550B768
:04008C003DC4A4C803
:04008D003DC3FA96DF
:04008E003DC3521903
:04008F003DC2AB497A
:040090003DC2062146
:040091003DC1629972
:040092003DC0C0A904
:040093003DC0204DFF
:040094003DBF817D6E
:040095003DBEE43256
:040096003DBE4867BC
:040097003DBDAE16A7
:040098003DBD15391C
:040099003DBC7DCA23
:04009A003DBBE7C3C0
:04009B003DBB531FF7
:04009C003DBABFD8D2
:04009D003DBA2DEA51
:04009E003DB99D4E7D
:04009F003DB90E0158
:0400A0003DB87FFCEC
:0400A1003DB7F33B39
:0400A2003DB767BA45
:0400A3003DB6DD7316
:0400A4003DB65462AF
:0400A5003DB5CC8316
:0400A6003DB545D04F
:0400A7003DB4C0475D
:0400A8003DB43BE246
:0400A9003DB3B89E0D
:0400AA003DB33676B6
:0400AB003DB2B56746
:0400AC003DB2356CC0
:0400AD003DB1B68229
:0400AE003DB138A583
:0400AF003DB0BBD1D4
:0400B0003DB040031C
:0400B1003DAFC53763
:0400B2003DAF4B69AA
:0400B3003DAED297F5
:0400B4003DAE5ABD46
:0400B5003DADE3D7A3
:0400B6003DAD6DE30C
:0400B7003DACF8DD87
:0400B8003DAC84C215
:0400B9003DAC118FBA
:0400BA003DAB9F417A
:0400BB003DAB2DD557
:0400BC003DAABD4953
:0400BD003DAA4D9972
:0400BE003DA9DEC2B8
:0400BF003DA970C225
:0400C0003DA90397BC
:0400C1003DA8973D82
:0400C2003DA82BB278
:0400C3003DA7C0F3A2
:0400C4003DA756FFFF
:0400C5003DA6EDD196
:0400C6003DA6856965
:0400C7003DA61DC372
:0400C8003DA5B6DEBE
:0400C9003DA550B64B
:0400CA003DA4EB4A1C
:0400CB003DA4869832
:0400CC003DA4229C91
:0400CD003DA3BF563A
:0400CE003DA35CC32F
:0400CF003DA2FAE173
:0400D0003DA299AD07
:0400D1003DA23926ED
:0400D2003DA1D94A29
:0400D3003DA17A17BA
:0400D4003DA11B8BA4
:0400D5003DA0BDA4E9
:0400D6003DA0606188
:0400D7003DA003BE87
:0400D8003D9FA7BBE6
:0400D9003D9F4C56A5
:0400DA003D9EF18DC9
:0400DB003D9E975E51
:0400DC003D9E3DC840
:0400DD003D9DE4C899
:0400DE003D9D8C5E5A
:0400DF003D9D348887
:0400E0003D9CDD4422
:0400E1003D9C86902C
:0400E2003D9C306BA6
:0400E3003D9BDAD394
:0400E4003D9B85C8F3
:0400E5003D9B3147C7
:0400E6003D9ADD4E14
:0400E7003D9A89DED7
:0400E8003D9A36F314
:0400E9003D99E48DCC
:0400EA003D9992ABFF
:0400EB003D99414BAF
:0400EC003D98F06BE0
:0400ED003D98A00A90
:0400EE003D985028C1
:0400EF003D9800C276
:0400F0003D97B1D8AF
:0400F1003D9763686C
:0400F2003D971572AF
:0400F3003D96C7F37C
:0400F4003D967AEAD1
:0400F5003D962E57AF
:0400F6003D95E23919
:0400F7003D95968D10
:0400F8003D954B5493
:0400F9003D95008BA6
:0400FA003D94B63249
:0400FB003D946C487C
:0400FC003D9422CC41
:0400FD003D93D9BC9A
:0400FE003D93911885
:0400FF003D9348DE07
:00000001ff
