:020000040000FA
:040000003FFFFFD7E8
:040001003F417D4EB0
:040002003E85EC1F2C
:040003003DCD3D8032
:040004003D176377CA
:040005003C64502DDA
:040006003BB3F640D2
:040007003B06482547
:040008003A5B3950D6
:0400090039B2BCF25A
:04000A00390CC6A83F
:04000B0038694AA95D
:04000C0037C83CE5D0
:04000D00372991ED11
:04000E00368D3E7B72
:04000F0035F33792FC
:04001000355B725694
:0400110034C5E44FBF
:040012003432833BC6
:0400130033A144D100
:0400140033121F99EB
:040015003285096ABD
:0400160031F9F90EB5
:040017003170E5550A
:0400180030E9C526E0
:0400190030648F952B
:04001A002FE13C0D89
:04001B002F5FC1E4AE
:04001C002EE0192891
:04001D002E623965B1
:04001E002DE61AAE03
:04001F002D6BB53B55
:040020002CF3019E1E
:040021002C7BF8310B
:040022002C06919E79
:040023002B92C6A6B0
:040024002B20907A83
:040025002AAFE80016
:040026002A40C6A204
:0400270029D325AE06
:040028002966FED176
:0400290028FC4B5B09
:04002A002893057D95
:04002B00282B26E870
:04002C0027C4A9C874
:04002D00275F8818A9
:04002E0026FBBC28C9
:04002F002699404688
:0400300026380F203F
:0400310025D8235556
:04003200257977496C
:04003300251C061D65
:0400340024BFCA7C9F
:040035002464BFC1BF
:04003600240AE09B1D
:0400370023B2288345
:04003800235A927D38
:0400390023041A3250
:04003A0022AEBB0334
:04003B00225A707362
:04003C002207365110
:04003D0021B507EBF7
:04003E002163E184D5
:04003F002113BED2F9
:0400400020C49B90AD
:04004100207674228F
:0400420020294472BB
:040043001FDD088B2A
:040044001F91BD2229
:040045001F475E0CE7
:040046001EFDE7C1F3
:040047001EB5570C7F
:040048001E6DA8037E
:040049001E26D76038
:04004A001DE0E211C2
:04004B001D9BC43EF7
:04004C001D577B13AE
:04004D001D14034A31
:04004E001CD159D692
:04004F001C8F7B4146
:040050001C4E6508D5
:040051001C0E13F579
:040052001BCE8542FA
:040053001B8FB5C189
:040054001B51A2FC9E
:040055001B144A1915
:040056001AD7A839D4
:040057001A9BBB0233
:040058001A607FA704
:040059001A25F383EE
:04005A0019EC143C4D
:04005B0019B2DF15E2
:04005C00197A51F9C3
:04005D0019426A1FBB
:04005E00190B256EE7
:04005F0018D4819F91
:04006000189E7C4B1F
:0400610018691317F0
:04006200183443F714
:0400630018000CE98C
:0400640017CC6B88C2
:0400650017995DC4C6
:040066001766E1D761
:040067001734F5460F
:04006800170396588C
:0400690016D2C311D7
:04006A0016A279A7BA
:04006B001672B7F062
:04006C0016437C506B
:04006D001614C4D3CE
:04006E0015E68FB54F
:04006F0015B8DB13D2
:04007000158BA566E1
:04007100155EECC06C
:040072001532AF682C
:040073001506EC0B77
:0400740014DBA0C732
:0400750014B0CC12E5
:0400760014866C4E32
:04007700145C7FCEC8
:0400780014330566D2
:040079001409FB2E3D
:04007A0013E15FDE51
:04007B0013B9320D76
:04007C001391704626
:04007D00136A18FFEB
:04007E0013432ABA44
:04007F00131CA49416
:0400800012F684CA26
:0400810012D0CA0EC1
:0400820012AB733218
:0400830012867EEC77
:040084001261EBCB4F
:04008500123DB8E789
:040086001219E496D1
:0400870011F66DFB06
:0400880011D353BA83
:0400890011B094EE30
:04008A00118E2FFCA8
:04008B00116C2400D0
:04008C00114A6FE0C6
:04008D001129127EA5
:04008E0011080AA5A6
:04008F0010E7575EC1
:0400900010C6F7A4FB
:0400910010A6EA5C6F
:0400920010872E7431
:040093001067C32F00
:040094001048A72643
:040095001029D9B4A1
:04009600100B599D55
:040097000FED263D06
:040098000FCF3E58F0
:040099000FB1A13FC3
:04009A000F944DDA98
:04009B000F77435A3E
:04009C000F5A80E394
:04009D000F3E05A469
:04009E000F21D083DB
:04009F000F05E0E584
:0400A0000EEA35D05F
:0400A1000ECECE8928
:0400A2000EB3AA519E
:0400A3000E98C829C2
:0400A4000E7E277431
:0400A5000E63C767B8
:0400A6000E49A73325
:0400A7000E2FC5F95A
:0400A8000E16233CD1
:0400A9000DFCBE107C
:0400AA000DE395A22B
:0400AB000DCAA99C35
:0400AC000DB1F8EBAF
:0400AD000D9983190D
:0400AE000D81477306
:0400AF000D69454B47
:0400B0000D517BCDA6
:0400B1000D39EA7BA0
:0400B2000D2290800B
:0400B3000D0B6D7351
:0400B4000CF480A622
:0400B5000CDDC97520
:0400B6000CC7472C00
:0400B7000CB0F96030
:0400B8000C9ADF536C
:0400B9000C84F86D4E
:0400BA000C6F443D46
:0400BB000C59C22CEE
:0400BC000C44715C23
:0400BD000C2F51A112
:0400BE000C1A625D59
:0400BF000C05A2C0CA
:0400C0000BF1129A94
:0400C1000BDCB1594A
:0400C2000BC87E36B3
:0400C3000BB478C141
:0400C4000BA0A0BD30
:0400C5000B8CF56447
:0400C6000B797656E6
:0400C7000B6622FDA5
:0400C8000B52FB07D5
:0400C9000B3FFDF5F7
:0400CA000B2D2B16B9
:0400CB000B1A821377
:0400CC000B0802AD6E
:0400CD000AF5AC5A2A
:0400CE000AE37E5073
:0400CF000AD178A832
:0400D0000ABF9A8148
:0400D1000AADE3B0E1
:0400D2000A9C53B47D
:0400D3000A8AEA3F6C
:0400D4000A79A6A956
:0400D5000A6888C26B
:0400D6000A57901223
:0400D7000A46BC2BEE
:0400D8000A360CB325
:0400D9000A25816112
:0400DA000A15197575
:0400DB000A04D50C32
:0400DC0009F4B395DB
:0400DD0009E4B491ED
:0400DE0009D4D7CAA0
:0400DF0009C51CD55E
:0400E00009B5836C6F
:0400E10009A60B2140
:0400E2000996B3A325
:0400E30009877C8687
:0400E4000978659F93
:0400E50009696E79BE
:0400E600095A96CF4E
:0400E700094BDE3DA6
:0400E800093D448EFC
:0400E900092EC9749F
:0400EA0009206C8BF2
:0400EB0009122D4C7D
:0400EC0009040BCA2E
:0400ED0008F607B357
:0400EE0008E820837B
:0400EF0008DA55FADC
:0400F00008CCA7DCB5
:0400F10008BF15E748
:0400F20008B19FD6DC
:0400F30008A44535E3
:0400F400089705F470
:0400F5000889E1B4E1
:0400F600087CD83D6D
:0400F700086FE95154
:0400F800086314770E
:0400F900085659AAA2
:0400FA000849B89069
:0400FB00083D30FB91
:0400FC000830C28383
:0400FD0008246CFA6D
:0400FE000818304C62
:0400FF00080C0C09D4
:00000001ff
