:020000040000FA
:010000000FF0
:010001000FEF
:010002000FEE
:010003000FED
:010004000FEC
:010005000FEB
:010006000FEA
:010007000FE9
:010008000FE8
:010009000FE7
:01000A000FE6
:01000B000EE6
:01000C000EE5
:01000D000EE4
:01000E000EE3
:01000F000EE2
:010010000EE1
:010011000EE0
:010012000EDF
:010013000EDE
:010014000DDE
:010015000DDD
:010016000DDC
:010017000DDB
:010018000DDA
:010019000CDA
:01001A000CD9
:01001B000CD8
:01001C000CD7
:01001D000CD6
:01001E000BD6
:01001F000BD5
:010020000BD4
:010021000BD3
:010022000AD3
:010023000AD2
:010024000AD1
:010025000AD0
:0100260009D0
:0100270009CF
:0100280009CE
:0100290008CE
:01002A0008CD
:01002B0008CC
:01002C0007CC
:01002D0007CB
:01002E0007CA
:01002F0006CA
:0100300006C9
:0100310006C8
:0100320005C8
:0100330005C7
:0100340004C7
:0100350004C6
:0100360004C5
:0100370003C5
:0100380003C4
:0100390002C4
:01003A0002C3
:01003B0001C3
:01003C0001C2
:01003D0000C2
:01003E0000C1
:01003F0000C0
:010040001FA0
:010041001F9F
:010042001E9F
:010043001E9E
:010044001D9E
:010045001C9E
:010046001C9D
:010047001B9D
:010048001B9C
:010049001A9C
:01004A001A9B
:01004B00199B
:01004C00199A
:01004D00189A
:01004E00179A
:01004F001799
:010050001699
:010051001698
:010052001598
:010053001498
:010054001497
:010055001397
:010056001297
:010057001296
:010058001196
:010059001096
:01005A001095
:01005B000F95
:01005C000E95
:01005D000E94
:01005E000D94
:01005F000C94
:010060000B94
:010061000B93
:010062000A93
:010063000993
:010064000992
:010065000892
:010066000792
:010067000692
:010068000592
:010069000591
:01006A000491
:01006B000391
:01006C000291
:01006D000191
:01006E000190
:01006F000090
:010070001F70
:010071001E70
:010072001D70
:010073001C70
:010074001B70
:010075001B6F
:010076001A6F
:01007700196F
:01007800186F
:01007900176F
:01007A00166F
:01007B00156F
:01007C00146F
:01007D00136F
:01007E00126F
:01007F00116F
:01008000106F
:01008100106E
:010082000F6E
:010083000E6E
:010084000D6E
:010085000C6E
:010086000B6E
:010087000A6E
:01008800096E
:01008900086E
:01008A00076E
:01008B00056F
:01008C00046F
:01008D00036F
:01008E00026F
:01008F00016F
:01009000006F
:010091001F4F
:010092001E4F
:010093001D4F
:010094001C4F
:010095001B4F
:010096001A4F
:01009700194F
:010098001750
:010099001650
:01009A001550
:01009B001450
:01009C001350
:01009D001250
:01009E001150
:01009F000F51
:0100A0000E51
:0100A1000D51
:0100A2000C51
:0100A3000B51
:0100A4000952
:0100A5000852
:0100A6000752
:0100A7000652
:0100A8000453
:0100A9000353
:0100AA000253
:0100AB000153
:0100AC001F34
:0100AD001E34
:0100AE001D34
:0100AF001C34
:0100B0001A35
:0100B1001935
:0100B2001835
:0100B3001636
:0100B4001536
:0100B5001436
:0100B6001237
:0100B7001137
:0100B8001037
:0100B9000E38
:0100BA000D38
:0100BB000C38
:0100BC000A39
:0100BD000939
:0100BE000839
:0100BF00063A
:0100C000053A
:0100C100033B
:0100C200023B
:0100C300003C
:0100C4001F1C
:0100C5001E1C
:0100C6001C1D
:0100C7001B1D
:0100C800191E
:0100C900181E
:0100CA00161F
:0100CB00151F
:0100CC001320
:0100CD001220
:0100CE001021
:0100CF000F21
:0100D0000D22
:0100D1000C22
:0100D2000A23
:0100D3000923
:0100D4000724
:0100D5000624
:0100D6000425
:0100D7000325
:0100D8000126
:0100D9001F07
:0100DA001E07
:0100DB001C08
:0100DC001B08
:0100DD001909
:0100DE001809
:0100DF00160A
:0100E000140B
:0100E100130B
:0100E200110C
:0100E3000F0D
:0100E4000E0D
:0100E5000C0E
:0100E6000A0F
:0100E700090F
:0100E8000710
:0100E9000511
:0100EA000411
:0100EB000212
:0100EC000013
:0100ED001FF3
:0100EE001DF4
:0100EF001BF5
:0100F00019F6
:0100F10018F6
:0100F20016F7
:0100F30014F8
:0100F40013F8
:0100F50011F9
:0100F6000FFA
:0100F7000DFB
:0100F8000BFC
:0100F9000AFC
:0100FA0008FD
:0100FB0006FE
:0100FC0004FF
:0100FD000200
:0100FE000100
:0100FF001FE1
:010100001DE1
:010101001BE2
:0101020019E3
:0101030017E4
:0101040016E4
:0101050014E5
:0101060012E6
:0101070010E7
:010108000EE8
:010109000CE9
:01010A000AEA
:01010B0008EB
:01010C0007EB
:01010D0005EC
:01010E0003ED
:01010F0001EE
:010110001FCF
:010111001DD0
:010112001BD1
:0101130019D2
:0101140017D3
:0101150015D4
:0101160013D5
:0101170011D6
:010118000FD7
:010119000DD8
:01011A000BD9
:01011B0009DA
:01011C0007DB
:01011D0005DC
:01011E0003DD
:01011F0001DE
:010120001FBF
:010121001DC0
:010122001BC1
:0101230019C2
:0101240017C3
:0101250015C4
:0101260013C5
:0101270011C6
:010128000EC8
:010129000CC9
:01012A000ACA
:01012B0008CB
:01012C0006CC
:01012D0004CD
:01012E0002CE
:01012F0000CF
:010130001EB0
:010131001BB2
:0101320019B3
:0101330017B4
:0101340015B5
:0101350013B6
:0101360011B7
:010137000EB9
:010138000CBA
:010139000ABB
:01013A0008BC
:01013B0006BD
:01013C0003BF
:01013D0001C0
:01013E001FA1
:01013F001DA2
:010140001AA4
:0101410018A5
:0101420016A6
:0101430014A7
:0101440011A9
:010145000FAA
:010146000DAB
:010147000BAC
:0101480008AE
:0101490006AF
:01014A0004B0
:01014B0001B2
:01014C001F93
:01014D001D94
:01014E001A96
:01014F001897
:010150001698
:01015100139A
:01015200119B
:010153000F9C
:010154000C9E
:010155000A9F
:0101560008A0
:0101570005A2
:0101580003A3
:0101590000A5
:01015A001E86
:01015B001C87
:01015C001989
:01015D00178A
:01015E00148C
:01015F00128D
:010160000F8F
:010161000D90
:010162000B91
:010163000893
:010164000694
:010165000396
:010166000197
:010167001E79
:010168001C7A
:01016900197C
:01016A00177D
:01016B00147F
:01016C001280
:01016D000F82
:01016E000D83
:01016F000A85
:010170000886
:010171000588
:01017200028A
:01017300008B
:010174001D6D
:010175001B6E
:010176001870
:010177001671
:010178001373
:010179001075
:01017A000E76
:01017B000B78
:01017C000979
:01017D00067B
:01017E00037D
:01017F00017E
:010180001E60
:010181001C61
:010182001963
:010183001665
:010184001466
:010185001168
:010186000E6A
:010187000C6B
:01018800096D
:01018900066F
:01018A000371
:01018B000172
:01018C001E54
:01018D001B56
:01018E001957
:01018F001659
:01019000135B
:01019100105D
:010192000E5E
:010193000B60
:010194000862
:010195000564
:010196000365
:010197000067
:010198001D49
:010199001A4B
:01019A00184C
:01019B00154E
:01019C001250
:01019D000F52
:01019E000C54
:01019F000A55
:0101A0000757
:0101A1000459
:0101A200015B
:0101A3001E3D
:0101A4001B3F
:0101A5001841
:0101A6001642
:0101A7001344
:0101A8001046
:0101A9000D48
:0101AA000A4A
:0101AB00074C
:0101AC00044E
:0101AD000150
:0101AE001F31
:0101AF001C33
:0101B0001935
:0101B1001637
:0101B2001339
:0101B300103B
:0101B4000D3D
:0101B5000A3F
:0101B6000741
:0101B7000443
:0101B8000145
:0101B9001E27
:0101BA001B29
:0101BB00182B
:0101BC00152D
:0101BD00122F
:0101BE000F31
:0101BF000C33
:0101C0000935
:0101C1000637
:0101C2000339
:0101C300003B
:0101C4001D1D
:0101C5001A1F
:0101C6001721
:0101C7001423
:0101C8001125
:0101C9000E27
:0101CA000B29
:0101CB00082B
:0101CC00052D
:0101CD000130
:0101CE001E12
:0101CF001B14
:0101D0001816
:0101D1001518
:0101D200121A
:0101D3000F1C
:0101D4000C1E
:0101D5000920
:0101D6000523
:0101D7000225
:0101D8001F07
:0101D9001C09
:0101DA00190B
:0101DB00160D
:0101DC001210
:0101DD000F12
:0101DE000C14
:0101DF000916
:0101E0000618
:0101E100021B
:0101E2001FFD
:0101E3001CFF
:0101E4001901
:0101E5001603
:0101E6001206
:0101E7000F08
:0101E8000C0A
:0101E900090C
:0101EA00050F
:0101EB000211
:0101EC001FF3
:0101ED001CF5
:0101EE0018F8
:0101EF0015FA
:0101F00012FC
:0101F1000EFF
:0101F2000B01
:0101F3000803
:0101F4000505
:0101F5000108
:0101F6001EEA
:0101F7001BEC
:0101F80017EF
:0101F90014F1
:0101FA0011F3
:0101FB000DF6
:0101FC000AF8
:0101FD0006FB
:0101FE0003FD
:0101FF0000FF
:010200001CE1
:0102010019E3
:0102020016E5
:0102030012E8
:010204000FEA
:010205000BED
:0102060008EF
:0102070005F1
:0102080001F4
:010209001ED6
:01020A001AD9
:01020B0017DB
:01020C0013DE
:01020D0010E0
:01020E000CE3
:01020F0009E5
:0102100006E7
:0102110002EA
:010212001FCC
:010213001BCF
:0102140018D1
:0102150014D4
:0102160011D6
:010217000DD9
:010218000ADB
:0102190006DE
:01021A0003E0
:01021B001FC3
:01021C001CC5
:01021D0018C8
:01021E0014CB
:01021F0011CD
:010220000DD0
:010221000AD2
:0102220006D5
:0102230003D7
:010224001FBA
:010225001BBD
:0102260018BF
:0102270014C2
:0102280011C4
:010229000DC7
:01022A0009CA
:01022B0006CC
:01022C0002CF
:01022D001FB1
:01022E001BB4
:01022F0017B7
:0102300014B9
:0102310010BC
:010232000CBF
:0102330009C1
:0102340005C4
:0102350001C7
:010236001EA9
:010237001AAC
:0102380016AF
:0102390013B1
:01023A000FB4
:01023B000BB7
:01023C0008B9
:01023D0004BC
:01023E0000BF
:01023F001CA2
:0102400019A4
:0102410015A7
:0102420011AA
:010243000DAD
:010244000AAF
:0102450006B2
:0102460002B5
:010247001E98
:010248001B9A
:01024900179D
:01024A0013A0
:01024B000FA3
:01024C000CA5
:01024D0008A8
:01024E0004AB
:01024F0000AE
:010250001C91
:010251001894
:010252001596
:010253001199
:010254000D9C
:01025500099F
:0102560005A2
:0102570001A5
:010258001E87
:010259001A8A
:01025A00168D
:01025B001290
:01025C000E93
:01025D000A96
:01025E000699
:01025F00029C
:010260001F7E
:010261001B81
:010262001784
:010263001387
:010264000F8A
:010265000B8D
:010266000790
:010267000393
:010268001F76
:010269001B79
:01026A00177C
:01026B00137F
:01026C000F82
:01026D000B85
:01026E000788
:01026F00038B
:010270001F6E
:010271001B71
:010272001774
:010273001377
:010274000F7A
:010275000B7D
:010276000780
:010277000383
:010278001F66
:010279001B69
:01027A00176C
:01027B00136F
:01027C000F72
:01027D000B75
:01027E000778
:01027F00037B
:010280001F5E
:010281001B61
:010282001764
:010283001367
:010284000F6A
:010285000B6D
:010286000671
:010287000274
:010288001E57
:010289001A5A
:01028A00165D
:01028B001260
:01028C000E63
:01028D000A66
:01028E00056A
:01028F00016D
:010290001D50
:010291001953
:010292001556
:010293001159
:010294000C5D
:010295000860
:010296000463
:010297000066
:010298001C49
:01029900184C
:01029A001350
:01029B000F53
:01029C000B56
:01029D000759
:01029E00025D
:01029F001E40
:0102A0001A43
:0102A1001646
:0102A2001249
:0102A3000D4D
:0102A4000950
:0102A5000553
:0102A6000156
:0102A7001C3A
:0102A800183D
:0102A9001440
:0102AA000F44
:0102AB000B47
:0102AC00074A
:0102AD00034D
:0102AE001E31
:0102AF001A34
:0102B0001637
:0102B100113B
:0102B2000D3E
:0102B3000941
:0102B4000445
:0102B5000048
:0102B6001C2B
:0102B700172F
:0102B8001332
:0102B9000F35
:0102BA000A39
:0102BB00063C
:0102BC000140
:0102BD001D23
:0102BE001926
:0102BF00142A
:0102C000102D
:0102C1000C30
:0102C2000734
:0102C3000337
:0102C4001E1B
:0102C5001A1E
:0102C6001522
:0102C7001125
:0102C8000D28
:0102C900082C
:0102CA00042F
:0102CB001F13
:0102CC001B16
:0102CD00161A
:0102CE00121D
:0102CF000D21
:0102D0000924
:0102D1000428
:0102D200002B
:0102D3001B0F
:0102D4001712
:0102D5001216
:0102D6000E19
:0102D700091D
:0102D8000520
:0102D9000024
:0102DA001C07
:0102DB00170B
:0102DC00130E
:0102DD000E12
:0102DE000A15
:0102DF000519
:0102E000011C
:0102E1001C00
:0102E2001803
:0102E3001307
:0102E4000E0B
:0102E5000A0E
:0102E6000512
:0102E7000115
:0102E8001CF9
:0102E90017FD
:0102EA001300
:0102EB000E04
:0102EC000A07
:0102ED00050B
:0102EE00000F
:0102EF001CF2
:0102F00017F6
:0102F10012FA
:0102F2000EFD
:0102F3000901
:0102F4000504
:0102F5000008
:0102F6001BEC
:0102F70017EF
:0102F80012F3
:0102F9000DF7
:0102FA0009FA
:0102FB0004FE
:0102FC001FE2
:0102FD001AE6
:0102FE0016E9
:0102FF0011ED
:010300000CF0
:0103010008F3
:0103020003F7
:010303001EDB
:0103040019DF
:0103050015E2
:0103060010E6
:010307000BEA
:0103080006EE
:0103090002F1
:01030A001DD5
:01030B0018D9
:01030C0013DD
:01030D000FE0
:01030E000AE4
:01030F0005E8
:0103100000EC
:010311001CCF
:0103120017D3
:0103130012D7
:010314000DDB
:0103150008DF
:0103160003E3
:010317001FC6
:010318001ACA
:0103190015CE
:01031A0010D2
:01031B000BD6
:01031C0006DA
:01031D0002DD
:01031E001DC1
:01031F0018C5
:0103200013C9
:010321000ECD
:0103220009D1
:0103230004D5
:0103240000D8
:010325001BBC
:0103260016C0
:0103270011C4
:010328000CC8
:0103290007CC
:01032A0002D0
:01032B001DB4
:01032C0018B8
:01032D0013BC
:01032E000EC0
:01032F000AC3
:0103300005C7
:0103310000CB
:010332001BAF
:0103330016B3
:0103340011B7
:010335000CBB
:0103360007BF
:0103370002C3
:010338001DA7
:0103390018AB
:01033A0013AF
:01033B000EB3
:01033C0009B7
:01033D0004BB
:01033E001F9F
:01033F001AA3
:0103400015A7
:0103410010AB
:010342000BAF
:0103430006B3
:0103440001B7
:010345001C9B
:01034600179F
:0103470012A3
:010348000DA7
:0103490008AB
:01034A0003AF
:01034B001D94
:01034C001898
:01034D00139C
:01034E000EA0
:01034F0009A4
:0103500004A8
:010351001F8C
:010352001A90
:010353001594
:010354001098
:010355000B9C
:0103560005A1
:0103570000A5
:010358001B89
:01035900168D
:01035A001191
:01035B000C95
:01035C000799
:01035D00019E
:01035E001C82
:01035F001786
:01036000128A
:010361000D8E
:010362000892
:010363000297
:010364001D7B
:01036500187F
:010366001383
:010367000E87
:01036800098B
:010369000390
:01036A001E74
:01036B001978
:01036C00147C
:01036D000E81
:01036E000985
:01036F000489
:010370001F6D
:010371001972
:010372001476
:010373000F7A
:010374000A7E
:010375000483
:010376001F67
:010377001A6B
:01037800156F
:010379000F74
:01037A000A78
:01037B00057C
:01037C000080
:01037D001A65
:01037E001569
:01037F00106D
:010380000A72
:010381000576
:01038200007A
:010383001A5F
:010384001563
:010385001067
:010386000A6C
:010387000570
:010388000074
:010389001A59
:01038A00155D
:01038B001061
:01038C000A66
:01038D00056A
:01038E00006E
:01038F001A53
:010390001557
:010391000F5C
:010392000A60
:010393000564
:010394001F49
:010395001A4D
:010396001452
:010397000F56
:010398000A5A
:01039900045F
:01039A001F43
:01039B001948
:01039C00144C
:01039D000E51
:01039E000955
:01039F00035A
:0103A0001E3E
:0103A1001942
:0103A2001347
:0103A3000E4B
:0103A4000850
:0103A5000354
:0103A6001D39
:0103A700183D
:0103A8001242
:0103A9000D46
:0103AA00074B
:0103AB00024F
:0103AC001C34
:0103AD001738
:0103AE00113D
:0103AF000C41
:0103B0000646
:0103B100014A
:0103B2001B2F
:0103B3001633
:0103B4001038
:0103B5000A3D
:0103B6000541
:0103B7001F26
:0103B8001A2A
:0103B900142F
:0103BA000F33
:0103BB000938
:0103BC00043C
:0103BD001E21
:0103BE001826
:0103BF00132A
:0103C0000D2F
:0103C1000833
:0103C2000238
:0103C3001C1D
:0103C4001721
:0103C5001126
:0103C6000B2B
:0103C700062F
:0103C8000034
:0103C9001B18
:0103CA00151D
:0103CB000F22
:0103CC000A26
:0103CD00042B
:0103CE001E10
:0103CF001914
:0103D0001319
:0103D1000D1E
:0103D2000822
:0103D3000227
:0103D4001C0C
:0103D5001710
:0103D6001115
:0103D7000B1A
:0103D800061E
:0103D9000023
:0103DA001A08
:0103DB00140D
:0103DC000F11
:0103DD000916
:0103DE00031B
:0103DF001EFF
:0103E0001804
:0103E1001209
:0103E2000C0E
:0103E3000712
:0103E4000117
:0103E5001BFC
:0103E6001501
:0103E7001005
:0103E8000A0A
:0103E900040F
:0103EA001EF4
:0103EB0018F9
:0103EC0013FD
:0103ED000D02
:0103EE000707
:0103EF00010C
:0103F0001BF1
:0103F10016F5
:0103F20010FA
:0103F3000AFF
:0103F4000404
:0103F5001EE9
:0103F60019ED
:0103F70013F2
:0103F8000DF7
:0103F90007FC
:0103FA000101
:0103FB001BE6
:0103FC0015EB
:0103FD0010EF
:0103FE000AF4
:0103FF0004F9
:010400001EDD
:0104010018E2
:0104020012E7
:010403000CEC
:0104040006F1
:0104050001F5
:010406001BDA
:0104070015DF
:010408000FE4
:0104090009E9
:01040A0003EE
:01040B001DD3
:01040C0017D8
:01040D0011DD
:01040E000BE2
:01040F0005E7
:010410001FCC
:010411001AD0
:0104120014D5
:010413000EDA
:0104140008DF
:0104150002E4
:010416001CC9
:0104170016CE
:0104180010D3
:010419000AD8
:01041A0004DD
:01041B001EC2
:01041C0018C7
:01041D0012CC
:01041E000CD1
:01041F0006D6
:0104200000DB
:010421001AC0
:0104220014C5
:010423000ECA
:0104240008CF
:0104250002D4
:010426001CB9
:0104270016BE
:0104280010C3
:010429000AC8
:01042A0004CD
:01042B001EB2
:01042C0017B8
:01042D0011BD
:01042E000BC2
:01042F0005C7
:010430001FAC
:0104310019B1
:0104320013B6
:010433000DBB
:0104340007C0
:0104350001C5
:010436001BAA
:0104370015AF
:010438000EB5
:0104390008BA
:01043A0002BF
:01043B001CA4
:01043C0016A9
:01043D0010AE
:01043E000AB3
:01043F0004B8
:010440001D9E
:0104410017A3
:0104420011A8
:010443000BAD
:0104440005B2
:010445001F97
:01044600199C
:0104470012A2
:010448000CA7
:0104490006AC
:01044A0000B1
:01044B001A96
:01044C00139C
:01044D000DA1
:01044E0007A6
:01044F0001AB
:010450001B90
:010451001496
:010452000E9B
:0104530008A0
:0104540002A5
:010455001C8A
:010456001590
:010457000F95
:01045800099A
:01045900039F
:01045A001C85
:01045B00168A
:01045C00108F
:01045D000A94
:01045E00039A
:01045F001D7F
:010460001784
:010461001189
:010462000A8F
:010463000494
:010464001E79
:01046500177F
:010466001184
:010467000B89
:01046800048F
:010469001E74
:01046A001879
:01046B00127E
:01046C000B84
:01046D000589
:01046E001F6E
:01046F001874
:010470001279
:010471000C7E
:010472000584
:010473001F69
:01047400196E
:010475001274
:010476000C79
:01047700057F
:010478001F64
:010479001969
:01047A00126F
:01047B000C74
:01047C000679
:01047D001F5F
:01047E001964
:01047F00126A
:010480000C6F
:010481000674
:010482001F5A
:01048300195F
:010484001265
:010485000C6A
:01048600066F
:010487001F55
:01048800195A
:010489001260
:01048A000C65
:01048B00056B
:01048C001F50
:01048D001856
:01048E00125B
:01048F000C60
:010490000566
:010491001F4B
:010492001851
:010493001256
:010494000B5C
:010495000561
:010496001E47
:01049700184C
:010498001152
:010499000B57
:01049A00045D
:01049B001E42
:01049C001748
:01049D00114D
:01049E000A53
:01049F000458
:0104A0001D3E
:0104A1001743
:0104A2001049
:0104A300094F
:0104A4000354
:0104A5001C3A
:0104A600163F
:0104A7000F45
:0104A800094A
:0104A9000250
:0104AA001C35
:0104AB00153B
:0104AC000E41
:0104AD000846
:0104AE00014C
:0104AF001B31
:0104B0001437
:0104B1000E3C
:0104B2000742
:0104B3000048
:0104B4001A2D
:0104B5001333
:0104B6000D38
:0104B700063E
:0104B8001F24
:0104B9001929
:0104BA00122F
:0104BB000B35
:0104BC00053A
:0104BD001E20
:0104BE001726
:0104BF00112B
:0104C0000A31
:0104C1000436
:0104C2001D1C
:0104C3001622
:0104C4001027
:0104C500092D
:0104C6000233
:0104C7001B19
:0104C800151E
:0104C9000E24
:0104CA00072A
:0104CB00012F
:0104CC001A15
:0104CD00131B
:0104CE000D20
:0104CF000626
:0104D0001F0C
:0104D1001812
:0104D2001217
:0104D3000B1D
:0104D4000423
:0104D5001E08
:0104D600170E
:0104D7001014
:0104D800091A
:0104D900031F
:0104DA001C05
:0104DB00150B
:0104DC000E11
:0104DD000816
:0104DE00011C
:0104DF001A02
:0104E0001308
:0104E1000C0E
:0104E2000613
:0104E3001FF9
:0104E40018FF
:0104E5001105
:0104E6000B0A
:0104E7000410
:0104E8001DF6
:0104E90016FC
:0104EA000F02
:0104EB000808
:0104EC00020D
:0104ED001BF3
:0104EE0014F9
:0104EF000DFF
:0104F0000605
:0104F1001FEB
:0104F20019F0
:0104F30012F6
:0104F4000BFC
:0104F5000402
:0104F6001DE8
:0104F70016EE
:0104F80010F3
:0104F90009F9
:0104FA0002FF
:0104FB001BE5
:0104FC0014EB
:0104FD000DF1
:0104FE0006F7
:0104FF001FDD
:0105000018E2
:0105010012E7
:010502000BED
:0105030004F3
:010504001DD9
:0105050016DF
:010506000FE5
:0105070008EB
:0105080001F1
:010509001AD7
:01050A0013DD
:01050B000CE3
:01050C0005E9
:01050D001ECF
:01050E0017D5
:01050F0011DA
:010510000AE0
:0105110003E6
:010512001CCC
:0105130015D2
:010514000ED8
:0105150007DE
:0105160000E4
:0105170019CA
:0105180012D0
:010519000BD6
:01051A0004DC
:01051B001DC2
:01051C0016C8
:01051D000FCE
:01051E0008D4
:01051F0001DA
:010520001AC0
:0105210013C6
:010522000CCC
:0105230005D2
:010524001EB8
:0105250017BE
:0105260010C4
:0105270009CA
:0105280001D1
:010529001AB7
:01052A0013BD
:01052B000CC3
:01052C0005C9
:01052D001EAF
:01052E0017B5
:01052F0010BB
:0105300009C1
:0105310002C7
:010532001BAD
:0105330014B3
:010534000DB9
:0105350006BF
:010536001EA6
:0105370017AC
:0105380010B2
:0105390009B8
:01053A0002BE
:01053B001BA4
:01053C0014AA
:01053D000DB0
:01053E0006B6
:01053F001E9D
:0105400017A3
:0105410010A9
:0105420009AF
:0105430002B5
:010544001B9B
:0105450014A1
:010546000CA8
:0105470005AE
:010548001E94
:01054900179A
:01054A0010A0
:01054B0009A6
:01054C0001AD
:01054D001A93
:01054E001399
:01054F000C9F
:0105500005A5
:010551001D8C
:010552001692
:010553000F98
:01055400089E
:0105550001A4
:01055600198B
:010557001291
:010558000B97
:01055900049D
:01055A001C84
:01055B00158A
:01055C000E90
:01055D000796
:01055E00009C
:01055F001883
:010560001189
:010561000A8F
:010562000395
:010563001B7C
:010564001482
:010565000D88
:01056600058F
:010567001E75
:01056800177B
:010569001081
:01056A000888
:01056B00018E
:01056C001A74
:01056D00127B
:01056E000B81
:01056F000487
:010570001D6D
:010571001574
:010572000E7A
:010573000780
:010574001F67
:01057500186D
:010576001173
:01057700097A
:010578000280
:010579001B66
:01057A00136D
:01057B000C73
:01057C000579
:01057D001D60
:01057E001666
:01057F000E6D
:010580000773
:010581000079
:010582001860
:010583001166
:010584000A6C
:010585000273
:010586001B59
:010587001360
:010588000C66
:01058900056C
:01058A001D53
:01058B001659
:01058C000E60
:01058D000766
:01058E00006C
:01058F001853
:010590001159
:010591000960
:010592000266
:010593001A4D
:010594001353
:010595000C59
:010596000460
:010597001D46
:01059800154D
:010599000E53
:01059A00065A
:01059B001F40
:01059C001747
:01059D00104D
:01059E000854
:01059F00015A
:0105A0001941
:0105A1001247
:0105A2000B4D
:0105A3000354
:0105A4001C3A
:0105A5001441
:0105A6000D47
:0105A700054E
:0105A8001E34
:0105A900163B
:0105AA000E42
:0105AB000748
:0105AC001F2F
:0105AD001835
:0105AE00103C
:0105AF000942
:0105B0000149
:0105B1001A2F
:0105B2001236
:0105B3000B3C
:0105B4000343
:0105B5001C29
:0105B6001430
:0105B7000C37
:0105B800053D
:0105B9001D24
:0105BA00162A
:0105BB000E31
:0105BC000737
:0105BD001F1E
:0105BE001725
:0105BF00102B
:0105C0000832
:0105C1000138
:0105C200191F
:0105C3001126
:0105C4000A2C
:0105C5000233
:0105C6001B19
:0105C7001320
:0105C8000B27
:0105C900042D
:0105CA001C14
:0105CB00151A
:0105CC000D21
:0105CD000528
:0105CE001E0E
:0105CF001615
:0105D0000E1C
:0105D1000722
:0105D2001F09
:0105D3001710
:0105D4001016
:0105D500081D
:0105D6000024
:0105D700190A
:0105D8001111
:0105D9000918
:0105DA00021E
:0105DB001A05
:0105DC00120C
:0105DD000B12
:0105DE000319
:0105DF001B00
:0105E0001406
:0105E1000C0D
:0105E2000414
:0105E3001CFB
:0105E4001501
:0105E5000D08
:0105E600050F
:0105E7001EF5
:0105E80016FC
:0105E9000E03
:0105EA00060A
:0105EB001FF0
:0105EC0017F7
:0105ED000FFE
:0105EE000705
:0105EF00000B
:0105F00018F2
:0105F10010F9
:0105F2000800
:0105F3000106
:0105F40019ED
:0105F50011F4
:0105F60009FB
:0105F7000102
:0105F8001AE8
:0105F90012EF
:0105FA000AF6
:0105FB0002FD
:0105FC001BE3
:0105FD0013EA
:0105FE000BF1
:0105FF0003F8
:010600001BDE
:0106010013E5
:010602000CEB
:0106030004F2
:010604001CD9
:0106050014E0
:010606000CE7
:0106070005ED
:010608001DD4
:0106090015DB
:01060A000DE2
:01060B0005E9
:01060C001DD0
:01060D0015D7
:01060E000EDD
:01060F0006E4
:010610001ECB
:0106110016D2
:010612000ED9
:0106130006E0
:010614001EC7
:0106150017CD
:010616000FD4
:0106170007DB
:010618001FC2
:0106190017C9
:01061A000FD0
:01061B0007D7
:01061C001FBE
:01061D0017C5
:01061E000FCC
:01061F0008D2
:0106200000D9
:0106210018C0
:0106220010C7
:0106230008CE
:0106240000D5
:0106250018BC
:0106260010C3
:0106270008CA
:0106280000D1
:0106290018B8
:01062A0010BF
:01062B0008C6
:01062C0000CD
:01062D0018B4
:01062E0010BB
:01062F0008C2
:0106300000C9
:0106310018B0
:0106320011B6
:0106330009BD
:0106340001C4
:0106350019AB
:0106360011B2
:0106370009B9
:0106380001C0
:0106390019A7
:01063A0011AE
:01063B0009B5
:01063C0001BC
:01063D0019A3
:01063E0011AA
:01063F0009B1
:0106400000B9
:0106410018A0
:0106420010A7
:0106430008AE
:0106440000B5
:01064500189C
:0106460010A3
:0106470008AA
:0106480000B1
:010649001898
:01064A00109F
:01064B0008A6
:01064C0000AD
:01064D001894
:01064E00109B
:01064F0008A2
:0106500000A9
:010651001890
:010652001097
:01065300079F
:010654001F86
:01065500178D
:010656000F94
:01065700079B
:010658001F82
:010659001789
:01065A000F90
:01065B000797
:01065C001F7E
:01065D001686
:01065E000E8D
:01065F000694
:010660001E7B
:010661001682
:010662000E89
:010663000690
:010664001D78
:01066500157F
:010666000D86
:01066700058D
:010668001D74
:01066900157B
:01066A000D82
:01066B00048A
:01066C001C71
:01066D001478
:01066E000C7F
:01066F000486
:010670001C6D
:010671001375
:010672000B7C
:010673000383
:010674001B6A
:010675001371
:010676000A79
:010677000280
:010678001A67
:01067900126E
:01067A000A75
:01067B00017D
:01067C001964
:01067D00116B
:01067E000972
:01067F00007A
:010680001861
:010681001068
:01068200086F
:010683000076
:01068400175E
:010685000F65
:01068600076C
:010687001F53
:01068800165B
:010689000E62
:01068A000669
:01068B001D51
:01068C001558
:01068D000D5F
:01068E000566
:01068F001C4E
:010690001455
:010691000C5C
:010692000463
:010693001B4B
:010694001352
:010695000B59
:010696000261
:010697001A48
:01069800124F
:010699000957
:01069A00015E
:01069B001945
:01069C00104D
:01069D000854
:01069E00005B
:01069F001743
:0106A0000F4A
:0106A1000751
:0106A2001E39
:0106A3001640
:0106A4000E47
:0106A500054F
:0106A6001D36
:0106A700153D
:0106A8000C45
:0106A900044C
:0106AA001C33
:0106AB00133B
:0106AC000B42
:0106AD000349
:0106AE001A31
:0106AF001238
:0106B0000940
:0106B1000147
:0106B200192E
:0106B3001036
:0106B400083D
:0106B5001F25
:0106B600172C
:0106B7000F33
:0106B800063B
:0106B9001E22
:0106BA00152A
:0106BB000D31
:0106BC000538
:0106BD001C20
:0106BE001427
:0106BF000B2F
:0106C0000336
:0106C1001A1E
:0106C2001225
:0106C3000A2C
:0106C4000134
:0106C500191B
:0106C6001023
:0106C700082A
:0106C8001F12
:0106C9001719
:0106CA000E21
:0106CB000628
:0106CC001D10
:0106CD001517
:0106CE000C1F
:0106CF000426
:0106D0001B0E
:0106D1001315
:0106D2000B1C
:0106D3000224
:0106D4001A0B
:0106D5001113
:0106D600091A
:0106D7000022
:0106D8001809
:0106D9000F11
:0106DA000619
:0106DB001E00
:0106DC001508
:0106DD000D0F
:0106DE000417
:0106DF001CFE
:0106E0001306
:0106E1000B0D
:0106E2000215
:0106E3001AFC
:0106E4001104
:0106E500090B
:0106E6000013
:0106E70018FA
:0106E8000F02
:0106E900060A
:0106EA001EF1
:0106EB0015F9
:0106EC000D00
:0106ED000408
:0106EE001CEF
:0106EF0013F7
:0106F0000AFF
:0106F1000206
:0106F20019EE
:0106F30011F5
:0106F40008FD
:0106F5001FE5
:0106F60017EC
:0106F7000EF4
:0106F80006FB
:0106F9001DE3
:0106FA0014EB
:0106FB000CF2
:0106FC0003FA
:0106FD001BE1
:0106FE0012E9
:0106FF0009F1
:0107000001F7
:0107010018DF
:010702000FE7
:0107030007EE
:010704001ED6
:0107050015DE
:010706000DE5
:0107070004ED
:010708001CD4
:0107090013DC
:01070A000AE4
:01070B0002EB
:01070C0019D3
:01070D0010DB
:01070E0008E2
:01070F001FCA
:0107100016D2
:010711000ED9
:0107120005E1
:010713001CC9
:0107140013D1
:010715000BD8
:0107160002E0
:0107170019C8
:0107180011CF
:0107190008D7
:01071A001FBF
:01071B0017C6
:01071C000ECE
:01071D0005D6
:01071E001CBE
:01071F0014C5
:010720000BCD
:0107210002D5
:0107220019BD
:0107230011C4
:0107240008CC
:010725001FB4
:0107260016BC
:010727000EC3
:0107280005CB
:010729001CB3
:01072A0013BB
:01072B000BC2
:01072C0002CA
:01072D0019B2
:01072E0010BA
:01072F0008C1
:010730001FA9
:0107310016B1
:010732000DB9
:0107330005C0
:010734001CA8
:0107350013B0
:010736000AB8
:0107370001C0
:0107380019A7
:0107390010AF
:01073A0007B7
:01073B001E9F
:01073C0015A7
:01073D000DAE
:01073E0004B6
:01073F001B9E
:0107400012A6
:0107410009AE
:0107420000B6
:01074300189D
:010744000FA5
:0107450006AD
:010746001D95
:01074700149D
:010748000BA5
:0107490003AC
:01074A001A94
:01074B00119C
:01074C0008A4
:01074D001F8C
:01074E001694
:01074F000D9C
:0107500004A4
:010751001C8B
:010752001393
:010753000A9B
:0107540001A3
:01075500188B
:010756000F93
:01075700069B
:010758001D83
:01075900158A
:01075A000C92
:01075B00039A
:01075C001A82
:01075D00118A
:01075E000892
:01075F001F7A
:010760001682
:010761000D8A
:010762000492
:010763001B7A
:010764001282
:010765000A89
:010766000191
:010767001879
:010768000F81
:010769000689
:01076A001D71
:01076B001479
:01076C000B81
:01076D000289
:01076E001971
:01076F001079
:010770000781
:010771001E69
:010772001571
:010773000C79
:010774000381
:010775001A69
:010776001171
:010777000879
:010778001F61
:010779001669
:01077A000D71
:01077B000479
:01077C001B61
:01077D001269
:01077E000971
:01077F000079
:010780001761
:010781000E69
:010782000571
:010783001C59
:010784001361
:010785000A69
:010786000171
:010787001859
:010788000F61
:010789000669
:01078A001D51
:01078B001459
:01078C000B61
:01078D000269
:01078E001951
:01078F001059
:010790000761
:010791001E49
:010792001551
:010793000C59
:010794000262
:01079500194A
:010796001052
:01079700075A
:010798001E42
:01079900154A
:01079A000C52
:01079B00035A
:01079C001A42
:01079D00114A
:01079E000852
:01079F001F3A
:0107A0001543
:0107A1000C4B
:0107A2000353
:0107A3001A3B
:0107A4001143
:0107A500084B
:0107A6001F33
:0107A700163B
:0107A8000C44
:0107A900034C
:0107AA001A34
:0107AB00113C
:0107AC000844
:0107AD001F2C
:0107AE001634
:0107AF000D3C
:0107B0000345
:0107B1001A2D
:0107B2001135
:0107B300083D
:0107B4001F25
:0107B500162D
:0107B6000C36
:0107B700033E
:0107B8001A26
:0107B900112E
:0107BA000836
:0107BB001F1E
:0107BC001527
:0107BD000C2F
:0107BE000337
:0107BF001A1F
:0107C0001127
:0107C1000730
:0107C2001E18
:0107C3001520
:0107C4000C28
:0107C5000330
:0107C6001919
:0107C7001021
:0107C8000729
:0107C9001E11
:0107CA001519
:0107CB000B22
:0107CC00022A
:0107CD001912
:0107CE00101A
:0107CF000623
:0107D0001D0B
:0107D1001413
:0107D2000B1B
:0107D3000124
:0107D400180C
:0107D5000F14
:0107D600061C
:0107D7001C05
:0107D800130D
:0107D9000A15
:0107DA00011D
:0107DB001706
:0107DC000E0E
:0107DD000516
:0107DE001CFE
:0107DF001207
:0107E000090F
:0107E1000017
:0107E2001600
:0107E3000D08
:0107E4000410
:0107E5001AF9
:0107E6001101
:0107E7000809
:0107E8001FF1
:0107E90015FA
:0107EA000C02
:0107EB00030A
:0107EC0019F3
:0107ED0010FB
:0107EE000703
:0107EF001DEC
:0107F00014F4
:0107F1000BFC
:0107F2000105
:0107F30018ED
:0107F4000FF5
:0107F50005FE
:0107F6001CE6
:0107F70013EE
:0107F80009F7
:0107F90000FF
:0107FA0017E7
:0107FB000DF0
:0107FC0004F8
:0107FD001BE0
:0107FE0011E9
:0107FF0008F1
:00000001ff
