:020000040000FA
:03000000021A4A97
:03000100022CBA14
:03000200023F02B8
:0300030002512681
:0300040002632074
:030005000274EE94
:03000600028698D7
:0300070002981646
:0300080002A97AD0
:0300090002BAB088
:03000A0002CBC066
:03000B0002DCAC68
:03000C0002ED768C
:03000D0002FE1ED2
:03000E00030E9C42
:03000F00031EF6D7
:03001000032F3A81
:03001100033F505A
:03001200034F4455
:03001300035F1870
:03001400036ECEAA
:03001500037E6007
:03001600038DD87F
:03001700039D2422
:0300180003AC5ED8
:0300190003BB70B6
:03001A0003CA64B2
:03001B0003D938CE
:03001C0003E7F601
:03001D0003F68C5B
:03001E0004050ACC
:03001F0004136C5B
:030020000421AE0A
:03002100042FD6D3
:03002200043DE2B8
:03002300044BCEBD
:0300240004599CE0
:0300250004675617
:030026000474F669
:03002700048272DE
:03002800048FD86A
:03002900049D280B
:03002A0004AA5ACB
:03002B0004B76EA9
:03002C0004C47297
:03002D0004D158A3
:03002E0004DE28C5
:03002F0004EADC04
:0300300004F7765C
:030031000503FCC8
:0300320005106A4C
:03003300051CC2E7
:030034000528FE9E
:0300350005352668
:0300360005413849
:03003700054D3242
:030038000559184F
:030039000564E477
:03003A0005709CB2
:03003B00057C3C05
:03003C000587CC69
:03003D00059340E8
:03003E00059EA478
:03003F0005A9F41C
:0300400005B52CD7
:0300410005C04EA9
:0300420005CB608B
:0300430005D6607F
:0300440005E1468D
:0300450005EC18AF
:0300460005F6DCE0
:0300470006018A25
:03004800060C287B
:030049000616AEEA
:03004A0006212A62
:03004B00062B88F9
:03004C000635E294
:03004D0006401C4E
:03004E00064A500F
:03004F0006546CE8
:03005000065E74D5
:0300510006686CD2
:03005200067254DF
:03005300067C2800
:030054000685EE30
:03005500068FAA69
:0300560006994ABE
:0300570006A2E01E
:0300580006AC648F
:0300590006B5D811
:03005A0006BF3AA4
:03005B0006C89044
:03005C0006D1D0FA
:03005D0006DB06B9
:03005E0006E42C89
:03005F0006ED4863
:0300600006F64C55
:0300610006FF4057
:0300620007082864
:030063000711047E
:030064000719D4A5
:03006500072294DB
:03006600072B4421
:030067000733E27A
:03006800073C78DA
:030069000744FA4F
:03006A00074D70CF
:03006B000755D85E
:03006C00075E3AF2
:03006D000766849F
:03006E00076ECA50
:03006F000776FC15
:03007000077F22E5
:0300710007873CC2
:03007200078F4AAB
:0300730007974AA2
:03007400079F42A1
:0300750007A728B2
:0300760007AF06CB
:0300770007B6D4F5
:0300780007BE9828
:0300790007C64A6D
:03007A0007CDF4BB
:03007B0007D59412
:03007C0007DD2479
:03007D0007E4ACE9
:03007E0007EC2666
:03007F0007F396EE
:0300800007FAFE7E
:0300810008025C16
:030082000809A8C2
:030083000810EA78
:0300840008182435
:03008500081F5001
:0300860008266CDD
:03008700082D8EB3
:0300880008349C9D
:03008900083B9C95
:03008A0008429297
:03008B00084980A1
:03008C00085064B5
:03008D0008573CD5
:03008E00085E0CFD
:03008F000864CE34
:03009000086B8E6C
:0300910008723CB6
:030092000878E00B
:03009300087F7E65
:03009400088616C5
:03009500088C9E36
:0300960008931EAE
:0300970008999431
:0300980008A004B9
:0300990008A66A4C
:03009A0008ACC6E9
:03009B0008B31493
:03009C0008B9643C
:03009D0008BFA0F9
:03009E0008C5D8BA
:03009F0008CC0684
:0300A00008D22A59
:0300A10008D84E2E
:0300A20008DE6015
:0300A30008E46E00
:0300A40008EA6EF9
:0300A50008F06AF6
:0300A60008F662F7
:0300A70008FC4A08
:0300A80009022E1C
:0300A9000908083B
:0300AA00090DDC61
:0300AB000913A690
:0300AC00091968C7
:0300AD00091F2008
:0300AE000924D250
:0300AF00092A7AA1
:0300B00009301AFA
:0300B1000935B856
:0300B200093B4ABD
:0300B3000940D42D
:0300B400094654A6
:0300B500094BD81C
:0300B600095148A5
:0300B7000956B631
:0300B800095C20C0
:0300B9000961805A
:0300BA000966D6FE
:0300BB00096C2AA3
:0300BC0009717057
:0300BD000976B809
:0300BE00097BF2C9
:0300BF0009812292
:0300C0000986525C
:0300C100098B7C2C
:0300C20009909E04
:0300C3000995B6E6
:0300C400099AC6D0
:0300C500099FD2BE
:0300C60009A4DAB0
:0300C70009A9DAAA
:0300C80009AED0AE
:0300C90009B3C0B8
:0300CA0009B8AAC8
:0300CB0009BD96D6
:0300CC0009C270F6
:0300CD0009C74A16
:0300CE0009CC1C3E
:0300CF0009D0F065
:0300D00009D5B29D
:0300D10009DA72D7
:0300D20009DF2C17
:0300D30009E3E25C
:0300D40009E88EAA
:0300D50009ED3200
:0300D60009F1D657
:0300D70009F674B3
:0300D80009FB1011
:0300D90009FF9E7E
:0300DA000A0426EF
:0300DB000A08AC64
:0300DC000A0D2EDC
:0300DD000A11A65F
:0300DE000A161AE5
:0300DF000A1A8E6C
:0300E0000A1EF8FD
:0300E1000A23608F
:0300E2000A27B634
:0300E3000A2C12D2
:0300E4000A306A75
:0300E5000A34B426
:0300E6000A3900D4
:0300E7000A3D448B
:0300E8000A41804A
:0300E9000A45BA0B
:0300EA000A49F6CA
:0300EB000A4E2298
:0300EC000A524A6B
:0300ED000A56723E
:0300EE000A5A9417
:0300EF000A5EAEF8
:0300F0000A62C2DF
:0300F1000A66DAC2
:0300F2000A6AE2B5
:0300F3000A6EEAA8
:0300F4000A72F09D
:0300F5000A76EE9A
:0300F6000A7AE89B
:0300F7000A7EDCA2
:0300F8000A82CEAB
:0300F9000A86BABA
:0300FA000A8AA2CD
:0300FB000A8E84E6
:0300FC000A925E07
:0300FD000A963828
:0300FE000A9A0E4D
:0300FF000A9DE077
:03010000077898E5
:0301010007834B26
:03010200078DE77F
:03010300079868F2
:0301040007A2D778
:0301050007AD2C17
:0301060007B76ECA
:0301070007C19697
:0301080007CBAE74
:0301090007D5AB6C
:03010A0007DF9874
:03010B0007E96C95
:03010C0007F32CCA
:03010D0007FCDA12
:03010E000806746C
:03010F00080FF8DE
:0301100008196D5E
:030111000822CCF5
:03011200082C15A1
:0301130008354E5E
:03011400083E762C
:0301150008478711
:0301160008508806
:030117000859780C
:0301180008625723
:03011900086B224E
:03011A000873DC8B
:03011B00087C84D9
:03011C0008851C37
:03011D00088DA6A4
:03011E0008961B25
:03011F00089E81B6
:0301200008A6D856
:0301210008AF1D07
:0301220008B752C9
:0301230008BF769C
:0301240008C78D7C
:0301250008CF936D
:0301260008D78C6B
:0301270008DF747A
:0301280008E74C99
:0301290008EF16C6
:03012A0008F6D301
:03012B0008FE7E4D
:03012C0009061BA6
:03012D00090DAD0C
:03012E000915317F
:03012F00091CA602
:0301300009240B94
:03013100092B6334
:030132000932AFE0
:030133000939EE99
:0301340009411F5F
:0301350009484432
:03013600094F5A14
:0301370009566303
:03013800095D63FB
:0301390009645204
:03013A00096B3915
:03013B0009721234
:03013C000978DC63
:03013D00097F9C9B
:03013E00098652DD
:03013F00098CF92F
:030140000993958B
:03014100099A25F3
:0301420009A0AA67
:0301430009A727E2
:0301440009AD946E
:0301450009B3F902
:0301460009BA51A2
:0301470009C09F4D
:0301480009C6E203
:0301490009CD19C4
:03014A0009D34690
:03014B0009D96966
:03014C0009DF8543
:03014D0009E59130
:03014E0009EB9624
:03014F0009F18F24
:0301500009F77F2D
:0301510009FD673E
:030152000A03405D
:030153000A091581
:030154000A0EDBB5
:030155000A149CED
:030156000A1A5230
:030157000A1FFC80
:030158000A25A0D5
:030159000A2B3A34
:03015A000A30CA9E
:03015B000A36520F
:03015C000A3BD08B
:03015D000A41470D
:03015E000A46B49A
:03015F000A4C192E
:030160000A5175CC
:030161000A56C873
:030162000A5C1123
:030163000A6152DC
:030164000A668A9E
:030165000A6BBB67
:030166000A70E537
:030167000A76070E
:030168000A7B20EF
:030169000A8030D9
:03016A000A8538CB
:03016B000A8A39C4
:03016C000A8F33C4
:03016D000A9426CB
:03016E000A990EDD
:03016F000A9DF2F4
:030170000AA2CE12
:030171000AA7A238
:030172000AAC6C68
:030173000AB12F9F
:030174000AB5EDDC
:030175000ABAA320
:030176000ABF526B
:030177000AC3FABE
:030178000AC89A18
:030179000ACD3478
:03017A000AD1CADD
:03017B000AD6554C
:03017C000ADADBC1
:03017D000ADF5B3B
:03017E000AE3D2BF
:03017F000AE84447
:030180000AECADD9
:030181000AF1126E
:030182000AF5710A
:030183000AF9C8AE
:030184000AFE1A56
:030185000B026505
:030186000B06A9BC
:030187000B0AE779
:030188000B0F1E3C
:030189000B135203
:03018A000B177DD3
:03018B000B1BA1AA
:03018C000B1FC185
:03018D000B23DE63
:03018E000B27F04C
:03018F000B2C0135
:030190000B300B26
:030191000B340C20
:030192000B38081F
:030193000B3C0220
:030194000B3FF22C
:030195000B43DE3B
:030196000B47C450
:030197000B4BA669
:030198000B4F8387
:030199000B535AAB
:03019A000B572BD5
:03019B000B5AF903
:03019C000B5EC037
:03019D000B628270
:03019E000B663DB0
:03019F000B69F7F2
:0301A0000B6DA83C
:0301A1000B71528D
:0301A2000B74FFDC
:0301A3000B78A036
:0301A4000B7C3D94
:0301A5000B7FD8F5
:0301A6000B836D5B
:0301A7000B86FBC9
:0301A8000B8A8738
:0301A9000B8E0EAC
:0301AA000B918D29
:0301AB000B950CA5
:0301AC000B98832A
:0301AD000B9BF6B3
:0301AE000B9F653F
:0301AF000BA2D3CD
:0301B0000BA63863
:0301B1000BA99700
:0301B2000BACF49F
:0301B3000BB04E40
:0301B4000BB3A1E9
:0301B5000BB6F195
:0301B6000BBA3E43
:0301B7000BBD84F9
:0301B8000BC0C6B3
:0301B9000BC4086C
:0301BA000BC73F31
:0301BB000BCA75F7
:0301BC000BCDA8C0
:0301BD000BD0D78D
:0301BE000BD4035C
:0301BF000BD72833
:0301C0000BDA480F
:0301C1000BDD67EC
:0301C2000BE083CC
:0301C3000BE399B2
:0301C4000BE6A89F
:0301C5000BE9BA89
:0301C6000BECC47B
:0301C7000BEFC972
:0301C8000BF2CD6A
:0301C9000BF5CC67
:0301CA000BF8C46B
:0301CB000BFBBF6C
:0301CC000BFEB176
:0301CD000C019F83
:0301CE000C04908E
:0301CF000C0778A2
:0301D0000C0A5DB9
:0301D1000C0D40D2
:0301D2000C101CF2
:0301D3000C12F615
:0301D4000C15CD3A
:0301D5000C18A360
:0301D6000C1B758A
:0301D7000C1E40BB
:0301D8000C2107F0
:0301D9000C23CE26
:0301DA000C26935D
:0301DB000C29529A
:0301DC000C2C0DDB
:0301DD000C2EC81D
:0301DE000C317C65
:0301DF000C342FAE
:0301E0000C36DFFB
:0301E1000C398B4B
:0301E2000C3C30A2
:0301E3000C3ED7F8
:0301E4000C417A51
:0301E5000C4419AE
:0301E6000C46B50F
:0301E7000C495070
:0301E8000C4BE5D8
:0301E9000C4E7643
:0301EA000C5107AE
:0301EB000C53951D
:0301EC000C561E90
:0301ED000C58A308
:0301EE000C5B297E
:0301EF000C5DABF9
:0301F0000C602779
:0301F1000C62A4F9
:0301F2000C651D7C
:0301F3000C679303
:0301F4000C6A048E
:0301F5000C6C741B
:0301F6000C6EE4A8
:0301F7000C714D3B
:0301F8000C73B7CE
:0301F9000C761A67
:0301FA000C787B03
:0301FB000C7ADBA0
:0301FC000C7D3740
:0301FD000C7F91E3
:0301FE000C81E988
:0301FF000C843D30
:00000001ff
