:020000040000FA
:030000000B7B1C5B
:030001000D9E9CB5
:030002000FD47A9E
:03000300021C8C50
:030004000476ACD3
:0300050006E2B25E
:030006000960741A
:030007000BEFCE2E
:030008000E9096C1
:030009000142AA07
:03000A000405E208
:03000B0006DA1AF8
:03000C0009BF2CFD
:03000D000CB4F43C
:03000E000FBB50D5
:03000F0002D21CFE
:0300100005F932BD
:030011000930743F
:030012000C77BEAA
:030013000FCEEE1F
:030014000335E2CF
:0300150006AC7ABC
:030016000A329417
:030017000DC814FD
:03001800016CD4A4
:030019000520BA05
:03001A0008E3A454
:03001B000CB574AD
:03001C0000960A41
:03001D0004854C0B
:03001E000883183C
:03001F000C8F52F1
:0300200000A9DE56
:0300210004D29E68
:0300220009097653
:030023000D4E4A35
:0300240001A10037
:0300250006017859
:030026000A6F9AC4
:030027000EEB4C91
:03002800037472EC
:03002900080AF0D2
:03002A000CAEAE6B
:03002B00015F94DE
:03002C00061D842A
:03002D000AE86876
:03002E000FC026DA
:03002F0004A4A680
:030030000995D05F
:030031000E938AA1
:03003200039DBE6D
:0300330008B452BC
:030034000DD732B3
:030035000306447B
:030036000841720C
:030037000D88A68B
:0300380002DBC820
:03003900083AC4BE
:03003A000DA5828F
:03003B00031BEEB6
:03003C00089DF02C
:03003D000E2B7611
:03003E0003C46890
:03003F000968B29B
:030040000F184056
:0300410004D2FEE8
:030042000A98D643
:030043000069B49D
:03004400064586E8
:030045000C2C3848
:03004600021DB4E4
:030047000819EAAB
:030048000E20C4C3
:030049000432324C
:03004A000A4E1E3D
:03004B0000747AC4
:03004C0006A52ED8
:03004D000CE02E96
:03004E0003256225
:03004F000974BC75
:030050000FCE2AA6
:0300510006319ADB
:030052000C9EFA07
:0300530003163A57
:03005400099748C1
:0300550000221274
:0300560006B68C5F
:030057000D54A0A5
:0300580003FC4264
:030059000AAD5E8F
:03005A000167E853
:03005B00082BCCA3
:03005C000EF8FE9D
:03005D0005CF6C60
:03005E000CAF06DE
:03005F000397BE46
:030060000A898684
:0300610001844EC9
:0300620008880605
:030063000F94A057
:0300640006AA0CDD
:030065000DC83E85
:0300660004EF267E
:030067000C1EB8B4
:030068000356E25A
:030069000A979A59
:03006A0001E0D0E2
:03006B00093276E1
:03006C00008C7E87
:03006D0007EEDEBD
:03006E000F5984A3
:03006F0006CC6656
:030070000E4776C2
:0300710005CAA617
:030072000D55EA3F
:0300730004E93667
:030074000C847A7F
:030075000427AEAF
:030076000BD2C2E8
:030077000385AC52
:030078000B405EDC
:030079000302CEB1
:03007A000ACCEEBF
:03007B00029EB230
:03007C000A7810EF
:03007D000258FA2C
:03007E000A4166CE
:03007F0002314803
:030080000A2894B7
:0300810002273E15
:030082000A2D3E06
:03008300023A86B8
:030084000A4F0C14
:03008500026AC448
:030086000A8DA63A
:0300870002B7A21B
:030088000AE8B2D1
:030089000320CA87
:03008A000B5FE029
:03008B0003A5E8E2
:03008C000BF2D89C
:03008D000446A87E
:03008E000CA14A78
:03008F000502B8AF
:030090000D6AE412
:0300910005D9C8C6
:030092000E4F58B6
:0300930006CB8A0F
:030094000F4E54B8
:0300950007D7AEDC
:0300960000678E72
:0300970008FDEA77
:03009800019AB812
:030099000A3DF02D
:03009A0002E788F2
:03009B000B977848
:03009C00044DB45C
:03009D000D0A3811
:03009E0005CCF698
:03009F000E95E8D3
:0300A000076504ED
:0300A100003A40E2
:0300A200091598A5
:0300A30001F6FE65
:0300A4000ADE6E03
:0300A50003CBDCAE
:0300A6000CBF404C
:0300A70005B89405
:0300A8000EB7CEC2
:0300A90007BCE6AB
:0300AA0000C7D4B8
:0300AB0009D890E1
:0300AC0002EF124E
:0300AD000C0B52E7
:0300AE00052D48D5
:0300AF000E54EC00
:0300B0000782388C
:0300B10000B52077
:0300B20009EDA0B5
:0300B300032BB06C
:0300B4000C6F4886
:0300B50005B85E2D
:0300B6000F06F042
:0300B700085AF2F2
:0300B80001B45E32
:0300B9000B132CFA
:0300BA0004775870
:0300BB000DE0D67F
:0300BC00074FA447
:0300BD0000C3B6C7
:0300BE000A3D08F0
:0300BF0003BB94EC
:0300C0000D3F50A1
:0300C10006C83638
:0300C200005640A5
:0300C30009E968E0
:0300C4000381A60F
:0300C5000D1EF419
:0300C60006C14A26
:0300C7000068A22C
:0300C8000A14F81F
:0300C90003C64229
:0300CA000D7C7C2E
:0300CB0007379C58
:0300CC0000F7A298
:0300CD000ABC82E8
:0300CE000486386D
:0300CF000E54BC10
:0300D00008280CF1
:0300D10002001E0C
:0300D2000BDCEE56
:0300D30005BE74F3
:0300D4000FA4ACCA
:0300D500098F9000
:0300D600037F188D
:0300D7000D734066
:0300D800076C00B2
:0300D90001695664
:0300DA000B6B3A73
:0300DB000571A606
:0300DC000F7C9402
:0300DD00098C008B
:0300DE00039FE499
:0300DF000DB83821
:0300E00007D4FA48
:0300E10001F62203
:0300E2000C1BAE46
:0300E3000645943B
:0300E4000073D0D6
:0300E5000AA66008
:0300E60004DD3AFC
:0300E7000F185C93
:0300E8000957C0F5
:0300E900039B6016
:0300EA000DE336ED
:0300EB00082F409B
:0300EC00027F7818
:0300ED000CD3D65B
:0300EE00072C5884
:0300EF000188F88D
:0300F0000BE9B267
:0300F100064E7E3A
:0300F20000B75CF8
:0300F3000B244497
:0300F4000595303F
:0300F500000A1EE0
:0300F6000A830872
:0300F70004FFEA19
:0300F8000F80BEB8
:0300F9000A058075
:0300FA00048E2C45
:0300FB000F1ABC1D
:0300FC0009AB2E1F
:0300FD00043F7A43
:0300FE000ED79E7C
:0300FF00097394EE
:0301000004135590
:030101000B914718
:030102000319DFFF
:030103000AAD063C
:03010400024AA408
:0301050009F2A458
:0301060001A4EF62
:030107000961701B
:03010800012810BB
:0301090008F8BB38
:03010A0000D35BC4
:03010B0008B7DC56
:03010C0000A62921
:03010D00089E2D1C
:03010E00009FD47B
:03010F0008AB0B2F
:0301100000BFBD70
:0301110008DDD82E
:030112000105499B
:030113000935FBB0
:03011400016FDC9C
:0301150009B2DB51
:0301160001FEE403
:030117000A53E5A3
:0301180002B1CC65
:030119000B188838
:03011A0003880750
:03011B000C00389D
:03011C0004810952
:03011D000D0A695F
:03011E00059C49F4
:03011F000E369603
:0301200006D941BC
:030121000F843A0E
:030122000837702B
:0301230000F2D413
:0301240009B655C4
:030125000281E56F
:030126000B557303
:030127000430F1B0
:030128000D145063
:0301290005FF804F
:03012A000EF2735F
:03012B0007ED1BC2
:03012C0000EF6978
:03012D0009F94E7F
:03012E00030ABC05
:03012F000C23A6F8
:030130000543FE86
:030131000E6BB69C
:03013200079AC069
:0301330000D10FE9
:030134000A0E961A
:030135000353472A
:030136000C9F1605
:0301370005F1F6D9
:030138000F4BD991
:0301390008ACB45B
:03013A0002147933
:03013B000B831D16
:03013C0004F89430
:03013D000E74D06D
:03013E0007F7C6FA
:03013F0001816BD0
:030140000B11B2EE
:0301410004A8907F
:030142000E45F96E
:0301430007E9E1E8
:0301440001943FE4
:030145000B450562
:0301460004FC2A8C
:030147000EB9A24C
:03014800087D62CD
:030149000247600A
:03014A000C1791FE
:03014B0005EDEAD5
:03014C000FCA6077
:03014D0009ACEB0F
:03014E0003957E98
:03014F000D84110B
:0301500007789895
:0301510001730A2D
:030152000B735ECE
:03015300057988A3
:030154000F858193
:0301550009973DCA
:0301560003AEB342
:030157000DCBDBF2
:0301580007EEAA05
:0301590002171773
:03015A000C451A37
:03015B000678A87B
:03015C0000B1BA35
:03015D000AF04560
:03015E0005344223
:03015F000F7DA76A
:0301600009CC6C5B
:03016100042088EF
:030162000E79F320
:0301630008D8A415
:03016400033C93C6
:030165000DA5B72E
:0301660008140872
:0301670002877E8E
:030168000D001176
:03016900077DB956
:03016A0002006E22
:03016B000C8828D5
:03016C000714DF96
:03016D0001A68B5D
:03016E000C3D261F
:03016F0006D8A609
:030170000179050D
:030171000C1E3B26
:0301720006C8417B
:0301730001771001
:030174000C2A9FB3
:0301750006E2E8B7
:03017600019FE402
:030177000C618B8D
:030178000727D77F
:0301790001F2C0D0
:03017A000CC23F75
:03017B0007964F95
:03017C00026EE729
:03017D000D4C0125
:03017E00082D97B2
:03017F000313A1C6
:030180000DFE1A57
:0301810008ECFA8D
:0301820003E03B5C
:030183000ED7D7BD
:0301840009D3C7D5
:0301850004D4059A
:030186000FD88B04
:030187000AE15238
:0301880005EE552C
:0301890000FF8CE8
:03018A000C14F35F
:03018B00072E83B9
:03018C00024C36EC
:03018D000D6E05EF
:03018E000893EDE6
:03018F0003BDE5C8
:030190000EEBE98A
:030191000A1DF351
:030192000553FE14
:03019300008E02D9
:030194000BCBFC96
:03019500070DE56E
:030196000253B859
:030197000D9D6F4C
:0301980008EB056C
:03019900043C74AF
:03019A000F91B80A
:03019B000AEACAA3
:03019C000647A66D
:03019D0001A84670
:03019E000D0CA69F
:03019F000874BF22
:0301A00003E08DEC
:0301A1000F500CF0
:0301A2000AC33459
:0301A300063A0316
:0301A40001B47330
:0301A5000D327E9A
:0301A60008B4207A
:0301A700043955C3
:0301A8000FC2176C
:0301A9000B4E6199
:0301AA0006DE303E
:0301AB0002717D61
:0301AC000E0845F5
:0301AD0009A28321
:0301AE00054032D7
:0301AF0000E14D1F
:0301B0000C85D1EA
:0301B100082DB95D
:0301B20003D9006E
:0301B3000F87A112
:0301B4000B39996B
:0301B50006EEE370
:0301B60002A77A23
:0301B7000E635B79
:0301B8000A228197
:0301B90005E4E773
:0301BA0001AA8B0C
:0301BB000D73675A
:0301BC00093F7781
:0301BD00050EB775
:0301BE0000E1233A
:0301BF000CB6B7C4
:0301C000088F7035
:0301C100046B4884
:0301C200004A3CB4
:0301C3000C2C48B9
:0301C400081169B6
:0301C50003F999A2
:0301C6000FE4D66D
:0301C7000BD31C3B
:0301C80007C46603
:0301C90003B8B1C7
:0301CA000FAFFA7A
:0301CB000BAA3B41
:0301CC0007A7730F
:0301CD0003A79DE8
:0301CE000FAAB4C1
:0301CF000BB0B7BB
:0301D00007B9A1CB
:0301D10003C56EF5
:0301D2000FD41C2B
:0301D3000BE5A693
:0301D40007FA091E
:0301D500041141D1
:0301D600002B4BB0
:0301D7000C4824AD
:0301D8000867C9EC
:0301D900048A3560
:0301DA0000AF650E
:0301DB000CD756E8
:0301DC000902060F
:0301DD00052F6F7C
:0301DE00015F902E
:0301DF000D926519
:0301E00009C7EA62
:0301E10006001DF8
:0301E200023AFBE3
:0301E3000E787F14
:0301E4000AB8A7AF
:0301E50006FB70A6
:0301E6000340D7FC
:0301E7000F88D8A6
:0301E8000BD371C5
:0301E90008209F4C
:0301EA0004705E40
:0301EB0000C2ABA4
:0301EC000D178468
:0301ED00096EE6B2
:0301EE0005C8CD74
:0301EF00022536B0
:0301F0000E84205A
:0301F1000AE58696
:0301F20007496654
:0301F30003AFBD9A
:0301F40000188967
:0301F5000C83C6B2
:0301F60008F1719C
:0301F70005618916
:0301F80001D40926
:0301F9000E48F0BD
:0301FA000AC03BFD
:0301FB000739E6DB
:0301FC0003B5F058
:0301FD0000345576
:0301FE000CB5132A
:0301FF0009382795
:00000001ff
