:020000040000FA
:03000000000008F5
:0300010005456A48
:0300020004D628F9
:030003000E540A8E
:0300040001620096
:030005000DA41E29
:0300060002BF989E
:03000700005ABEDE
:03000800061CF8DB
:0300090003AEC083
:03000A0008B99E94
:03000B0004E822E4
:03000C0007E5E421
:03000D00015F8010
:03000E0001028C60
:03000F00067D96D5
:0300100001802A42
:0300110001BAC071
:0300120006DEBE49
:03001300009E7AD2
:030014000EAD2E00
:0300150000BEF634
:030016000688D485
:030017000FC0A275
:030018000C1D16A6
:030019000B55BEC6
:03001A000D22F8BC
:03001B00013DF6AE
:03001C000760B2C8
:03001D000F45F894
:03001E0008A954DA
:03001F0003471A7A
:030020000EDC5E95
:030021000B26F4B7
:0300220007E56A85
:0300230004D70AF5
:0300240001BBD24B
:030025000E547402
:030026000A625615
:0300270005A78C9E
:030028000FE6D40C
:0300290008E39A4F
:03002A000061EC86
:03002B0006268224
:03002C0009F6B61C
:03002D000B9880AD
:03002E000AD27C77
:03002F00076BDC80
:03003000012C722E
:0300310007DCA247
:030032000B456813
:030033000B305837
:03003400076794C7
:030035000FB5CC38
:0300360003E6429C
:0300370003C4C43B
:030038000F1DA4F5
:0300390005BDC43E
:03003A0007728AC0
:03003B000409DCD9
:03003C000B522C38
:03003D000D1A6435
:03003E000931F293
:03003F000F68C483
:030040000F8F3EE1
:03004100097642FB
:030042000CEF2E92
:0300430009CBD214
:030044000FDE7656
:030045000EF9D8D9
:0300460006F1269A
:0300470007980017
:0300480000C2767D
:0300490002450A63
:03004A000BF4A212
:03004B000DA69C63
:03004C000730B6C4
:03004D0008691A25
:03004E0001265E2A
:03004F00013F78F6
:03005000088BC654
:0300510006E30CB7
:030052000C1D6A18
:0300530008136A25
:030054000A9DEE14
:0300550003963CD3
:0300560002D5F8D8
:0300570008371E49
:0300580003940C02
:0300590004C77465
:03005A000BAC6488
:03005B00081E4636
:03005C0009F8D4CC
:03005D0001182463
:03005E000D589C9E
:03005F000E96FCFE
:0300600004B05495
:030061000F820209
:030062000EE9BEE6
:0300630002C5864D
:030064000AF3B0EC
:030065000752DC63
:0300660007C1F8D7
:030067000C203C2E
:03006800044D3014
:030069000028A2CA
:03006A000F92B042
:03006B00026BBC69
:03006C0008946E87
:03006D0001EDBCE6
:03006E000E58DE4B
:03006F000DB7507A
:030070000FEADABA
:0300710004D58033
:030072000C598E98
:030073000659909B
:0300740002B8547B
:030075000158EE41
:03007600021EAABD
:0300770004ED1A7B
:0300780009A80ACA
:0300790000338AC7
:03007A000873E424
:03007B00024D9C97
:03007C000DA57659
:03007D000A6072A4
:03007E000863C64E
:03007F000794EAF9
:0300800007D98815
:03008100091784D8
:030082000B35003B
:030083000E184E06
:0300840001A7FCD5
:0300850005CACEDB
:030086000A67BA4C
:030087000F65F210
:0300880004ACD4F1
:030089000A23FA4D
:03008A000FB33081
:03008B0005426EBD
:03008C000AB9EAC4
:03008D000002006E
:03008E000503481F
:03008F0009A6843B
:030090000DD4AAE2
:030091000176DA1B
:0300920004766E83
:0300930006BCE4C4
:030094000833EE40
:0300950008C56C2F
:03009600085B689C
:0300970006E01C64
:03009800043DF034
:03009900005F7293
:03009A000B2F62C7
:03009B000498A81E
:03009C000C86547B
:03009D0002E3A6D5
:03009E00079C06B6
:03009F000A9B02B7
:0300A0000BCC5432
:0300A1000B1BDE58
:0300A2000875AA34
:0300A30003C5EAA8
:0300A4000CF8F65F
:0300A50003FB5208
:0300A60008B9A0F6
:0300A7000B20AE7D
:0300A8000B1D70BD
:0300A900089CFCB4
:0300AA00038C9034
:0300AB000BD98EE0
:0300AC0001717C63
:0300AD0004420208
:0300AE000438F221
:0300AF00014438D1
:0300B0000B51E809
:0300B10002503CBE
:0300B200062D8890
:0300B30006D84A22
:0300B400043F1CEA
:0300B5000E50BC2E
:0300B60004FC083F
:0300B700082FFE11
:0300B80007DBBCA7
:0300B90003EE84CF
:0300BA000C57B22E
:0300BB000106C477
:0300BC0001EB5AFB
:0300BD000EF52C11
:0300BE000814160D
:0300BF000D3812E7
:0300C0000E5134AA
:0300C1000B4FB032
:0300C2000423DA3A
:0300C30008BE1E56
:0300C400090F0A17
:0300C500050744E8
:0300C6000C978E06
:0300C7000FB0CCAB
:0300C8000E43F8EC
:0300C90008422AC0
:0300CA000D9C92F8
:0300CB000E44825E
:0300CC000A2B5E9E
:0300CD000142AC41
:0300CE00037C08A8
:0300CF0000C9283D
:0300D000091BDE2B
:0300D1000C6614A6
:0300D2000A99CEBA
:0300D30003A92856
:0300D40007865844
:0300D5000623AC53
:0300D6000F738A1B
:0300D70003687249
:0300D80001F4FA36
:0300D9000B0BD23C
:0300DA000E9FBCBA
:0300DB000CA39AD9
:0300DC00050A5EB4
:0300DD0007C7163C
:0300DE0004CCE06F
:0300DF000C0EF60E
:0300E0000D80AAE6
:0300E10009155CA2
:0300E2000EC08AC3
:0300E3000E75C6D1
:0300E4000828B435
:0300E5000BCD1030
:0300E6000956AA0E
:0300E70000B968F5
:0300E80001E946E5
:0300E9000CDA52DC
:0300EA000180B0E2
:0300EB000FD0989B
:0300EC0007BE54F8
:0300ED00093E4683
:0300EE000444E2E5
:0300EF0008C6AE92
:0300F00006B8440B
:0300F1000E0E529E
:0300F2000EBD9AA6
:0300F30008BAEE5A
:0300F4000BFB36CD
:0300F50008736C21
:0300F6000E189849
:0300F7000CDFDC3F
:0300F80004BE66DD
:0300F90005A978DE
:0300FA000F9666F8
:0300FB00027A96F0
:0300FC000E4B7E2A
:0300FD0002FEA65A
:0300FE000089AACC
:0300FF0006E232E4
:0301000005FDF802
:030101000ED78B8B
:030102000034B610
:0301030009E09E72
:030104000BA70D39
:0301050005546A34
:0301060006B5BD7E
:030107000F98AAA4
:030108000FCB6CAE
:03010900071CD7F9
:03010A00055C543D
:03010B000A59DCB2
:03010C0005E5FA0C
:03010D0007D1C651
:03010E000FEEE60B
:03010F000E0F864A
:0301100002065C88
:030111000BA6A397
:030112000AC41903
:030113000F32FEAA
:0301140008C81305
:03011500075893F5
:030116000ABA37EB
:0301170002C334EC
:030118000F4A3457
:0301190000265865
:03011A00052F3777
:03011B000E3CDBBC
:03011C000B27BEF0
:03011D000BC8CB41
:03011E000FF9597D
:03011F0007933013
:0301200002707DED
:03012100006BDB95
:0301220001604B2E
:0301230005293576
:030124000BA266C5
:0301250004A80E1D
:030126000016C1FF
:030127000DCB718C
:030128000DA372B2
:030129000F7C74D4
:03012A0003348714
:03012B0008AA120D
:03012C000FBBDC2A
:03012D000848FF80
:03012E000230F2AA
:03012F000D5380ED
:030130000990CA69
:0301310006C944B8
:0301320004DDB930
:0301330003AF42D5
:03013400031F4A5C
:03013500030F8E27
:0301360003621849
:0301370003F94089
:0301380004B7AB5E
:03013900058049F5
:03013A0006365630
:03013B0006BD56A8
:03013C0006F919A8
:03013D0006CDB339
:03013E00061F8217
:03013F0004D328BE
:0301400002CD8E5F
:030141000FF3DEDB
:030142000C2B89FA
:03014300075A4018
:030144000165F85A
:030145000A34E495
:0301460001AD7890
:0301470007B6698F
:030148000C36A7CB
:030149000F15632C
:03014A00003A096F
:03014B000F8C41D5
:03014C000CF3EEC3
:03014D000859301E
:03014E0001A45DAC
:03014F0008BE08DF
:030150000D8EFA17
:0301510000003378
:030152000FFAEEB3
:030153000D68989C
:030154000832D698
:03015500004382E2
:030156000584AA73
:0301570007E08F2F
:030158000741A8B4
:0301590003929B73
:03015A000CBE4296
:03015B0002AFA848
:03015C0005520940
:03015D000490D13A
:03015E0000579BAC
:03015F00089233D0
:030160000D2C91D2
:030161000E12DC9F
:030162000B316AF4
:030163000474BB66
:0301640009C97E48
:030165000B1C8CE4
:03016600085AEB49
:030167000171CA59
:03016800064E85BB
:0301690006DE9E11
:03016A00030FC4BC
:03016B000ACFCEEA
:03016C000E0CBABC
:03016D000CB4B01F
:03016E0006B5FED5
:03016F000BFF1B68
:030170000C7EA260
:030171000823560A
:030172000EDC1F81
:0301730000980DE4
:030174000D4650E5
:0301750004D6426B
:0301760007375DEB
:03017700045941E7
:030178000C2BB09D
:030179000E9E9047
:03017A000BA1E9ED
:03017B000325E772
:03017C00051AD48D
:03017D00017120ED
:03017E0008195805
:03017F0009042D43
:0301800004226EE8
:0301810009650C01
:0301820008BD169F
:03018300021BBBA1
:0301840005724BB6
:0301850002B23192
:0301860009CCF9A8
:030187000AB44D6A
:030188000559F323
:0301890009AFCFEC
:03018A0007A7E4E0
:03018B000F3450DE
:03018C0000474EDB
:03018D000AD3345E
:03018E000ECA7620
:03018F000C1FA39F
:0301900002C56441
:0301910002AE7E3D
:030192000BCDD2C0
:030193000E1659EC
:03019400097B29BB
:030195000DEF6FFC
:030196000B667481
:0301970001D399F8
:03019800012A59E0
:03019900095E49B3
:03019A000A6313E2
:03019B00042C7EB3
:03019C0006AE6547
:03019D0001DCBEC4
:03019E0005AB9618
:03019F00020F103C
:0301A00006FB68F3
:0301A1000464EF04
:0301A2000A401000
:0301A30008814888
:0301A4000F1D2FFD
:0301A5000E0870D1
:0301A6000537CD4D
:0301A70004A01C95
:0301A8000C364CC6
:0301A9000BEF5EFB
:0301AA0003C06A25
:0301AB00039E9A16
:0301AC000B7F3195
:0301AD000B57826B
:0301AE00031CF837
:0301AF0002C50E78
:0301B0000A4558A5
:0301B10009937837
:0301B20000A5287D
:0301B3000F703298
:0301B40005EA76E3
:0301B5000409E555
:0301B60009C483F6
:0301B700071066C8
:0301B8000BE3B99D
:0301B9000834B552
:0301BA000BF9A995
:0301BB000728F51D
:0301BC0009B90777
:0301BD0003A06438
:0301BE0004D59FC6
:0301BF000D4F5D84
:0301C0000D0454D7
:0301C10003EB4B02
:0301C20001FB1925
:0301C300072AA860
:0301C4000370EED7
:0301C50006C4F776
:0301C600011DDA3E
:0301C7000272C100
:0301C8000ABAE48C
:0301C90009ED8DB0
:0301CA000002131D
:0301CB000CEFDD59
:0301CC0000AE631F
:0301CD000B352BC4
:0301CE000C7BC9DE
:0301CF000479E1CF
:0301D000032726DC
:0301D100087B5850
:0301D200046E4870
:0301D30006F7D359
:0301D400000FE534
:0301D5000FAE79F1
:0301D60005CB96C0
:0301D700025F5272
:0301D8000561D2EC
:0301D9000ECB4505
:0301DA000E93EC95
:0301DB0004B41257
:0301DC00012411EA
:0301DD0003DC4EF2
:0301DE000CD53D00
:0301DF000C075FAB
:0301E000016B4070
:0301E1000CF97B9B
:0301E2000EAAB6AC
:0301E3000677A3F9
:0301E400045901BA
:0301E50008479D2B
:0301E600023C4D8B
:0301E700022FF4F0
:0301E800081B846D
:0301E90003F7F524
:0301EA0005BE51FE
:0301EB000D67A8F5
:0301EC000AED1AFF
:0301ED000E47D0EA
:0301EE000770FF98
:0301EF000661E7BF
:0301F0000B13D31B
:0301F1000580196D
:0301F20005A01C49
:0301F3000B6D464B
:0301F40006E11011
:0301F50007F4FA12
:0301F6000EA291C5
:0301F7000AE36BAD
:0301F8000CB12B1C
:0301F90004057A80
:0301FA0000DA1018
:0301FB000328AB2B
:0301FC000AEB16F5
:0301FD00081B25B7
:0301FE000AB2B58D
:0301FF0002ABAFA1
:00000001ff
