:020000040000FA
:030000000A57DBC1
:030001000A604C46
:030002000A68AADF
:030003000A70F090
:030004000A792551
:030005000A81422B
:030006000A895212
:030007000A914912
:030008000A992C26
:030009000AA0FE4C
:03000A000AA8BE83
:03000B000AB06BCD
:03000C000AB8032C
:03000D000ABF8E99
:03000E000AC70519
:03000F000ACE68AE
:030010000AD5BA54
:030011000ADCFD09
:030012000AE42ECF
:030013000AEB4FA6
:030014000AF25F8E
:030015000AF95E87
:030016000B004D8F
:030017000B072FA5
:030018000B0DFECF
:030019000B14BD08
:03001A000B1B704D
:03001B000B2211A4
:03001C000B28A608
:03001D000B2F297D
:03001E000B35A1FE
:03001F000B3C0790
:030020000B425F31
:030021000B48ACDD
:030022000B4EE999
:030023000B551961
:030024000B5B3A39
:030025000B614D1F
:030026000B67570E
:030027000B6D510D
:030028000B733F18
:030029000B791E32
:03002A000B7EF357
:03002B000B84B98A
:03002C000B8A74C8
:03002D000B902312
:03002E000B95C768
:03002F000B9B5ECA
:030030000BA0E83A
:030031000BA669B2
:030032000BABDE37
:030033000BB146C8
:030034000BB6A563
:030035000BBBF70B
:030036000BC141BA
:030037000BC67C79
:030038000BCBAD42
:030039000BD0D316
:03003A000BD5F4EF
:03003B000BDB04D8
:03003C000BE00DC9
:03003D000BE50CC4
:03003E000BE9FFCC
:03003F000BEEE8DD
:030040000BF3CBF4
:030041000BF8A118
:030042000BFD6E45
:030043000C02317B
:030044000C06EBBC
:030045000C0B9D04
:030046000C104358
:030047000C14E3B3
:030048000C19761A
:030049000C1E0684
:03004A000C2289FC
:03004B000C27047B
:03004C000C2B7604
:03004D000C2FDF96
:03004E000C343F30
:03004F000C3897D3
:030050000C3CEC79
:030051000C41322D
:030052000C4573E7
:030053000C49ADA8
:030054000C4DDD73
:030055000C520446
:030056000C56261F
:030057000C5A4000
:030058000C5E50EB
:030059000C6258DE
:03005A000C665FD2
:03005B000C6A59D3
:03005C000C6E4CDB
:03005D000C7237EB
:03005E000C761FFE
:03005F000C79FD1C
:030060000C7DD143
:030061000C81A768
:030062000C85709A
:030063000C8931D4
:030064000C8CEB16
:030065000C90A25A
:030066000C9450A7
:030067000C97F7FC
:030068000C9B9757
:030069000C9F32B7
:03006A000CA2CB1A
:03006B000CA65789
:03006C000CA9DEFE
:03006D000CAD6473
:03006E000CB0DEF5
:03006F000CB4527C
:030070000CB7C307
:030071000CBB2D98
:030072000CBE9031
:030073000CC1EECF
:030074000CC54771
:030075000CC89B19
:030076000CCBE8C8
:030077000CCF2F7C
:030078000CD26F38
:030079000CD5AEF5
:03007A000CD8E4BB
:03007B000CDC1486
:03007C000CDF4155
:03007D000CE2662C
:03007E000CE58905
:03007F000CE8A4E6
:030080000CEBB8CE
:030081000CEECEB4
:030082000CF1DBA3
:030083000CF4E298
:030084000CF7E096
:030085000CFAE092
:030086000CFDD995
:030087000D00CD9C
:030088000D03BCA9
:030089000D06A6BB
:03008A000D098BD2
:03008B000D0C6CED
:03008C000D0F4A0B
:03008D000D121F32
:03008E000D14F25C
:03008F000D17C288
:030090000D1A8BBB
:030091000D1D4FF3
:030092000D20112D
:030093000D22CE6D
:030094000D2589AE
:030095000D283DF6
:030096000D2AEC44
:030097000D2D9795
:030098000D303FE9
:030099000D32E243
:03009A000D35829F
:03009B000D381D00
:03009C000D3AB268
:03009D000D3D46D0
:03009E000D3FD83B
:03009F000D4262AD
:0300A0000D44EA22
:0300A1000D476D9B
:0300A2000D49EC19
:0300A3000D4C6998
:0300A4000D4EE01E
:0300A5000D5152A8
:0300A6000D53C532
:0300A7000D5633C0
:0300A8000D589B55
:0300A9000D5AFFEE
:0300AA000D5D6287
:0300AB000D5FC026
:0300AC000D621AC8
:0300AD000D64716E
:0300AE000D66C517
:0300AF000D6914C4
:0300B0000D6B6174
:0300B1000D6DAC26
:0300B2000D6FF2DD
:0300B3000D723497
:0300B4000D747652
:0300B5000D76B015
:0300B6000D78EBD7
:0300B7000D7B219D
:0300B8000D7D5368
:0300B9000D7F8434
:0300BA000D81AC09
:0300BB000D83D8DA
:0300BC000D85FDB2
:0300BD000D881E8D
:0300BE000D8A3C6C
:0300BF000D8C594C
:0300C0000D8E742E
:0300C1000D908B14
:0300C2000D929EFE
:0300C3000D94B2E7
:0300C4000D96BFD7
:0300C5000D98C8CB
:0300C6000D9AD0C0
:0300C7000D9CD8B5
:0300C8000D9ED9B1
:0300C9000DA0D9AE
:0300CA000DA2D4B0
:0300CB000DA4CFB2
:0300CC000DA6C8B6
:0300CD000DA8BAC1
:0300CE000DAAABCD
:0300CF000DAC9ADB
:0300D0000DAE87EB
:0300D1000DB072FD
:0300D2000DB25B11
:0300D3000DB43D2C
:0300D4000DB61F47
:0300D5000DB80063
:0300D6000DB9DD84
:0300D7000DBBB7A7
:0300D8000DBD8DCE
:0300D9000DBF63F5
:0300DA000DC1361F
:0300DB000DC3054D
:0300DC000DC4D37D
:0300DD000DC6A2AB
:0300DE000DC868E2
:0300DF000DCA3017
:0300E0000DCBF74E
:0300E1000DCDB989
:0300E2000DCF77C8
:0300E3000DD13309
:0300E4000DD2F04A
:0300E5000DD4A88F
:0300E6000DD660D4
:0300E7000DD8131E
:0300E8000DD9C56A
:0300E9000DDB74B8
:0300EA000DDD2108
:0300EB000DDECD5A
:0300EC000DE075AF
:0300ED000DE22100
:0300EE000DE3C55A
:0300EF000DE567B5
:0300F0000DE70811
:0300F1000DE8A86F
:0300F2000DEA41D3
:0300F3000DEBDE34
:0300F4000DED7699
:0300F5000DEF0B01
:0300F6000DF0A169
:0300F7000DF234D3
:0300F8000DF3C540
:0300F9000DF554AE
:0300FA000DF6DF21
:0300FB000DF86A93
:0300FC000DF9F209
:0300FD000DFB7A7E
:0300FE000DFCFFF7
:0300FF000DFE8073
:03010000080000F4
:03010100080BF8F0
:030102000817C813
:030103000823804E
:03010400082F16AB
:03010500083A9223
:030106000845F2B7
:0301070008513E5E
:03010800085C642C
:0301090008677014
:03010A0008726C0C
:03010B00087D422A
:03010C000888025E
:03010D000892A8AD
:03010E00089D3415
:03010F0008A7B08E
:0301100008B20A28
:0301110008BC4ADD
:0301120008C674A8
:0301130008D09081
:0301140008DA8C7A
:0301150008E4708B
:0301160008EE3EB2
:0301170008F7F6F0
:0301180009019644
:03011900090B26A9
:03011A0009149C29
:03011B00091E02B8
:03011C0009274A66
:03011D0009308026
:03011E000939A4F8
:03011F000942AEE4
:03012000094BB2D6
:03012100095496E8
:03012200095D660E
:0301230009662446
:03012400096ED28F
:0301250009776CEB
:03012600097FF05E
:03012700098864E0
:030128000990C675
:030129000999161B
:03012A0009A154D4
:03012B0009A9849B
:03012C0009B19E78
:03012D0009B9A469
:03012E0009C1A064
:03012F0009C98A71
:0301300009D16290
:0301310009D928C1
:0301320009E0DC05
:0301330009E88850
:0301340009F01EB1
:0301350009F7A621
:0301360009FF1AA4
:030137000A068035
:030138000A0DD6D7
:030139000A15287C
:03013A000A1C623A
:03013B000A238C08
:03013C000A2AAEDE
:03013D000A31BACA
:03013E000A38BCC0
:03013F000A3FB0C4
:030140000A4696D6
:030141000A4D6AFA
:030142000A54322A
:030143000A5AF65F
:030144000A61A2AB
:030145000A684401
:030146000A6ED866
:030147000A7562D4
:030148000A7BDE51
:030149000A824CDB
:03014A000A88B070
:03014B000A8F0612
:03014C000A954CC5
:03014D000A9B8C7E
:03014E000AA1C043
:03014F000AA7E616
:030150000AADFEF7
:030151000AB412DB
:030152000ABA0CDA
:030153000AC004DB
:030154000AC5F2E7
:030155000ACBD200
:030156000AD1B01B
:030157000AD7764E
:030158000ADD3885
:030159000AE2F2C5
:03015A000AE89E12
:03015B000AEE4069
:03015C000AF3D4CF
:03015D000AF96438
:03015E000AFEE8AE
:03015F000B045E30
:030160000B09CABE
:030161000B0F2E53
:030162000B148AF1
:030163000B19DA9B
:030164000B1F224C
:030165000B246206
:030166000B299CC6
:030167000B2EC498
:030168000B33E670
:030169000B38FE52
:03016A000B3E0E3B
:03016B000B431A29
:03016C000B481825
:03016D000B4D1027
:03016E000B51FC36
:03016F000B56DC50
:030170000B5BB86E
:030171000B608E92
:030172000B6556C4
:030173000B6A1CF8
:030174000B6EDC33
:030175000B738C7D
:030176000B7832D1
:030177000B7CD628
:030178000B817286
:030179000B8606EC
:03017A000B8A9459
:03017B000B8F10D7
:03017C000B938E54
:03017D000B9806D6
:03017E000B9C7265
:03017F000BA0DCF6
:030180000BA53696
:030181000BA98C3B
:030182000BADDAE8
:030183000BB22696
:030184000BB66A4D
:030185000BBAA210
:030186000BBED4D9
:030187000BC304A3
:030188000BC7287A
:030189000BCB4C51
:03018A000BCF6236
:03018B000BD37221
:03018C000BD77C12
:03018D000BDB8207
:03018E000BDF8202
:03018F000BE37E01
:030190000BE7700A
:030191000BEB581D
:030192000BEF422E
:030193000BF31C4F
:030194000BF6F671
:030195000BFACC96
:030196000BFE96C7
:030197000C0260F7
:030198000C061E34
:030199000C09DA74
:03019A000C0D8CBD
:03019B000C113A0A
:03019C000C14E45C
:03019D000C188EAD
:03019E000C1C2C0A
:03019F000C1FC66C
:0301A0000C2358D5
:0301A1000C26E049
:0301A2000C2A68BC
:0301A3000C2DF42C
:0301A4000C3170AB
:0301A5000C34E631
:0301A6000C385CB6
:0301A7000C3BC846
:0301A8000C3F30D9
:0301A9000C429075
:0301AA000C45EE13
:0301AB000C4948B4
:0301AC000C4C9E5A
:0301AD000C4FEA0A
:0301AE000C533EB1
:0301AF000C567C6F
:0301B0000C59C225
:0301B1000C5CFCE7
:0301B2000C6032AC
:0301B3000C636674
:0301B4000C669640
:0301B5000C69BE14
:0301B6000C6CDEF0
:0301B7000C7004C5
:0301B8000C731CA9
:0301B9000C76348D
:0301BA000C794479
:0301BB000C7C5663
:0301BC000C7F5C59
:0301BD000C82644D
:0301BE000C856449
:0301BF000C886049
:0301C0000C8B584D
:0301C1000C8E5051
:0301C2000C913C61
:0301C3000C942673
:0301C4000C971283
:0301C5000C99F89A
:0301C6000C9CD8B6
:0301C7000C9FB0DA
:0301C8000CA28600
:0301C9000CA55A28
:0301CA000CA82856
:0301CB000CAAF487
:0301CC000CADC0B7
:0301CD000CB080F3
:0301CE000CB3422D
:0301CF000CB5FA72
:0301D0000CB8B0B8
:0301D1000CBB68FC
:0301D2000CBE1C44
:0301D3000CC0C895
:0301D4000CC372E7
:0301D5000CC61C39
:0301D6000CC8BE94
:0301D7000CCB5CF2
:0301D8000CCDF655
:0301D9000CD08EB9
:0301DA000CD32023
:0301DB000CD5B48C
:0301DC000CD83C00
:0301DD000CDAC673
:0301DE000CDD50E5
:0301DF000CDFD45E
:0301E0000CE250DE
:0301E1000CE4CE5D
:0301E2000CE748DF
:0301E3000CE9C262
:0301E4000CEC32EE
:0301E5000CEEA479
:0301E6000CF11009
:0301E7000CF376A0
:0301E8000CF5DE35
:0301E9000CF842CD
:0301EA000CFAA26A
:0301EB000CFCFC0D
:0301EC000CFF54B1
:0301ED000D01AC55
:0301EE000D03FE00
:0301EF000D064EAC
:0301F0000D08A057
:0301F1000D0AE410
:0301F2000D0D30C0
:0301F3000D0F7479
:0301F4000D11B634
:0301F5000D13F0F7
:0301F6000D162EB5
:0301F7000D186A76
:0301F8000D1AA23B
:0301F9000D1CD00A
:0301FA000D1F00D6
:0301FB000D2130A3
:0301FC000D235A76
:0301FD000D258647
:0301FE000D27AC1E
:0301FF000D29C8FF
:00000001ff
