:020000040000FA
:03000000040000F9
:0300010003FE01FA
:0300020003FC05F7
:0300030003FA0BF2
:0300040003F815E9
:0300050003F620DF
:0300060003F42FD1
:0300070003F240C1
:0300080003F053AF
:0300090003EE699A
:03000A0003EC8183
:03000B0003EA9C69
:03000C0003E8B94D
:03000D0003E6D92E
:03000E0003E4FB0D
:03000F0003E31FE9
:0300100003E146C3
:0300110003DF6F9B
:0300120003DD9A71
:0300130003DBC844
:0300140003D9F716
:0300150003D82AE3
:0300160003D65EB0
:0300170003D4947B
:0300180003D2CD43
:0300190003D10808
:03001A0003CF45CC
:03001B0003CD858D
:03001C0003CBC64D
:03001D0003CA090A
:03001E0003C84FC5
:03001F0003C6977E
:0300200003C4E036
:0300210003C32CEA
:0300220003C17A9D
:0300230003BFCA4E
:0300240003BE1CFC
:0300250003BC6FAA
:0300260003BAC555
:0300270003B91DFD
:0300280003B776A5
:0300290003B5D24A
:03002A0003B430EC
:03002B0003B28F8E
:03002C0003B0F02E
:03002D0003AF53CB
:03002E0003ADB867
:03002F0003AC1F00
:0300300003AA8898
:0300310003A8F22F
:0300320003A75EC3
:0300330003A5CC56
:0300340003A43CE6
:0300350003A2AD76
:0300360003A12102
:03003700039F968E
:03003800039E0C18
:03003900039C85A0
:03003A00039AFF27
:03003B0003997BAB
:03003C000397F82F
:03003D00039677B0
:03003E000394F830
:03003F0003937AAE
:030040000391FE2B
:03004100039084A5
:03004200038F0B1E
:03004300038D9496
:03004400038C1E0C
:03004500038AAA81
:03004600038938F3
:030047000387C765
:03004800038658D4
:030049000384EA43
:03004A0003837DB0
:03004B000382121B
:03004C000380A985
:03004D00037F41ED
:03004E00037DDB54
:03004F00037C76B9
:03005000037B121D
:030051000379B080
:0300520003784FE1
:030053000376F041
:030054000375929F
:03005500037436FB
:030056000372DB57
:03005700037181B1
:0300580003702909
:03005900036ED261
:03005A00036D7CB7
:03005B00036C280B
:03005C00036AD55F
:03005D00036984B0
:03005E0003683301
:03005F000366E451
:030060000365979E
:0300610003644AEB
:030062000362FF37
:030063000361B680
:0300640003606DC9
:03006500035F2610
:03006600035DE057
:03006700035C9B9C
:03006800035B58DF
:03006900035A1621
:03006A000358D464
:03006B00035795A3
:03006C00035656E2
:03006D000355191F
:03006E000353DC5D
:03006F000352A198
:03007000035167D2
:0300710003502F0A
:03007200034EF743
:03007300034DC179
:03007400034C8CAE
:03007500034B58E2
:03007600034A2515
:030077000348F348
:030078000347C279
:03007900034693A8
:03007A00034564D7
:03007B0003443704
:03007C0003430A31
:03007D000341DF5D
:03007E000340B587
:03007F00033F8CB0
:03008000033E64D8
:03008100033D3DFF
:03008200033C1725
:03008300033AF24B
:030084000339CF6E
:030085000338AC91
:0300860003378AB3
:03008700033669D4
:0300880003354AF3
:0300890003342B12
:03008A0003330D30
:03008B000331F14D
:03008C000330D569
:03008D00032FBB83
:03008E00032EA19D
:03008F00032D88B6
:03009000032C70CE
:03009100032B5AE4
:03009200032A44FA
:0300930003292F0F
:0300940003281B23
:0300950003270836
:030096000325F649
:030097000324E55A
:030098000323D56A
:030099000322C679
:03009A000321B788
:03009B000320AA95
:03009C00031F9DA2
:03009D00031E92AD
:03009E00031D87B8
:03009F00031C7DC2
:0300A000031B74CB
:0300A100031A6CD3
:0300A200031965DA
:0300A30003185FE0
:0300A400031759E6
:0300A500031655EA
:0300A600031551EE
:0300A70003144EF1
:0300A80003134CF3
:0300A90003124BF4
:0300AA0003114BF4
:0300AB0003104BF4
:0300AC00030F4DF2
:0300AD00030E4FF0
:0300AE00030D52ED
:0300AF00030C56E9
:0300B000030B5AE5
:0300B100030A60DF
:0300B200030966D9
:0300B30003086DD2
:0300B400030775CA
:0300B50003067DC2
:0300B600030587B8
:0300B700030491AE
:0300B80003039CA3
:0300B9000302A897
:0300BA000301B48B
:0300BB000300C27D
:0300BC0002FFD070
:0300BD0002FEDE62
:0300BE0002FDEE52
:0300BF0002FCFE42
:0300C00002FC0F30
:0300C10002FB211E
:0300C20002FA340B
:0300C30002F947F8
:0300C40002F85BE4
:0300C50002F770CF
:0300C60002F685BA
:0300C70002F59BA4
:0300C80002F4B28D
:0300C90002F3CA75
:0300CA0002F2E25D
:0300CB0002F1FB44
:0300CC0002F11529
:0300CD0002F0300E
:0300CE0002EF4BF3
:0300CF0002EE67D7
:0300D00002ED83BB
:0300D10002ECA09E
:0300D20002EBBE80
:0300D30002EADD61
:0300D40002E9FC42
:0300D50002E91C21
:0300D60002E83C01
:0300D70002E75EDF
:0300D80002E680BD
:0300D90002E5A29B
:0300DA0002E4C578
:0300DB0002E3E954
:0300DC0002E30E2E
:0300DD0002E23309
:0300DE0002E159E3
:0300DF0002E07FBD
:0300E00002DFA696
:0300E10002DECE6E
:0300E20002DDF646
:0300E30002DD1F1C
:0300E40002DC49F2
:0300E50002DB73C8
:0300E60002DA9E9D
:0300E70002D9CA71
:0300E80002D8F645
:0300E90002D82218
:0300EA0002D750EA
:0300EB0002D67DBD
:0300EC0002D5AC8E
:0300ED0002D4DB5F
:0300EE0002D40B2E
:0300EF0002D33BFE
:0300F00002D26CCD
:0300F10002D19D9C
:0300F20002D0CF6A
:0300F30002D00236
:0300F40002CF3503
:0300F50002CE69CF
:0300F60002CD9D9B
:0300F70002CCD266
:0300F80002CC082F
:0300F90002CB3EF9
:0300FA0002CA74C3
:0300FB0002C9AC8B
:0300FC0002C8E354
:0300FD0002C81C1A
:0300FE0002C755E1
:0300FF0002C68EA8
:0301000002C5C86D
:0301010002C48EA7
:0301020002C357DE
:0301030002C22015
:0301040002C0EB4B
:0301050002BFB87E
:0301060002BE86B0
:0301070002BD55E1
:0301080002BC2610
:0301090002BAF93E
:03010A0002B9CD6A
:03010B0002B8A295
:03010C0002B779BE
:03010D0002B651E6
:03010E0002B52A0D
:03010F0002B40532
:0301100002B2E256
:0301110002B1BF79
:0301120002B09E9A
:0301130002AF7EBA
:0301140002AE60D8
:0301150002AD43F5
:0301160002AC2711
:0301170002AB0D2B
:0301180002A9F346
:0301190002A8DC5D
:03011A0002A7C574
:03011B0002A6AF8A
:03011C0002A59B9E
:03011D0002A488B1
:03011E0002A376C3
:03011F0002A266D3
:0301200002A157E2
:0301210002A049F0
:03012200029F3CFD
:03012300029E3009
:03012400029D2514
:03012500029C1C1D
:03012600029B1425
:03012700029A0C2D
:0301280002990633
:0301290002980138
:03012A000296FE3C
:03012B000295FB3F
:03012C000294F941
:03012D000293F941
:03012E000292FA40
:03012F000291FB3F
:030130000290FE3C
:0301310002900237
:03013200028F0732
:03013300028E0D2C
:03013400028D1425
:03013500028C1C1D
:03013600028B2514
:03013700028A2F0A
:0301380002893AFF
:03013900028846F3
:03013A00028753E6
:03013B00028661D8
:03013C00028570C9
:03013D00028480B9
:03013E00028391A8
:03013F000282A396
:030140000281B683
:030141000280C970
:03014200027FDE5B
:03014300027EF445
:03014400027E0B2D
:03014500027D2216
:03014600027C3BFD
:03014700027B54E4
:03014800027A6ECA
:03014900027989AF
:03014A000278A692
:03014B000277C276
:03014C000276E058
:03014D000275FF39
:03014E0002751F18
:03014F0002743FF8
:03015000027360D7
:03015100027283B4
:030152000271A592
:030153000270C96E
:03015400026FEE49
:03015500026F1422
:03015600026E3AFC
:03015700026D61D5
:03015800026C89AD
:03015900026BB284
:03015A00026ADB5B
:03015B00026A062F
:03015C0002693104
:03015D0002685DD8
:03015E0002678AAB
:03015F000266B77E
:030160000265E550
:0301610002651420
:03016200026444F0
:03016300026375BF
:030164000262A68E
:030165000261D85C
:0301660002610B28
:0301670002603FF4
:03016800025F73C0
:03016900025EA88B
:03016A00025DDE55
:03016B00025D141E
:03016C00025C4BE7
:03016D00025B83AF
:03016E00025ABC76
:03016F000259F53D
:0301700002592F02
:0301710002586AC7
:030172000257A58C
:030173000256E24F
:0301740002561E12
:0301750002555CD4
:0301760002549A96
:030177000253D957
:0301780002531817
:03017900025258D7
:03017A0002519996
:03017B000250DB54
:03017C0002501D11
:03017D00024F60CE
:03017E00024EA38B
:03017F00024DE747
:03018000024D2C01
:03018100024C71BC
:03018200024BB776
:03018300024AFE2F
:03018400024A45E7
:0301850002498D9F
:030186000248D557
:0301870002481E0D
:03018800024768C3
:030189000246B279
:03018A000245FD2E
:03018B00024548E2
:03018C0002449595
:03018D000243E149
:03018E0002432EFB
:03018F0002427CAD
:030190000241CB5E
:0301910002411A0E
:03019200024069BF
:03019300023FB96F
:03019400023F0A1D
:03019500023E5BCC
:03019600023DAD7A
:03019700023D0026
:03019800023C53D3
:03019900023BA680
:03019A00023AFA2C
:03019B00023A4FD6
:03019C000239A481
:03019D000238FA2B
:03019E00023850D4
:03019F000237A77D
:0301A0000236FE26
:0301A100023656CD
:0301A2000235AE75
:0301A3000235071B
:0301A400023460C2
:0301A5000233BA68
:0301A6000233150C
:0301A700023270B1
:0301A8000231CB56
:0301A900023127F9
:0301AA000230849C
:0301AB00022FE13F
:0301AC00022F3EE1
:0301AD00022E9C83
:0301AE00022DFB24
:0301AF00022D5AC4
:0301B000022CB965
:0301B100022C1904
:0301B200022B7AA3
:0301B300022ADA43
:0301B400022A3CE0
:0301B50002299E7E
:0301B6000229001B
:0301B700022863B8
:0301B8000227C655
:0301B90002272AF0
:0301BA0002268E8C
:0301BB000225F327
:0301BC00022558C1
:0301BD000224BE5B
:0301BE00022424F4
:0301BF0002238A8E
:0301C0000222F127
:0301C100022259BE
:0301C2000221C156
:0301C300022129ED
:0301C40002209284
:0301C500021FFB1B
:0301C600021F65B0
:0301C700021ECF46
:0301C800021E39DB
:0301C900021DA470
:0301CA00021D1003
:0301CB00021C7B98
:0301CC00021BE82B
:0301CD00021B54BE
:0301CE00021AC151
:0301CF00021A2FE2
:0301D00002199D74
:0301D10002190B05
:0301D20002187A96
:0301D3000217E927
:0301D400021759B6
:0301D5000216C847
:0301D600021639D5
:0301D7000215AA64
:0301D80002151BF2
:0301D90002148C81
:0301DA000213FE0F
:0301DB000213719B
:0301DC000212E428
:0301DD00021257B4
:0301DE000211CA41
:0301DF0002113ECC
:0301E0000210B357
:0301E100021027E2
:0301E200020F9C6D
:0301E300020F12F6
:0301E400020E8880
:0301E500020DFE0A
:0301E600020D7592
:0301E700020CEC1B
:0301E800020C63A3
:0301E900020BDB2B
:0301EA00020B53B2
:0301EB00020ACB3A
:0301EC00020A44C0
:0301ED000209BD47
:0301EE00020937CC
:0301EF000208B152
:0301F00002082BD7
:0301F1000207A65C
:0301F200020721E0
:0301F30002069C65
:0301F400020618E8
:0301F5000205946C
:0301F600020510EF
:0301F70002048D72
:0301F80002040AF4
:0301F90002038876
:0301FA00020306F7
:0301FB0002028479
:0301FC00020202FA
:0301FD000201817B
:0301FE00020100FB
:0301FF000200807B
:00000001ff
