:020000040000FA
:03000000004F3777
:030001000AAB4AFD
:03000200050FC423
:030003000F7C91DE
:0300040009F19B64
:03000500046ED0B6
:030006000EF419DC
:0300070009816507
:030008000416A03B
:030009000EB3B67D
:03000A00095894FE
:03000B00040528C1
:03000C000EB960CA
:03000D000975284A
:03000E0004387043
:03000F000F0326B6
:0300100009D538D7
:0300110004AE94A6
:030012000F8F2A23
:030013000A76E981
:030014000565C0BF
:03001500005B9FEE
:030016000B58760E
:03001700065C3450
:030018000166CAB4
:030019000C782937
:03001A000790400C
:03001B0002AF0130
:03001C000DD45CA4
:03001D0009004493
:03001E000432A801
:03001F000F6B7BE9
:030020000AAAAF7A
:0300210005F034B3
:03002200013BFEA1
:030023000C8DFE43
:0300240007E627C5
:0300250003446C25
:030026000EA8BE63
:030027000A1311A8
:03002800058358F5
:0300290000F98754
:03002A000C758FC3
:03002B0007F7666E
:03002C00037EFE52
:03002D000F0C4B6A
:03002E000A9F41E5
:03002F000637D4BD
:0300300001D5F9FE
:030031000D79A3A3
:030032000922C7D9
:0300330004D15A9B
:03003400008550F4
:030035000C3E9EE0
:0300360007FD398A
:0300370003C117EB
:030038000F8A2C00
:030039000B586EF3
:03003A00072BD1C0
:03003B0003044D6E
:03003C000EE1D6FC
:03003D000AC46290
:03003E0006ABE727
:03003F0002985CC8
:030040000E89B571
:030041000A7FEA49
:03004200067AF14A
:03004300027AC07E
:030044000E7F4EDE
:030045000A889195
:030046000696819A
:0300470002A913F8
:030048000EC040A7
:030049000ADBFDD2
:03004A0006FC436E
:03004B0003210886
:03004C000F4A4414
:03004D000B77EE40
:03004E0007A9FE01
:03004F0003E06B60
:03005000001B2C66
:030051000C5A3B0B
:03005200089D8E78
:0300530004E51DA4
:030054000130E197
:030055000D80D249
:0300560009D4E7E3
:03005700062D195A
:03005800028961B9
:030059000EE9B7F6
:03005A000B4E1238
:03005B0007B66D78
:03005C000422BFBC
:03005D000093020B
:03005E000D072D5E
:03005F00097F3ADC
:0300600005FB237A
:03006100027ADE42
:030062000EFE6728
:030063000B85B654
:030064000810C5BC
:03006500049F8B6A
:0300660001320460
:030067000DC82899
:030068000A61F139
:0300690006FF5837
:03006A0003A0569A
:03006B000044E767
:03006C000CED0395
:03006D000998A34C
:03006E000647C37F
:03006F0002FA5C36
:030070000FB06767
:030071000C69DF38
:030072000926BE9E
:0300730005E6FEA1
:0300740002AA9944
:030075000F71897F
:030076000C3BC977
:0300770009095321
:0300780005DA2284
:0300790002AE2FA5
:03007A000F857679
:03007B000C5FF126
:03007C00093D9AA1
:03007D00061E6DEF
:03007E0003026317
:03007F000FE9780E
:030080000CD3A7F7
:0300810009C0E9CA
:0300820006B13B89
:0300830003A4973C
:03008400009AF9E6
:030085000D945A7D
:030086000A90B627
:03008700079009D6
:0300880004924D92
:0300890001977E5E
:03008A000E9F972F
:03008B000BAA932A
:03008C0008B86D44
:03008D0005C92280
:03008E0002DCACE5
:03008F000FF30666
:030090000D0C2D27
:030091000A281C1E
:030092000746CE50
:0300930004683FBF
:03009400018C6A72
:030095000EB34C5B
:030096000BDCE0A0
:0300970009092232
:0300980006380D1A
:0300990003699E5A
:03009A00009DD0F6
:03009B000DD49FE2
:03009C000B0E0840
:03009D00084A0509
:03009E000588933F
:03009F0002C9AFE4
:0300A000000D54FC
:0300A1000D537E7E
:0300A2000A9C2A8B
:0300A30007E75319
:0300A4000534F62A
:0300A500028510C1
:0300A6000FD79BD6
:0300A7000D2C9588
:0300A8000A83FACE
:0300A90007DDC7A9
:0300AA000539F71E
:0300AB0002988731
:0300AC000FF974D5
:0300AD000D5CBA2D
:0300AE000AC2552E
:0300AF00082A43D9
:0300B00005947F35
:0300B10003010642
:0300B200006FD507
:0300B3000DE0E974
:0300B4000B543DAD
:0300B50008C9D0A7
:0300B60006419D63
:0300B70003BBA1E7
:0300B8000137DA33
:0300B9000EB6433D
:0300BA000C36DB26
:0300BB0009B99CE4
:0300BC00073E8577
:0300BD0004C593E4
:0300BE00024EC22D
:0300BF000FDA0F46
:0300C0000D677752
:0300C1000AF6F745
:0300C20008888D1E
:0300C300061C34E4
:0300C40003B1EB9A
:0300C5000149AF3F
:0300C6000EE37CCA
:0300C7000C7F4F5C
:0300C8000A1D27E7
:0300C90007BCFF72
:0300CA00055ED6FA
:0300CB000302A885
:0300CC0000A87217
:0300CD000E50339F
:0300CE000BF9E744
:0300CF0009A58BF5
:0300D00007531DB6
:0300D10005029A8B
:0300D20002B3FF77
:0300D30000674B78
:0300D4000E1C7A85
:0300D5000BD389C1
:0300D600098C771B
:0300D70007474098
:0300D8000503E33A
:0300D90002C25C04
:0300DA000082A9F8
:0300DB000E44C808
:0300DC000C08B657
:0300DD0009CE70D9
:0300DE000795F68D
:0300DF00055F4377
:0300E000032A559B
:0300E10000F72BFA
:0300E2000EC5C286
:0300E3000C961860
:0300E4000A68297E
:0300E500083BF5E0
:0300E60006117888
:0300E70003E8B17A
:0300E80001C19DB6
:0300E9000F9C3A2F
:0300EA000D788608
:0300EB000B567E33
:0300EC00093621B1
:0300ED0007176B87
:0300EE0004FA5CB5
:0300EF0002DEF13D
:0300F00000C52820
:0300F1000EACFE54
:0300F2000C9673F6
:0300F3000A8182FD
:0300F400086E2B68
:0300F500065C6C3A
:0300F600044C4275
:0300F700023DAB1C
:0300F8000030A62F
:0300F9000E2530A1
:0300FA000C1B4894
:0300FB000A12EBFB
:0300FC00080C18D5
:0300FD000606CC28
:0300FE00040306F2
:0300FF000200C438
:03010000000008F4
:03010100080602EB
:030102000017E003
:030103000835823A
:03010400005ECCCE
:030105000893A2BA
:0301060000D3E63D
:03010700091F7C51
:0301080001764C31
:0301090009D838DA
:03010A0002452487
:03010B000ABCFA31
:03010C00033F9C12
:03010D000BCCF226
:03010E000464E2A4
:03010F000D075287
:0301100005B42C07
:030111000E6B561C
:03011200072CB8FF
:030113000FF838AA
:0301140008CDC251
:0301150001AD3EFB
:030116000A9694B2
:030117000389AEAB
:030118000C8676DC
:03011900058CD47E
:03011A000E9CB484
:03011B0007B60024
:03011C0000D8A464
:03011D000A048A47
:03011E0003399C06
:03011F000C77C892
:0301200005BEF623
:030121000F0F16A7
:0301220008681456
:0301230001C9DA35
:030124000B345643
:0301250004A774B8
:030126000E232481
:0301270007A750D7
:030128000133E8B8
:030129000AC8D829
:03012A0004661058
:03012B000E0B7C3C
:03012C0007B90C04
:03012D00016EB0B0
:03012E000B2C5443
:03012F0004F1E8F0
:030130000EBF5CA3
:030131000894A08F
:030132000271A2B5
:030133000C565215
:030134000642A2DE
:0301350000368011
:030136000A31DEAD
:030137000434ACE1
:030138000E3EDA9E
:0301390008505813
:03013A0002691A3D
:03013B000C89101C
:03013C0006B02AE0
:03013D0000DE5C85
:03013E000B13960A
:03013F00054FCA9F
:030140000F92EA31
:0301410009DCEAEC
:03014200042DBACF
:030143000E854CDA
:0301440008E39637
:03014500034888E4
:030146000DB416DF
:0301470008263255
:03014800029ED044
:030149000D1DE4A5
:03014A0007A360A8
:03014B00022F3848
:03014C000CC16281
:03014D000759CE81
:03014E0001F87243
:03014F000C9D42C2
:0301500007483429
:0301510001F93879
:030152000CB048A6
:03015300076D54E1
:0301540002305224
:030155000CF9386A
:0301560007C7F8E0
:03015700029C8C7B
:030158000D76E63B
:030159000856FA4B
:03015A00033CC0A3
:03015B000E282C3F
:03015C0009193648
:03015D00040FD0BC
:03015E000F0BF292
:03015F000A0D92F4
:030160000514A6DD
:0301610000212456
:030162000B33005C
:03016300064A3415
:030164000166B47D
:030165000C88768D
:0301660007AF726E
:0301670002DBA018
:030168000E0CF486
:03016900094366E1
:03016A00047EEE22
:03016B000FBF8043
:03016C000B05166A
:03016D00064FA694
:03016E00019F28C6
:03016F000CF394FA
:03017000084CE058
:0301710003AB02DB
:030172000F0DF678
:030173000A75B05A
:0301740005E22879
:03017500015358DB
:030176000CC93879
:030177000843BE7C
:0301780003C2E2DD
:030179000F469E90
:03017A000ACEE8C2
:03017B00065BBC64
:03017C0001ED0E84
:03017D000D82D818
:03017E00091D1444
:03017F0004BBB806
:03018000005EC05E
:030181000C062247
:0301820007B1D8EA
:030183000361DA3B
:030184000F162033
:030185000ACEA6F9
:03018600068B6481
:03018700024C50D7
:030188000E1168ED
:0301890009DAA0F0
:03018A0005A7F6D0
:03018B0001796295
:03018C000D4EDC39
:03018D0009285EE0
:03018E000505E282
:03018F0000E76026
:030190000CCCD4C0
:0301910008B63875
:0301920004A38241
:030193000094B025
:030194000C89BA19
:0301950008829845
:03019600047F489B
:03019700007FC026
:030198000C83FED7
:03019900088BF8D8
:03019A000497AC1B
:03019B0000A712A8
:03019C000CBA2476
:03019D0008D0DCAB
:03019E0004EB3639
:03019F0001092C27
:0301A0000D2AB86D
:0301A100094FD62D
:0301A20005787E5F
:0301A30001A4AA0A
:0301A4000DD4581F
:0301A5000A0782C4
:0301A600063E20F2
:0301A700027830AB
:0301A8000EB5AAE7
:0301A9000AF68CC7
:0301AA00073ACE43
:0301AB0003826C60
:0301AC000FCD6014
:0301AD000C1BA880
:0301AE00086D3A9F
:0301AF0004C2186F
:0301B000011A36FB
:0301B1000D759435
:0301B20009D42C41
:0301B3000635F816
:0301B400029AF4B8
:0301B5000F031C19
:0301B6000B6E6C61
:0301B70007DCDC86
:0301B800044E6C86
:0301B90000C3146C
:0301BA000D3AD229
:0301BB0009B59EE5
:0301BC000633788F
:0301BD0002B45831
:0301BE000F383CBB
:0301BF000BBF1E55
:0301C0000848FCF0
:0301C10004D5CE94
:0301C20001659440
:0301C3000DF848EC
:0301C4000A8DE4BD
:0301C500072666A4
:0301C60003C1CAA8
:0301C70000600CC9
:0301C8000D0128FE
:0301C90009A5186D
:0301CA00064BDA07
:0301CB0002F56AD0
:0301CC000FA1C2BE
:0301CD000C50E2F1
:0301CE000902C261
:0301CF0005B7620F
:0301D000026EBC00
:0301D1000F28CC28
:0301D2000BE58EAC
:0301D30008A5007C
:0301D40005671E9E
:0301D500022BE218
:0301D6000EF34CD9
:0301D7000BBD5607
:0301D8000889FE95
:0301D90005593E87
:0301DA00022B16DF
:0301DB000EFF7E96
:0301DC000BD678C7
:0301DD0008AFFC6C
:0301DE00058C0885
:0301DF00026A9819
:0301E0000F4BAC16
:0301E1000C2F3CA4
:0301E200091548B4
:0301E30005FDCA4D
:0301E40002E8C26C
:0301E5000FD62A08
:0301E6000CC60044
:0301E70009B84212
:0301E80006ACEA78
:0301E90003A3F677
:0301EA00009D6411
:0301EB000D99303B
:0301EC000A975817
:0301ED000797D69B
:0301EE00049AAAC6
:0301EF00019FD09D
:0301F0000EA74413
:0301F1000BB10649
:0301F20008BD0E37
:0301F30005CB5EDB
:0301F40002DBF03B
:0301F5000FEEC446
:0301F6000D03D422
:0301F7000A1B1EC2
:0301F8000734A029
:0301F90004505857
:0301FA00016E4251
:0301FB000E8E5A0B
:0301FC000BB0A0A5
:0301FD0008D50E14
:0301FE0005FBA45A
:0301FF0003246076
:00000001ff
