:020000040000FA
:020000000200FC
:020001000202F9
:020002000205F5
:020003000207F2
:02000400020AEE
:02000500020DEA
:02000600020FE7
:020007000212E3
:020008000214E0
:020009000217DC
:02000A000219D9
:02000B00021BD6
:02000C00021ED2
:02000D000220CF
:02000E000223CB
:02000F000225C8
:020010000227C5
:02001100022AC1
:02001200022CBE
:02001300022EBB
:020014000231B7
:020015000233B4
:020016000235B1
:020017000237AE
:020018000239AB
:02001900023CA7
:02001A00023EA4
:02001B000240A1
:02001C0002429E
:02001D0002449B
:02001E00024698
:02001F00024895
:02002000024A92
:02002100024C8F
:02002200024E8C
:02002300025089
:02002400025286
:02002500025483
:02002600025680
:0200270002587D
:02002800025A7A
:02002900025C77
:02002A00025E74
:02002B00026071
:02002C0002626E
:02002D0002646B
:02002E00026569
:02002F00026766
:02003000026963
:02003100026B60
:02003200026D5D
:02003300026E5B
:02003400027058
:02003500027255
:02003600027452
:02003700027550
:0200380002774D
:0200390002794A
:02003A00027A48
:02003B00027C45
:02003C00027E42
:02003D00027F40
:02003E0002813D
:02003F0002833A
:02004000028438
:02004100028635
:02004200028832
:02004300028930
:02004400028B2D
:02004500028C2B
:02004600028E28
:02004700028F26
:02004800029123
:02004900029221
:02004A0002941E
:02004B0002951C
:02004C00029719
:02004D00029817
:02004E00029A14
:02004F00029B12
:02005000029D0F
:02005100029E0D
:0200520002A00A
:0200530002A108
:0200540002A206
:0200550002A403
:0200560002A501
:0200570002A7FE
:0200580002A8FC
:0200590002A9FA
:02005A0002ABF7
:02005B0002ACF5
:02005C0002ADF3
:02005D0002AFF0
:02005E0002B0EE
:02005F0002B1EC
:0200600002B3E9
:0200610002B4E7
:0200620002B5E5
:0200630002B6E3
:0200640002B8E0
:0200650002B9DE
:0200660002BADC
:0200670002BBDA
:0200680002BDD7
:0200690002BED5
:02006A0002BFD3
:02006B0002C0D1
:02006C0002C1CF
:02006D0002C3CC
:02006E0002C4CA
:02006F0002C5C8
:0200700002C6C6
:0200710002C7C4
:0200720002C9C1
:0200730002CABF
:0200740002CBBD
:0200750002CCBB
:0200760002CDB9
:0200770002CEB7
:0200780002CFB5
:0200790002D0B3
:02007A0002D2B0
:02007B0002D3AE
:02007C0002D4AC
:02007D0002D5AA
:02007E0002D6A8
:02007F0002D7A6
:0200800002D8A4
:0200810002D9A2
:0200820002DAA0
:0200830002DB9E
:0200840002DC9C
:0200850002DD9A
:0200860002DE98
:0200870002DF96
:0200880002E094
:0200890002E192
:02008A0002E290
:02008B0002E38E
:02008C0002E48C
:02008D0002E58A
:02008E0002E688
:02008F0002E786
:0200900002E884
:0200910002E982
:0200920002EA80
:0200930002EB7E
:0200940002EC7C
:0200950002ED7A
:0200960002EE78
:0200970002EF76
:0200980002F074
:0200990002F172
:02009A0002F270
:02009B0002F36E
:02009C0002F36D
:02009D0002F46B
:02009E0002F569
:02009F0002F667
:0200A00002F765
:0200A10002F863
:0200A20002F961
:0200A30002FA5F
:0200A40002FB5D
:0200A50002FB5C
:0200A60002FC5A
:0200A70002FD58
:0200A80002FE56
:0200A90002FF54
:0200AA00030051
:0200AB00030050
:0200AC0003014E
:0200AD0003024C
:0200AE0003034A
:0200AF00030448
:0200B000030546
:0200B100030545
:0200B200030643
:0200B300030741
:0200B40003083F
:0200B50003093D
:0200B60003093C
:0200B700030A3A
:0200B800030B38
:0200B900030C36
:0200BA00030C35
:0200BB00030D33
:0200BC00030E31
:0200BD00030F2F
:0200BE00030F2E
:0200BF0003102C
:0200C00003112A
:0200C100031228
:0200C200031227
:0200C300031325
:0200C400031423
:0200C500031521
:0200C600031520
:0200C70003161E
:0200C80003171C
:0200C90003171B
:0200CA00031819
:0200CB00031917
:0200CC00031A15
:0200CD00031A14
:0200CE00031B12
:0200CF00031C10
:0200D000031C0F
:0200D100031D0D
:0200D200031E0B
:0200D300031E0A
:0200D400031F08
:0200D500032006
:0200D600032005
:0200D700032103
:0200D800032201
:0200D900032200
:0200DA000323FE
:0200DB000324FC
:0200DC000324FB
:0200DD000325F9
:0200DE000326F7
:0200DF000326F6
:0200E0000327F4
:0200E1000328F2
:0200E2000328F1
:0200E3000329EF
:0200E4000329EE
:0200E500032AEC
:0200E600032BEA
:0200E700032BE9
:0200E800032CE7
:0200E900032CE6
:0200EA00032DE4
:0200EB00032EE2
:0200EC00032EE1
:0200ED00032FDF
:0200EE00032FDE
:0200EF000330DC
:0200F0000331DA
:0200F1000331D9
:0200F2000332D7
:0200F3000332D6
:0200F4000333D4
:0200F5000334D2
:0200F6000334D1
:0200F7000335CF
:0200F8000335CE
:0200F9000336CC
:0200FA000336CB
:0200FB000337C9
:0200FC000338C7
:0200FD000338C6
:0200FE000339C4
:0200FF000339C3
:0201000002C536
:0201010002C733
:0201020002C831
:0201030002CA2E
:0201040002CB2C
:0201050002CD29
:0201060002CE27
:0201070002D024
:0201080002D122
:0201090002D31F
:02010A0002D41D
:02010B0002D61A
:02010C0002D718
:02010D0002D816
:02010E0002DA13
:02010F0002DB11
:0201100002DC0F
:0201110002DE0C
:0201120002DF0A
:0201130002E008
:0201140002E205
:0201150002E303
:0201160002E401
:0201170002E6FE
:0201180002E7FC
:0201190002E8FA
:02011A0002E9F8
:02011B0002EBF5
:02011C0002ECF3
:02011D0002EDF1
:02011E0002EEEF
:02011F0002F0EC
:0201200002F1EA
:0201210002F2E8
:0201220002F3E6
:0201230002F4E4
:0201240002F5E2
:0201250002F7DF
:0201260002F8DD
:0201270002F9DB
:0201280002FAD9
:0201290002FBD7
:02012A0002FCD5
:02012B0002FDD3
:02012C0002FED1
:02012D000300CD
:02012E000301CB
:02012F000302C9
:020130000303C7
:020131000304C5
:020132000305C3
:020133000306C1
:020134000307BF
:020135000308BD
:020136000309BB
:02013700030AB9
:02013800030BB7
:02013900030CB5
:02013A00030DB3
:02013B00030EB1
:02013C00030FAF
:02013D000310AD
:02013E000311AB
:02013F000312A9
:020140000313A7
:020141000314A5
:020142000315A3
:020143000316A1
:0201440003179F
:0201450003189D
:0201460003189C
:0201470003199A
:02014800031A98
:02014900031B96
:02014A00031C94
:02014B00031D92
:02014C00031E90
:02014D00031F8E
:02014E0003208C
:02014F0003208B
:02015000032189
:02015100032287
:02015200032385
:02015300032483
:02015400032581
:02015500032580
:0201560003267E
:0201570003277C
:0201580003287A
:02015900032978
:02015A00032977
:02015B00032A75
:02015C00032B73
:02015D00032C71
:02015E00032D6F
:02015F00032D6E
:02016000032E6C
:02016100032F6A
:02016200033068
:02016300033067
:02016400033165
:02016500033263
:02016600033361
:02016700033360
:0201680003345E
:0201690003355C
:02016A0003365A
:02016B00033659
:02016C00033757
:02016D00033855
:02016E00033854
:02016F00033952
:02017000033A50
:02017100033B4E
:02017200033B4D
:02017300033C4B
:02017400033D49
:02017500033D48
:02017600033E46
:02017700033F44
:02017800033F43
:02017900034041
:02017A0003413F
:02017B0003413E
:02017C0003423C
:02017D0003433A
:02017E00034339
:02017F00034437
:02018000034535
:02018100034534
:02018200034632
:02018300034631
:0201840003472F
:0201850003482D
:0201860003482C
:0201870003492A
:02018800034929
:02018900034A27
:02018A00034B25
:02018B00034B24
:02018C00034C22
:02018D00034C21
:02018E00034D1F
:02018F00034E1D
:02019000034E1C
:02019100034F1A
:02019200034F19
:02019300035017
:02019400035016
:02019500035114
:02019600035212
:02019700035211
:0201980003530F
:0201990003530E
:02019A0003540C
:02019B0003540B
:02019C00035509
:02019D00035508
:02019E00035606
:02019F00035704
:0201A000035703
:0201A100035801
:0201A200035800
:0201A3000359FE
:0201A4000359FD
:0201A500035AFB
:0201A600035AFA
:0201A700035BF8
:0201A800035BF7
:0201A900035CF5
:0201AA00035CF4
:0201AB00035DF2
:0201AC00035DF1
:0201AD00035EEF
:0201AE00035EEE
:0201AF00035FEC
:0201B000035FEB
:0201B1000360E9
:0201B2000360E8
:0201B3000361E6
:0201B4000361E5
:0201B5000362E3
:0201B6000362E2
:0201B7000363E0
:0201B8000363DF
:0201B9000364DD
:0201BA000364DC
:0201BB000364DB
:0201BC000365D9
:0201BD000365D8
:0201BE000366D6
:0201BF000366D5
:0201C0000367D3
:0201C1000367D2
:0201C2000368D0
:0201C3000368CF
:0201C4000368CE
:0201C5000369CC
:0201C6000369CB
:0201C700036AC9
:0201C800036AC8
:0201C900036BC6
:0201CA00036BC5
:0201CB00036CC3
:0201CC00036CC2
:0201CD00036CC1
:0201CE00036DBF
:0201CF00036DBE
:0201D000036EBC
:0201D100036EBB
:0201D200036EBA
:0201D300036FB8
:0201D400036FB7
:0201D5000370B5
:0201D6000370B4
:0201D7000370B3
:0201D8000371B1
:0201D9000371B0
:0201DA000372AE
:0201DB000372AD
:0201DC000372AC
:0201DD000373AA
:0201DE000373A9
:0201DF000374A7
:0201E0000374A6
:0201E1000374A5
:0201E2000375A3
:0201E3000375A2
:0201E4000376A0
:0201E50003769F
:0201E60003769E
:0201E70003779C
:0201E80003779B
:0201E90003779A
:0201EA00037898
:0201EB00037897
:0201EC00037995
:0201ED00037994
:0201EE00037993
:0201EF00037A91
:0201F000037A90
:0201F100037A8F
:0201F200037B8D
:0201F300037B8C
:0201F400037B8B
:0201F500037C89
:0201F600037C88
:0201F700037C87
:0201F800037D85
:0201F900037D84
:0201FA00037D83
:0201FB00037E81
:0201FC00037E80
:0201FD00037E7F
:0201FE00037F7D
:0201FF00037F7C
:00000001ff
