:020000040000FA
:020000000936BF
:020001000924D0
:020002000912E1
:0200030008FCF7
:0200040008E60C
:0200050008D41D
:0200060008C22E
:0200070008B43B
:02000800089A54
:02000900088865
:02000A00087874
:02000B00086685
:02000C00085298
:02000D00083EAB
:02000E000830B8
:02000F000822C5
:020010000808DE
:0200110007FAEC
:0200120007ECF9
:0200130007DC08
:0200140007CA19
:0200150007BC26
:0200160007A839
:02001700079E42
:02001800078857
:02001900077A64
:02001A00076C71
:02001B0007607C
:02001C00074C8F
:02001D0007409A
:02001E000730A9
:02001F000720B8
:020020000712C5
:020021000702D4
:0200220006F2E4
:0200230006E8ED
:0200240006DCF8
:0200250006CE05
:0200260006BC16
:0200270006B41D
:0200280006A62A
:02002900069639
:02002A00068C42
:02002B0006824B
:02002C0006725A
:02002D00066665
:02002E00065872
:02002F00064E7B
:02003000064484
:0200310006388F
:02003200062A9C
:02003300061EA7
:020034000614B0
:020035000608BB
:0200360005FCC7
:0200370005F0D2
:0200380005E4DD
:0200390005DAE6
:02003A0005D0EF
:02003B0005C6F8
:02003C0005BA03
:02003D0005B20A
:02003E0005A615
:02003F00059A20
:02004000059227
:02004100058A2E
:02004200057E39
:02004300057244
:02004400056C49
:02004500056450
:02004600055A59
:02004700055062
:0200480005466B
:02004900054070
:02004A0005327D
:02004B00052E80
:02004C00051E8F
:02004D00051894
:02004E00050AA1
:02004F000502A8
:0200500004FCAE
:0200510004F4B5
:0200520004ECBC
:0200530004E6C1
:0200540004DEC8
:0200550004D0D5
:0200560004CADA
:0200570004C2E1
:0200580004B8EA
:0200590004B2EF
:02005A0004AAF6
:02005B0004A2FD
:02005C00049E00
:02005D00049409
:02005E00048E0E
:02005F0004801B
:02006000047C1E
:02006100047821
:02006200047226
:0200630004682F
:02006400045E38
:02006500045441
:02006600044E46
:0200670004484B
:02006800044052
:02006900043C55
:02006A0004365A
:02006B0004325D
:02006C00042668
:02006D0004226B
:02006E00041874
:02006F00041477
:02007000040E7C
:02007100040881
:02007200040286
:0200730003FA8E
:0200740003F295
:0200750003EC9A
:0200760003E4A1
:0200770003DEA6
:0200780003D8AB
:0200790003D6AC
:02007A0003D0B1
:02007B0003CAB6
:02007C0003C6B9
:02007D0003C0BE
:02007E0003BCC1
:02007F0003B6C6
:0200800003ACCF
:0200810003A4D6
:0200820003A0D9
:02008300039CDC
:020084000394E3
:020085000392E4
:020086000392E3
:020087000382F2
:02008800037CF7
:02008900037AF8
:02008A000376FB
:02008B00037000
:02008C00036C03
:02008D00036608
:02008E0003620B
:02008F0003600C
:02009000035615
:02009100035416
:02009200035217
:02009300034C1C
:02009400034423
:02009500034224
:02009600033E27
:02009700033A2A
:0200980003342F
:02009900032E34
:02009A00032A37
:02009B00032A36
:02009C0003203F
:02009D00031E40
:02009E00031A43
:02009F00031646
:0200A000031447
:0200A100030A50
:0200A200030653
:0200A300030256
:0200A400030057
:0200A50002FA5D
:0200A60002F264
:0200A70002F065
:0200A80002EA6A
:0200A90002E66D
:0200AA0002E072
:0200AB0002DC75
:0200AC0002D878
:0200AD0002D679
:0200AE0002D27C
:0200AF0002D27B
:0200B00002CE7E
:0200B10002C883
:0200B20002C684
:0200B30002C485
:0200B40002C484
:0200B50002BA8D
:0200B60002BA8C
:0200B70002B68F
:0200B80002AE96
:0200B90002AC97
:0200BA0002A89A
:0200BB0002A49D
:0200BC0002A29E
:0200BD00029AA5
:0200BE00029AA4
:0200BF00029AA3
:0200C0000294A8
:0200C100028EAD
:0200C200028AB0
:0200C3000288B1
:0200C4000288B0
:0200C5000284B3
:0200C600027EB8
:0200C700027CB9
:0200C800027ABA
:0200C900027AB9
:0200CA000278BA
:0200CB000270C1
:0200CC000270C0
:0200CD00026CC3
:0200CE00026AC4
:0200CF000260CD
:0200D0000260CC
:0200D100025ECD
:0200D200025AD0
:0200D3000256D3
:0200D4000256D2
:0200D5000256D1
:0200D6000252D4
:0200D700024CD9
:0200D8000246DE
:0200D9000246DD
:0200DA000246DC
:0200DB000242DF
:0200DC00023EE2
:0200DD00023EE1
:0200DE00023AE4
:0200DF000234E9
:0200E0000230EC
:0200E100022AF1
:0200E2000230EA
:0200E300022AEF
:0200E4000226F2
:0200E5000226F1
:0200E6000222F4
:0200E7000220F5
:0200E8000220F4
:0200E900021EF5
:0200EA000214FE
:0200EB000216FB
:0200EC000214FC
:0200ED000210FF
:0200EE00020C02
:0200EF00020C01
:0200F000020C00
:0200F100020407
:0200F200020604
:0200F300020207
:0200F40001FE0B
:0200F50001FC0C
:0200F60001FA0D
:0200F70001F80E
:0200F80001F411
:0200F90001F212
:0200FA0001EE15
:0200FB0001EE14
:0200FC0001EE13
:0200FD0001EC14
:0200FE0001E817
:0200FF0001E41A
:02010000055B9D
:02010100054EA9
:020102000540B6
:020103000537BE
:020104000529CB
:020105000520D3
:020106000513DF
:02010700050BE6
:0201080004FDF4
:0201090004F6FA
:02010A0004E906
:02010B0004E10D
:02010C0004D815
:02010D0004CD1F
:02010E0004C328
:02010F0004BB2F
:0201100004AF3A
:0201110004A543
:02011200049D4A
:02011300049452
:0201140004895C
:02011500048262
:0201160004796A
:02011700046F73
:0201180004657C
:02011900045D83
:02011A0004558A
:02011B00044D91
:02011C00044598
:02011D00043AA2
:02011E000432A9
:02011F00042BAF
:020120000421B8
:020121000419BF
:020122000412C5
:02012300040BCB
:020124000403D2
:0201250003FBDA
:0201260003F2E2
:0201270003EBE8
:0201280003E4EE
:0201290003DEF3
:02012A0003D5FB
:02012B0003D0FF
:02012C0003CA04
:02012D0003C10C
:02012E0003B913
:02012F0003B219
:0201300003AD1D
:0201310003A722
:0201320003A028
:0201330003992E
:02013400039234
:02013500038B3A
:0201360003863E
:02013700038043
:0201380003784A
:0201390003744D
:02013A00036C54
:02013B0003655A
:02013C0003605E
:02013D00035B62
:02013E00035369
:02013F00034E6D
:02014000034971
:02014100034475
:02014200033F79
:02014300033780
:02014400033284
:02014500032C89
:0201460003278D
:02014700032192
:02014800031C96
:02014900031899
:02014A0003139D
:02014B00030EA1
:02014C000306A8
:02014D000302AB
:02014E0002FDB0
:02014F0002F8B4
:0201500002F4B7
:0201510002EDBD
:0201520002EBBE
:0201530002E4C4
:0201540002E1C6
:0201550002DACC
:0201560002D6CF
:0201570002D3D1
:0201580002CDD6
:0201590002C9D9
:02015A0002C4DD
:02015B0002C0E0
:02015C0002BBE4
:02015D0002B6E8
:02015E0002B1EC
:02015F0002ACF0
:0201600002A7F4
:0201610002A3F7
:0201620002A0F9
:02016300029DFB
:02016400029AFD
:02016500029600
:02016600029104
:02016700028C08
:0201680002880B
:0201690002850D
:02016A0002820F
:02016B00027E12
:02016C00027916
:02016D00027519
:02016E0002721B
:02016F00026D1F
:02017000026823
:02017100026426
:02017200026326
:02017300026028
:02017400025C2B
:0201750002592D
:02017600025530
:02017700025232
:02017800024F34
:02017900024C36
:02017A0002463B
:02017B0002433D
:02017C00023F40
:02017D00023B43
:02017E00023845
:02017F00023547
:02018000023348
:02018100022F4B
:02018200022B4E
:02018300022850
:02018400022453
:02018500022155
:02018600021E57
:02018700021C58
:0201880002195A
:0201890002155D
:02018A0002135E
:02018B0002125E
:02018C00020F60
:02018D00020A64
:02018E00020865
:02018F00020369
:0201900001FF6D
:0201910001FF6C
:0201920001FC6E
:0201930001F871
:0201940001F771
:0201950001F572
:0201960001F373
:0201970001F075
:0201980001EC78
:0201990001EA79
:02019A0001E77B
:02019B0001E37E
:02019C0001E080
:02019D0001DE81
:02019E0001DC82
:02019F0001D786
:0201A00001D785
:0201A10001D784
:0201A20001D08A
:0201A30001D089
:0201A40001CE8A
:0201A50001CA8D
:0201A60001C88E
:0201A70001C78E
:0201A80001C391
:0201A90001C192
:0201AA0001C092
:0201AB0001BC95
:0201AC0001BB95
:0201AD0001B996
:0201AE0001B797
:0201AF0001B19C
:0201B00001B09C
:0201B10001B09B
:0201B20001AD9D
:0201B30001AA9F
:0201B40001A99F
:0201B50001A6A1
:0201B60001A3A3
:0201B70001A2A3
:0201B80001A1A3
:0201B900019CA7
:0201BA00019DA5
:0201BB00019BA6
:0201BC000198A8
:0201BD000195AA
:0201BE000191AD
:0201BF000191AC
:0201C0000190AC
:0201C100018DAE
:0201C2000189B1
:0201C3000188B1
:0201C4000189AF
:0201C5000183B4
:0201C6000182B4
:0201C7000181B4
:0201C800017EB6
:0201C900017DB6
:0201CA00017EB4
:0201CB000179B8
:0201CC000179B7
:0201CD000179B6
:0201CE000173BB
:0201CF000172BB
:0201D0000170BC
:0201D100016EBD
:0201D200016EBC
:0201D300016DBC
:0201D400016BBD
:0201D5000167C0
:0201D6000164C2
:0201D7000165C0
:0201D8000165BF
:0201D9000162C1
:0201DA00015EC4
:0201DB00015EC3
:0201DC00015CC4
:0201DD000159C6
:0201DE000159C5
:0201DF000156C7
:0201E0000154C8
:0201E1000152C9
:0201E2000154C6
:0201E3000151C8
:0201E400014FC9
:0201E500014EC9
:0201E600014CCA
:0201E7000149CC
:0201E8000149CB
:0201E9000149CA
:0201EA000146CC
:0201EB000144CD
:0201EC000144CC
:0201ED000144CB
:0201EE000140CE
:0201EF00013FCE
:0201F000013FCD
:0201F100013CCF
:0201F200013AD0
:0201F3000139D0
:0201F4000139CF
:0201F5000138CF
:0201F6000134D2
:0201F7000133D2
:0201F8000130D4
:0201F9000131D2
:0201FA000130D2
:0201FB00012FD2
:0201FC00012ED2
:0201FD00012DD2
:0201FE00012BD3
:0201FF00012BD2
:00000001ff
