:020000040000FA
:0200000001BC41
:0200010001BB41
:0200020001BA41
:0200030001BA40
:0200040001B940
:0200050001B840
:0200060001B740
:0200070001B640
:0200080001B540
:0200090001B53F
:02000A0001B43F
:02000B0001B33F
:02000C0001B23F
:02000D0001B13F
:02000E0001B03F
:02000F0001B03E
:0200100001AF3E
:0200110001AE3E
:0200120001AD3E
:0200130001AC3E
:0200140001AC3D
:0200150001AB3D
:0200160001AA3D
:0200170001A93D
:0200180001A93C
:0200190001A83C
:02001A0001A73C
:02001B0001A63C
:02001C0001A63B
:02001D0001A53B
:02001E0001A43B
:02001F0001A33B
:0200200001A33A
:0200210001A23A
:0200220001A13A
:0200230001A03A
:0200240001A039
:02002500019F39
:02002600019E39
:02002700019D39
:02002800019D38
:02002900019C38
:02002A00019B38
:02002B00019B37
:02002C00019A37
:02002D00019937
:02002E00019837
:02002F00019836
:02003000019736
:02003100019636
:02003200019635
:02003300019535
:02003400019435
:02003500019434
:02003600019334
:02003700019234
:02003800019233
:02003900019133
:02003A00019033
:02003B00019032
:02003C00018F32
:02003D00018E32
:02003E00018E31
:02003F00018D31
:02004000018C31
:02004100018C30
:02004200018B30
:02004300018B2F
:02004400018A2F
:0200450001892F
:0200460001892E
:0200470001882E
:0200480001872E
:0200490001872D
:02004A0001862D
:02004B0001862C
:02004C0001852C
:02004D0001842C
:02004E0001842B
:02004F0001832B
:0200500001822B
:0200510001822A
:0200520001812A
:02005300018129
:02005400018029
:02005500018028
:02005600017F28
:02005700017E28
:02005800017E27
:02005900017D27
:02005A00017D26
:02005B00017C26
:02005C00017B26
:02005D00017B25
:02005E00017A25
:02005F00017A24
:02006000017924
:02006100017923
:02006200017823
:02006300017723
:02006400017722
:02006500017622
:02006600017621
:02006700017521
:02006800017520
:02006900017420
:02006A0001741F
:02006B0001731F
:02006C0001731E
:02006D0001721E
:02006E0001711E
:02006F0001711D
:0200700001701D
:0200710001701C
:02007200016F1C
:02007300016F1B
:02007400016E1B
:02007500016E1A
:02007600016D1A
:02007700016D19
:02007800016C19
:02007900016C18
:02007A00016B18
:02007B00016B17
:02007C00016A17
:02007D00016A16
:02007E00016916
:02007F00016915
:02008000016815
:02008100016814
:02008200016714
:02008300016713
:02008400016613
:02008500016612
:02008600016512
:02008700016511
:02008800016411
:02008900016410
:02008A00016310
:02008B0001630F
:02008C0001620F
:02008D0001620E
:02008E0001610E
:02008F0001610D
:0200900001600D
:0200910001600C
:02009200015F0C
:02009300015F0B
:02009400015E0B
:02009500015E0A
:02009600015E09
:02009700015D09
:02009800015D08
:02009900015C08
:02009A00015C07
:02009B00015B07
:02009C00015B06
:02009D00015A06
:02009E00015A05
:02009F00015905
:0200A000015904
:0200A100015903
:0200A200015803
:0200A300015802
:0200A400015702
:0200A500015701
:0200A600015601
:0200A700015600
:0200A800015500
:0200A9000155FF
:0200AA000155FE
:0200AB000154FE
:0200AC000154FD
:0200AD000153FD
:0200AE000153FC
:0200AF000152FC
:0200B0000152FB
:0200B1000152FA
:0200B2000151FA
:0200B3000151F9
:0200B4000150F9
:0200B5000150F8
:0200B600014FF8
:0200B700014FF7
:0200B800014FF6
:0200B900014EF6
:0200BA00014EF5
:0200BB00014DF5
:0200BC00014DF4
:0200BD00014DF3
:0200BE00014CF3
:0200BF00014CF2
:0200C000014BF2
:0200C100014BF1
:0200C200014BF0
:0200C300014AF0
:0200C400014AEF
:0200C5000149EF
:0200C6000149EE
:0200C7000149ED
:0200C8000148ED
:0200C9000148EC
:0200CA000147EC
:0200CB000147EB
:0200CC000147EA
:0200CD000146EA
:0200CE000146E9
:0200CF000145E9
:0200D0000145E8
:0200D1000145E7
:0200D2000144E7
:0200D3000144E6
:0200D4000143E6
:0200D5000143E5
:0200D6000143E4
:0200D7000142E4
:0200D8000142E3
:0200D9000142E2
:0200DA000141E2
:0200DB000141E1
:0200DC000140E1
:0200DD000140E0
:0200DE000140DF
:0200DF00013FDF
:0200E000013FDE
:0200E100013FDD
:0200E200013EDD
:0200E300013EDC
:0200E400013EDB
:0200E500013DDB
:0200E600013DDA
:0200E700013CDA
:0200E800013CD9
:0200E900013CD8
:0200EA00013BD8
:0200EB00013BD7
:0200EC00013BD6
:0200ED00013AD6
:0200EE00013AD5
:0200EF00013AD4
:0200F0000139D4
:0200F1000139D3
:0200F2000139D2
:0200F3000138D2
:0200F4000138D1
:0200F5000138D0
:0200F6000137D0
:0200F7000137CF
:0200F8000136CF
:0200F9000136CE
:0200FA000136CD
:0200FB000135CD
:0200FC000135CC
:0200FD000135CB
:0200FE000134CB
:0200FF000134CA
:020100000134C8
:020101000133C8
:020102000133C7
:020103000132C7
:020104000132C6
:020105000131C6
:020106000131C5
:020107000130C5
:020108000130C4
:02010900012FC4
:02010A00012FC3
:02010B00012EC3
:02010C00012EC2
:02010D00012DC2
:02010E00012DC1
:02010F00012CC1
:02011000012CC0
:02011100012BC0
:02011200012BBF
:02011300012ABF
:02011400012ABE
:020115000129BE
:020116000129BD
:020117000128BD
:020118000128BC
:020119000127BC
:02011A000127BB
:02011B000126BB
:02011C000126BA
:02011D000125BA
:02011E000125B9
:02011F000124B9
:020120000124B8
:020121000123B8
:020122000123B7
:020123000123B6
:020124000122B6
:020125000122B5
:020126000121B5
:020127000121B4
:020128000120B4
:020129000120B3
:02012A00011FB3
:02012B00011FB2
:02012C00011FB1
:02012D00011EB1
:02012E00011EB0
:02012F00011DB0
:02013000011DAF
:02013100011CAF
:02013200011CAE
:02013300011CAD
:02013400011BAD
:02013500011BAC
:02013600011AAC
:02013700011AAB
:020138000119AB
:020139000119AA
:02013A000119A9
:02013B000118A9
:02013C000118A8
:02013D000117A8
:02013E000117A7
:02013F000117A6
:020140000116A6
:020141000116A5
:020142000115A5
:020143000115A4
:020144000115A3
:020145000114A3
:020146000114A2
:020147000113A2
:020148000113A1
:020149000113A0
:02014A000112A0
:02014B0001129F
:02014C0001119F
:02014D0001119E
:02014E0001119D
:02014F0001109D
:0201500001109C
:0201510001109B
:02015200010F9B
:02015300010F9A
:02015400010E9A
:02015500010E99
:02015600010E98
:02015700010D98
:02015800010D97
:02015900010D96
:02015A00010C96
:02015B00010C95
:02015C00010C94
:02015D00010B94
:02015E00010B93
:02015F00010A93
:02016000010A92
:02016100010A91
:02016200010991
:02016300010990
:0201640001098F
:0201650001088F
:0201660001088E
:0201670001088D
:0201680001078D
:0201690001078C
:02016A0001078B
:02016B0001068B
:02016C0001068A
:02016D00010689
:02016E00010589
:02016F00010588
:02017000010587
:02017100010487
:02017200010486
:02017300010485
:02017400010385
:02017500010384
:02017600010383
:02017700010283
:02017800010282
:02017900010281
:02017A00010181
:02017B00010180
:02017C0001017F
:02017D0001007F
:02017E0001007E
:02017F0001007D
:0201800000FF7E
:0201810000FF7D
:0201820000FF7C
:0201830000FE7C
:0201840000FE7B
:0201850000FE7A
:0201860000FD7A
:0201870000FD79
:0201880000FD78
:0201890000FD77
:02018A0000FC77
:02018B0000FC76
:02018C0000FC75
:02018D0000FB75
:02018E0000FB74
:02018F0000FB73
:0201900000FA73
:0201910000FA72
:0201920000FA71
:0201930000FA70
:0201940000F970
:0201950000F96F
:0201960000F96E
:0201970000F86E
:0201980000F86D
:0201990000F86C
:02019A0000F76C
:02019B0000F76B
:02019C0000F76A
:02019D0000F769
:02019E0000F669
:02019F0000F668
:0201A00000F667
:0201A10000F567
:0201A20000F566
:0201A30000F565
:0201A40000F564
:0201A50000F464
:0201A60000F463
:0201A70000F462
:0201A80000F362
:0201A90000F361
:0201AA0000F360
:0201AB0000F35F
:0201AC0000F25F
:0201AD0000F25E
:0201AE0000F25D
:0201AF0000F25C
:0201B00000F15C
:0201B10000F15B
:0201B20000F15A
:0201B30000F05A
:0201B40000F059
:0201B50000F058
:0201B60000F057
:0201B70000EF57
:0201B80000EF56
:0201B90000EF55
:0201BA0000EF54
:0201BB0000EE54
:0201BC0000EE53
:0201BD0000EE52
:0201BE0000EE51
:0201BF0000ED51
:0201C00000ED50
:0201C10000ED4F
:0201C20000ED4E
:0201C30000EC4E
:0201C40000EC4D
:0201C50000EC4C
:0201C60000EB4C
:0201C70000EB4B
:0201C80000EB4A
:0201C90000EB49
:0201CA0000EA49
:0201CB0000EA48
:0201CC0000EA47
:0201CD0000EA46
:0201CE0000E946
:0201CF0000E945
:0201D00000E944
:0201D10000E943
:0201D20000E843
:0201D30000E842
:0201D40000E841
:0201D50000E840
:0201D60000E83F
:0201D70000E73F
:0201D80000E73E
:0201D90000E73D
:0201DA0000E73C
:0201DB0000E63C
:0201DC0000E63B
:0201DD0000E63A
:0201DE0000E639
:0201DF0000E539
:0201E00000E538
:0201E10000E537
:0201E20000E536
:0201E30000E436
:0201E40000E435
:0201E50000E434
:0201E60000E433
:0201E70000E333
:0201E80000E332
:0201E90000E331
:0201EA0000E330
:0201EB0000E32F
:0201EC0000E22F
:0201ED0000E22E
:0201EE0000E22D
:0201EF0000E22C
:0201F00000E12C
:0201F10000E12B
:0201F20000E12A
:0201F30000E129
:0201F40000E128
:0201F50000E028
:0201F60000E027
:0201F70000E026
:0201F80000E025
:0201F90000DF25
:0201FA0000DF24
:0201FB0000DF23
:0201FC0000DF22
:0201FD0000DF21
:0201FE0000DE21
:0201FF0000DE20
:00000001ff
