:020000040000FA
:030000000555485B
:0300010005258E44
:0300020004F6669B
:0300030004C7E44B
:030004000499FE5E
:03000500046CA2E6
:03000600043FC8EC
:0300070004137669
:0300080003E7AA61
:0300090003BC68CD
:03000A000391BEA1
:03000B0003678CFC
:03000C00033DC8E9
:03000D000314A039
:03000E0002EBF40E
:03000F0002C39A8F
:03001000029BDE72
:030011000274A0D6
:03001200024DBAE2
:0300130002275A67
:0300140002017E68
:0300150001DBF01C
:0300160001B6E64A
:030017000192460D
:03001800016DFC7B
:03001900014A3A5F
:03001A000126D2EA
:03001B000103D40A
:03001C0000E128D8
:03001D0000BEF82A
:03001E00009D1E24
:03001F00007BACB7
:03002000005A9EE5
:030021000039E6BD
:0300220000198A38
:030023000FF99240
:030024000FD9EA07
:030025000FBA8E81
:030026000F9B86A7
:030027000F7CF05B
:030028000F5EA6C2
:030029000F40C4C1
:03002A000F23247D
:03002B000F05CAF4
:03002C000EE8D209
:03002D000ECC04F2
:03002E000EAFA46E
:03002F000E937CB1
:030030000E77CC7C
:030031000E5C441E
:030032000E40FA83
:030033000E260A8C
:030034000E0B763A
:030035000DF108C2
:030036000DD6EEF6
:030037000DBD32CA
:030038000DA38E87
:030039000D8A38F5
:03003A000D714203
:03003B000D585EFF
:03003C000D3FEA8B
:03003D000D27A6E6
:03003E000D0F9211
:03003F000CF7D8E3
:030040000CE04A87
:030041000CC8E206
:030042000CB1D22C
:030043000C9AEE26
:030044000C8442E7
:030045000C6DE659
:030046000C57BC98
:030047000C41C4A5
:030048000C2BFA84
:030049000C168A08
:03004A000C011492
:03004B000BEC06B5
:03004C000BD722AD
:03004D000BC2588B
:03004E000BADDE19
:03004F000B998E7C
:030050000B8564B9
:030051000B7184AC
:030052000B5DBA89
:030053000B4A4015
:030054000B36D890
:030055000B23A2D8
:030056000B10B6D6
:030057000AFDD6C9
:030058000AEB446C
:030059000AD8CAF8
:03005A000AC66E65
:03005B000AB4588C
:03005C000AA25C99
:03005D000A909670
:03005E000A7EDE39
:03005F000A6D62C5
:030060000A5C280F
:030061000A4AEE5A
:030062000A3A0255
:030063000A292047
:030064000A186A0D
:030065000A07F097
:0300660009F79403
:0300670009E75C4A
:0300680009D74471
:0300690009C73094
:03006A0009B77063
:03006B0009A7DA08
:03006C00099842AE
:03006D000988E817
:03006E000979AA63
:03006F00096A76A5
:03007000095B8A9F
:03007100094CB285
:03007200093E0242
:03007300092F6EE4
:030074000920E080
:03007500091292DB
:0300760009045A20
:0300770008F64246
:0300780008E8365F
:0300790008DA6042
:03007A0008CCBAF5
:03007B0008BF209B
:03007C0008B19038
:03007D0008A434A0
:03007E000896D20F
:03007F000889BA33
:03008000087CBA3F
:03008100086FAC59
:030082000862EC25
:0300830008562EEE
:03008400084980A8
:03008500083D082B
:0300860008309CA3
:03008700082462E8
:0300880008181441
:03008900080BF869
:03008A0008001457
:03008B0007F41067
:03008C0007E85A28
:03008D0007DC8C01
:03008E0007D0F2A6
:03008F0007C56C36
:0300900007BA109C
:0300910007AE9C1B
:0300920007A37051
:0300930007984A81
:03009400078D389D
:0300950007824897
:0300960007775891
:03009700076C7C77
:030098000761D429
:03009900075724E2
:03009A00074CA26E
:03009B00074240D9
:03009C000737C65D
:03009D00072D72BA
:03009E00072354E1
:03009F000719320C
:0300A000070F281F
:0300A10007052A26
:0300A20006FB4614
:0300A30006F166FD
:0300A40006E79AD2
:0300A50006DE0470
:0300A60006D4700D
:0300A70006CADEA8
:0300A80006C17618
:0300A90006B80492
:0300AA0006AEB4EB
:0300AB0006A57235
:0300AC00069C4E61
:0300AD0006932295
:0300AE00068A348B
:0300AF0006814483
:0300B00006784689
:0300B100066F8057
:0300B2000666A837
:0300B300065DFCEB
:0300B4000655549A
:0300B500064CCA2C
:0300B60006445CA1
:0300B700063BF015
:0300B80006337696
:0300B900062B3AD9
:0300BA000622FA21
:0300BB00061AB86A
:0300BC000612AC7D
:0300BD00060A90A0
:0300BE00060288AF
:0300BF0005FAA29D
:0300C00005F2B88E
:0300C10005EACE7F
:0300C20005E30A49
:0300C30005DB4416
:0300C40005D3A6BB
:0300C50005CC184F
:0300C60005C46E00
:0300C70005BCF283
:0300C80005B582F9
:0300C90005AE2A57
:0300CA0005A6B6D2
:0300CB00059F741A
:0300CC000598286C
:0300CD000590FE9D
:0300CE000589E0C1
:0300CF000582C8DF
:0300D000057BBEEF
:0300D1000574BCF7
:0300D200056DCCED
:0300D3000566F0CF
:0300D40005601EA6
:0300D50005594E7C
:0300D6000552864A
:0300D700054BD006
:0300D800054522B9
:0300D900053E924F
:0300DA000537E8FF
:0300DB0005316A82
:0300DC00052AEE04
:0300DD000524985F
:0300DE00051E2ECE
:0300DF000517C63C
:0300E00005118C7B
:0300E100050B36D6
:0300E2000504F41E
:0300E30004FEDE3A
:0300E40004F8BE5F
:0300E50004F2B270
:0300E60004EC9E89
:0300E70004E68AA2
:0300E80004E0969B
:0300E90004DAA492
:0300EA0004D4BE7D
:0300EB0004CEEC54
:0300EC0004C90E36
:0300ED0004C34405
:0300EE0004BD96B8
:0300EF0004B7F063
:0300F00004B24C0B
:0300F10004ACA2BA
:0300F20004A7124E
:0300F30004A17EE7
:0300F400049BF476
:0300F50004968AE4
:0300F60004910270
:0300F700048BA0D7
:0300F80004864239
:0300F9000480EA96
:0300FA00047B9CE8
:0300FB0004765A2E
:0300FC0004711E6E
:0300FD00046BE4AD
:0300FE000466BCD9
:0300FF0004618E0B
:030100000C5C771D
:030101000C41C3EB
:030102000C27586F
:030103000C0D32AE
:030104000BF36D8D
:030105000BD9EB28
:030106000BC0B774
:030107000BA7DE65
:030108000B8F4416
:030109000B76F67C
:03010A000B5EFD8C
:03010B000B47455A
:03010C000B2FD1E5
:03010D000B189B31
:03010E000B01BC26
:03010F000AEB17E1
:030110000AD4B15D
:030111000ABE8E95
:030112000AA8AC8C
:030113000A930448
:030114000A7DB1B0
:030115000A6891E4
:030116000A539BEE
:030117000A3EF8A5
:030118000A2A8C24
:030119000A16576C
:03011A000A025581
:03011B0009EE9456
:03011C0009DB0CF0
:03011D0009C7BD52
:03011E0009B49190
:03011F0009A1BB78
:03012000098F0341
:03012100097C83D3
:03012200096A3532
:030123000958195F
:0301240009463257
:0301250009347723
:030126000922F8B3
:030127000911A417
:030128000900804B
:0301290008EF7E5E
:03012A0008DEBB31
:03012B0008CE0EED
:03012C0008BDA764
:03012D0008AD59C1
:03012E00089D41E8
:03012F00088D56E2
:03013000087D94B3
:03013100086DEE68
:03013200085E87DD
:03013300084F4131
:0301340008401070
:030135000831147A
:0301360008224359
:0301370008139515
:030138000805199E
:0301390007F6B610
:03013A0007E87E55
:03013B0007DA558B
:03013C0007CC638A
:03013D0007BE8C6E
:03013E0007B0E126
:03013F0007A355BE
:030140000795F52B
:030141000788A686
:03014200077B84B4
:03014300076E77CD
:03014400076199B7
:030145000754D587
:030146000748293E
:03014700073BA8CB
:03014800072F334B
:030149000722EC9E
:03014A000716C1D4
:03014B00070AB5EB
:03014C0006FEBDEF
:03014D0006F2EFC8
:03014E0006E7338E
:03014F0006DB9D2F
:0301500006D027AF
:0301510006C4B829
:0301520006B97A71
:0301530006AE48AD
:0301540006A338C7
:0301550006983ECB
:03015600068D61B2
:0301570006829489
:030158000677F037
:03015900066D5DD3
:03015A000662DE5C
:03015B0006587BC8
:03015C00064E2F1D
:03015D000643FE58
:03015E000639DC83
:03015F00062FDE8A
:030160000625F27F
:03016100061C1663
:0301620006125D25
:030163000608AEDD
:0301640005FF1F75
:0301650005F59C01
:0301660005EC3A6B
:0301670005E2DFCF
:0301680005D9B006
:0301690005D0813D
:03016A0005C76A5C
:03016B0005BE6F5F
:03016C0005B58056
:03016D0005ACA43A
:03016E0005A3DA0C
:03016F00059B35B8
:0301700005929C59
:03017100058A0BF1
:0301720005818B79
:0301730005792DDE
:030174000570CD46
:0301750005689189
:03017600056062BF
:0301770005584ADE
:03017800055038F7
:0301790005483AFC
:03017A00054047F6
:03017B0005387CC8
:03017C000530A9A2
:03017D000528F959
:03017E0005214E0A
:03017F000519BDA2
:0301800005123134
:03018100050ABCB0
:0301820005034E24
:0301830004FBEB8F
:0301840004F4A7D9
:0301850004ED6A1C
:0301860004E63C50
:0301870004DF2A68
:0301880004D82078
:0301890004D1128C
:03018A0004CA2480
:03018B0004C34763
:03018C0004BC763A
:03018D0004B5AE08
:03018E0004AEF3C9
:03018F0004A85071
:0301900004A1B215
:03019100049B16B6
:030192000494973B
:03019300048E1ABD
:030194000487BC21
:0301950004816082
:03019600047B13D4
:030197000474CB22
:03019800046E9062
:0301990004687285
:03019A0004624EAE
:03019B00045C42BF
:03019C00045635D1
:03019D00045039D2
:03019E00044A50C0
:03019F00044468AD
:0301A000043E9783
:0301A1000438C758
:0301A20004330C17
:0301A300042D50D8
:0301A4000427A885
:0301A50004220E23
:0301A600041C82B4
:0301A7000416EB50
:0301A80004116BD4
:0301A900040BF94B
:0301AA00040695B3
:0301AB0004012C20
:0301AC0003FBDF73
:0301AD0003F68EC8
:0301AE0003F15208
:0301AF0003EC114D
:0301B00003E6F073
:0301B10003E1C99E
:0301B20003DCB2B9
:0301B30003D799D6
:0301B40003D290E3
:0301B50003CD9ADD
:0301B60003C8AAD1
:0301B70003C3B5CA
:0301B80003BEDCA7
:0301B90003B9F691
:0301BA0003B52268
:0301BB0003B06D21
:0301BC0003AB9BF7
:0301BD0003A6EBAB
:0301BE0003A23E5B
:0301BF00039D9B02
:0301C0000399039D
:0301C10003947133
:0301C200038FDDCB
:0301C300038B6249
:0301C4000386D8D7
:0301C50003826E44
:0301C600037DFEB8
:0301C70003799D1C
:0301C80003753C80
:0301C9000370F0D0
:0301CA00036CA91A
:0301CB0003685C6A
:0301CC00036419B0
:0301CD00035FF1DC
:0301CE00035BBF11
:0301CF000357973C
:0301D00003537B5B
:0301D100034F5B7E
:0301D200034B4D8F
:0301D3000347439C
:0301D40003433EA4
:0301D500033F4A9B
:0301D600033B5395
:0301D70003375F8C
:0301D80003337E70
:0301D900032F9061
:0301DA00032BB83C
:0301DB000327E90E
:0301DC00032425D4
:0301DD0003205D9F
:0301DE00031C956A
:0301DF000318E022
:0301E000031523E1
:0301E1000311798E
:0301E200030DDA30
:0301E300030A3AD2
:0301E40003069679
:0301E50003030C05
:0301E60002FF7F96
:0301E70002FBEB2D
:0301E80002F873A7
:0301E90002F4EF2E
:0301EA0002F1859A
:0301EB0002EE061B
:0301EC0002EA9F85
:0301ED0002E737EF
:0301EE0002E3DE4B
:0301EF0002E087A4
:0301F00002DD34F9
:0301F10002D9DC54
:0301F20002D69A98
:0301F30002D34EE6
:0301F40002D01323
:0301F50002CCD762
:0301F60002C9A19A
:0301F70002C66CD1
:0301F80002C34DF2
:0301F90002C02021
:0301FA0002BD0B38
:0301FB0002B9EC5A
:0301FC0002B6D672
:0301FD0002B3C783
:0301FE0002B0B399
:0301FF0002ADABA3
:00000001ff
